:020000040001F9
:10800000485F0020F53402000F3502002D350200D4
:108010000000000000000000000000000000000060
:108020000000000000000000000000001335020006
:1080300000000000000000001535020017350200A6
:108040001935020019350200193502009755020052
:10805000B955020000000000CD650200D3DA01002E
:108060001935020019350200B1CA010019350200A4
:1080700019350200193502001935020019350200C0
:1080800019350200E94F02001935020019350200C6
:10809000FF4F020019350200C162020019350200CB
:1080A0001935020019350200000000000000000030
:1080B00000000000000000000000000000000000C0
:1080C0000348854614F02EFB004800470B82010050
:1080D000485F0020401E00BF00BF00BF00BF00BFC0
:1080E00000BF00BF00BF00BF00BF00BF00BFF1D195
:1080F00070470000401E00BF00BF00BF00BF00BFB0
:1081000000BF00BF00BF00BF00BF00BF00BFF1D174
:1081100070470000401E00BF00BF00BF00BF00BF8F
:1081200000BF00BF00BF00BF00BF00BF00BFF1D154
:1081300070470000056885F308884068FF2464B232
:10814000EFF30585002D01D1A646004725460646DA
:1081500021273FBAF0B40024002500260027F0B400
:10816000F92040B200470000401E00BF00BF00BF22
:1081700000BF00BF00BF00BF00BF00BF00BF00BF07
:1081800000BFF1D1704700007B2101700A214170CE
:108190008D218170072101710121C1706D21417113
:1081A0000F2101720521C1716B218171082141727A
:1081B0007047A7210170704700210170704710B50A
:1081C00010F035FE10BD70474A4910B540180DD06B
:1081D0004949401802D001280AD104E00AF0F9FF09
:1081E00002F0E5F804E002F0ECF801E002F06FF8CC
:1081F000002010BD10B510F0A4FD10BD10B502F0A8
:1082000082F802F092FD10BD70470EB53BA207CA7E
:108210006B4607C300203C4C6A460423115C89006E
:1082200009190B60401CC0B20928F7D3FF20F530B4
:108230000DF0D0FF03F0EDF904F06AFD3349344846
:1082400003F081F8334803F0CDF806F018FC32480B
:1082500002F0E8F904F07DFD002804D0FF212FA2F0
:10826000283102F0A1FD30480FF03DFB002804D07A
:10827000FF212AA22B3102F097FD05F057FF09F0EC
:10828000C3FAFF21062006F012FDE121FF2089003C
:108290002D3006F0FFFC05F016FB040004D0FF2192
:1082A0001EA2373102F080FD0FF030FB03F040FBDF
:1082B00005211E4803F0B2FE06211D4803F0AEFE64
:1082C000200004D0FF2115A2443102F06DFD0120F1
:1082D00002F096FD08F004FA01F0B3FF03F072FA21
:1082E0000028FBD00CF0E4FC03F08FF803F09CF9BD
:1082F000F8E700004DEFFFFFB2C1FFFF08090A0CCD
:10830000111213141500000000070050BF81010076
:10831000C7810100F581010081AB01002E2E5C6D4B
:1083200061696E2E63000000C9810100FD810100BA
:108330000982010070B516460A4604461D460A2108
:10834000104614F01BF93030207030316170A57088
:108350000A21304614F012F93030E07030312171CA
:1083600070BDF0B58DB00024264608A803F085FE48
:1083700011F009FFFE4D392700281ED008A800790A
:108380000C2805D300D00C3808A90871072404E094
:10839000002800D10C2008A9087132200090022387
:1083A00022466968286805F0A1FF009702230E2283
:1083B0006968286805F09AFF00E0072602F060FF70
:1083C000002807D0009703CD02240023152205F0D2
:1083D0008DFF00E0042408A8427901793A230AA815
:1083E000FFF7A8FF01200C21E24A079605910690AD
:1083F00006CA03913A21029030250191DE48049289
:1084000000950CC805210AA806F065F908A882782D
:10841000C1783A230AA8FFF78DFF00200190D748C2
:10842000009502940CC805210AA806F01DF8263410
:1084300005F0C6FA002805D005F062FD502803D9E2
:10844000602216E0702214E03C2801D9502210E08E
:10845000282801D940220CE0142801D9302208E054
:108460000A2801D9202204E0052801D9102200E0C1
:108470000022C348009403C8002305F037FF05F02D
:10848000C5FE0DB0F0BD70B50021BE4D30226A545E
:10849000491CC9B20629FAD300280FD000240526AA
:1084A0000A2114F06BF8321B3031641CA954E4B279
:1084B000002801D0062CF3D3EC7270BD0120E872C5
:1084C00070BD0FB4FEB515460E460E9F0D9CFFF70E
:1084D000DAFFAC4AD07AA04201D9214600E0014639
:1084E00008AB9B7C002F12D0641A5C436319DBB28B
:1084F00002930623181A30240196801800940C9BCE
:108500000B9A05F0B1FFFEBC08BC04B01847641A12
:108510005C436319DBB202930623181A30240196D8
:10852000801800940C9B0B9A05F013FFEBE73EB507
:1085300004F049FE044611F023FE01468C4205D2A8
:1085400020466422504314F019F800E06420C5B2BC
:108550008D488E4A0121844201D904460AE09442A2
:1085600008D20420019084480291416800911022B1
:10857000036807E005200190854802914168009159
:1085800003680E2200212046FFF79BFF00200346D0
:10859000024600907F4803C805F0A8FE1C21082071
:1085A00001910090322303220E21284606F032F971
:1085B00005F02CFE3EBD0EB504F008FE7349491EC1
:1085C000884200D908460421019101226A49029299
:1085D0004A6800920B6810220021FFF772FF00200A
:1085E000034600906B48102203C805F07FFE05F09B
:1085F0000DFE0EBDF0B589B015460E461C46194657
:10860000149F0E9A00F096FF159B01213022002B3B
:10861000069607950597139D129B02AE2AC65948E8
:1086200001940092C17A08D00622521A1018109BA9
:108630000F9A06F050F809B0F0BD0622521A101831
:10864000109B0F9A05F07EFFF5E7F0B589B004F0B6
:10865000C0FD044611F08CFD002802D01C26232505
:1086600009E04D49204648434749491C13F086FF1D
:10867000232604462A2544484449844201D9044615
:1086800004E08C4202D202270A2101E00127642182
:10869000204613F073FF012207920621354A069106
:1086A00006CA059204910521334A039106CA029233
:1086B000019100222E2300971146FFF79BFF3220E5
:1086C0002B4C0090012332466168206805F00EFEB5
:1086D0003920009003CC01232A4605F007FE05F05F
:1086E00095FDA8E770B58CB008A80AF0D3FC00246B
:1086F000284D0128009461D008A80279274E142043
:10870000424300237168306805F0F0FD11F03BFD35
:10871000002815D008A840780C2805D300D00C38C4
:1087200008A94870A02205E0002800D10C2008A963
:1087300048708C222C20009003CE002305F0D6FD3B
:1087400008A8827841783A230AA8FFF7F3FD00943D
:1087500003CD0123202205F0C9FD102101200822AC
:1087600005920F4A0791069006CA0492039119E0F8
:10877000C8F90200D8F90200D0F90200F0F90200AD
:10878000B8F90200F02500209F86010010270000A4
:10879000E8F9020098F90200B9F20000C0F90200FD
:1087A000E0F90200302102903A220091F74801924C
:1087B0000CC805210AA805F08EFF04E003CD0123B3
:1087C000202205F093FD05F021FD0CB070BDF0B541
:1087D000EF4D8BB000283DD0002611F0D4FC0028CE
:1087E0001BD06C780C2C04D300D00C3CE4B20722D4
:1087F00003E0002C00D10C2400223220E54F009031
:1088000001237968386805F071FD3920009003CFA5
:1088100001230E2205F06AFD01E06C780726AA7894
:108820003A23214608A8FFF785FD0C210591002079
:10883000D9490796069003C90491039001223A2171
:1088400030206B4607C3D14805210CC808A805F0A5
:1088500042FF0EE0E87800280FD0022813D003284A
:1088600013D0182214200090CC48002303C805F030
:108870003DFD05F0CBFC0BB0F0BD1620BE220090F4
:108880000023C748F2E76022ECE74822EAE710B588
:10889000BF480AF0FFFB002802D10120FFF797FF35
:1088A00010BD30B5BFA085B000680390002404A8B7
:1088B00007F059FF6846007C002816D0642803D2D0
:1088C0003B206946087306E0642113F057FE303000
:1088D0006A46107311746A46107C0A2113F04EFE2A
:1088E00030306A465073303191731E20302102902F
:1088F00000250091A54801950CC8032103A805F0A7
:10890000B3FD6846417CA2480A38002906D00129F7
:1089100008D002290AD003290CD00FE01324C48008
:1089200005810BE03924C480262106E05F24C48041
:108930004C2102E08524C480722101819848009571
:1089400003C80023224605F0D1FC05F05FFC05B00A
:1089500030BDF0B58DB00BA808F086FF08A8007BED
:10896000002835D008AA3A25577B967B2C460A2149
:1089700013F004FE303008AA107030315170957039
:108980000A21384613F0FAFD303008AAD070303191
:10899000117154710A21304613F0F0FD303008AAED
:1089A00090713031D17101220021082005AB07C33D
:1089B0007D49022203C9049103903A2130206B467D
:1089C00007C37A4808210CC808A805F084FE58E5BA
:1089D00008A8827B417B3A23FFF7ACFC06220021EA
:1089E000082005AB07C3704D01266968286803900D
:1089F0003A200190049130276C48009702960CC8E9
:108A0000052108A805F067FE2E2408A80470C07B85
:108A10000A2113F0B3FD303108A841700020042171
:108A200007940591069003CD039004915F48009749
:108A3000029601940CC80221C6E7FFB583B01C461C
:108A40000D4606460C9FFFF784FF5948009503C862
:108A50000223324605F04AFC01200290534801945B
:108A60004168009103683A4602210598FFF729FD05
:108A700005F0CCFB07B0F0BD10B54AA086B0006889
:108A800000240490FFF765FF09F089FE002813D049
:108A900003A807F068FE6846407B002810D0012834
:108AA00004D0022804D0032804D009E0102407E0F1
:108AB000202405E0302403E009F080FE69460873B5
:108AC000052000903A48022303C8224605F00EFC18
:108AD0006846007B354900280BD00123032202930E
:108AE00001924A6800920B681E220221FFF7E9FCFE
:108AF00009E01E23022230206C460DC40CC903215C
:108B000004A805F0B1FC05F081FB06B010BD38B536
:108B1000402409F04AFE27490246884200D90A4605
:108B200012200090052301212046FFF786FF38BD63
:108B300070B588B0FFF70DFF052000901C48022398
:108B400003C8502205F0D2FB09F032FE044611F0B2
:108B50000FFB002802D03125382609E016492046AF
:108B600048431449491C13F009FD382504463F26A3
:108B700010481249844201D9044621E08C421FD298
:108B80000A21204613F0FAFC02211EE0D0F902006F
:108B90000A200020C8F90200D8F90200A0F902005A
:108BA000B0F902003A3A3A0000FA0200F8F902007D
:108BB000A8F902009F860100B9F20000102700000A
:108BC0006421204613F0DAFC0121012307930422DB
:108BD000FE4B069218CB04930594FD4B03920CCBED
:108BE0006C460EC42E2314220221FFF703FD32200F
:108BF000F84C009002232A466168206805F076FB55
:108C00003920009003CC0223324605F06FFB05F0BB
:108C1000FDFA08B070BD38B5602409F0CCFDEE490E
:108C20000246884200D90A461820042300901946BB
:108C30002046FFF702FF38BD30B58BB00024FFF7A8
:108C400088FE08A803F02AFA11F09DFA002812D035
:108C500008A800780C2805D300D00C3808A90870A3
:108C60004D2405E0002800D10C2008A908704624F6
:108C70000020102501E0012016250090D74802238E
:108C800003C8702205F032FB08A8427801783A2325
:108C900009A8FFF74FFB082105910220CB49079552
:108CA000069003C90491039001223A2130206B46BB
:108CB00007C3C74805210CC809A805F00CFD002C06
:108CC00007D039200090C348022303C8224605F08C
:108CD0000DFB05F09BFA0BB030BD7FB5C0480068B6
:108CE000039009F077FD0446642113F047FC084621
:108CF0000A2113F043FC30306A4650730A212046A3
:108D000013F03CFC30316A4691731220029000242B
:108D10003025AF48009501940CC8032103A805F045
:108D2000A3FB0094AD4C022340226168206805F04B
:108D3000DDFA102000900223B0226168206805F05F
:108D4000D5FA202000900223C0226168206805F037
:108D5000CDFA009503CC0223D02205F0C7FA05F026
:108D600055FA7FBD1FB50446642113F007FC084681
:108D70000A2113F003FC30306A4610730A212046A2
:108D800013F0FCFB30316A4651731B220021302066
:108D90006B4607C38E4802210CC803A805F0D9FA18
:108DA0001FBD08B5142000908E48002303C8302250
:108DB00005F09CFA05F02AFA08BD08B514210091C7
:108DC000002801D0902200E080228748002303C8B9
:108DD00005F03FFA08BD1FB53C21684601733D21EF
:108DE00041733E2181733F21C1730C220121302048
:108DF0006B4607C3764804210CC803A805F034FB72
:108E000005F004FA1FBD10B5002326E0C25C14462D
:108E1000303C092C01D8C4541DE01446413C192CA7
:108E200001D82E3A16E01446613C192C01D8343A88
:108E300010E01446803C302C01D8393A0AE02E2A42
:108E40000ED02C2A0ED02D2A0ED03A2A0ED03B2A34
:108E50000ED00A22C2545B1CDBB28B42D6D310BDAB
:108E60000C22F7E70D22F5E70B22F3E70E22F1E7DC
:108E70000F22EFE7F0B58DB003A801F0E3FE6846DE
:108E8000027B5A4D5A4C0026002A4CD0102A00D39F
:108E9000102203AFA276791C554813F0C9FBA17EBE
:108EA000082917D920206054A17E0722491CC9B285
:108EB000A1766054A17E491CC9B2A1766054A07EFF
:108EC000791C401CC0B2A076001913F0B1FBA07E43
:108ED000C01DA076A17E4648FFF795FFA07E002822
:108EE00022D0182000903D48002303C8802205F0BE
:108EF000FDF9A17E082900D908210820401A800622
:108F0000000E029002223B48009601920CC838489D
:108F100005F0AAFAA07E082812D9012028700420A2
:108F20006870AE7009E0A6762E70142000902D486F
:108F3000002303C81A4605F0D9F905F067F946E59C
:108F40002E70FAE73EB529480178002904D041780F
:108F5000002902D0491E41703EBD254B81789D7E7F
:108F60000C4608340022A54202D9491C817002E057
:108F70008270042141700221009202920191807856
:108F80001C4918180CC9082105F0E3F93EBD70B55D
:108F90009CB003A801F07DFE6846154C827B00253D
:108FA0007B34002A42D0612A00D36122104803AEEC
:108FB0002274F11C1B3013F03BFB227C082A30D9B1
:108FC0000B4820211B308154227C15E000FA02005E
:108FD000F8F90200C8F902000F270000A8F9020002
:108FE00050DE0200A0F90200B8F9020000200020C3
:108FF000FC25002008FA0200521CD2B222748154CF
:10900000227C521CD2B222748154217C0722491C3A
:10901000C9B221740818F11C13F00AFB207CC01D92
:109020002074217CFE48FFF7EEFE00E025746846C0
:109030008089FC494018030014F05AFA0B07070A0C
:109040000F0714191E2D23280700C020E02226E058
:109050002D2000012122120121E05D20C0001122FB
:1090600052011CE015204001FF22F13217E0572089
:10907000C0000122520212E05120C000FF22E13262
:109080000DE0032000022322120108E06320C0004B
:109090000922920103E03320000125221201217CE4
:1090A000E14E002922D018200090E048002303C898
:1090B00005F01CF9217C082900D908210820401A54
:1090C0008006000E02900222D948009501920CC839
:1090D000D34805F0C9F9207C082805D90120F07093
:1090E0000420307175710AE0F57008E00246F570F1
:1090F0001421D048009103C8002305F0F7F805F0CB
:1091000085F81CB070BD3EB5C748C178002904D0B1
:109110000179002902D0491E01713EBDC0490022DB
:1091200060310C7C41790B4608339C4202D9491CC2
:10913000417102E04271042101710221019100920A
:109140000292B74940790818B9490CC9082105F0BD
:1091500000F93EBD08B516200090B748002303C8AB
:10916000982205F0C3F805F051F808BD08B51420A1
:109170000090B048002303C8902205F0B7F805F02E
:1091800045F808BD08B516200090AB48002303C879
:10919000D12205F0ABF805F039F808BD08B5192162
:1091A0000091002801D0902200E0A0229F480223D5
:1091B00003C805F04EF808BD10B504F0A1FE05F097
:1091C0004EFB05F023F810BD08B500280AD0142086
:1091D00000909848002303C8782205F087F805F02E
:1091E00015F808BDFFF7A3F908BD10B505F037FB6A
:1091F00005F00CF810BD08B5162000908E4800232D
:1092000003C8AB2205F072F805F000F808BD3EB5C2
:109210008A4A8B4B05250024904203D91046002929
:109220000DD117E0002915D0984208D204210191F0
:10923000844902944A68009210220B6806E0824931
:10924000019502944A6800920B680E220021FFF7F4
:1092500038F93EBD09F0A9FA7C49019502944A68A3
:10926000009212220B680221F1E731B578A084B098
:10927000006803906846417C6B480025002906D0B1
:10928000012908D002290AD003290CD00FE01321AC
:10929000C18005810BE03921C180262106E05F21D4
:1092A000C1804C2102E08521C18072210181684684
:1092B000007C002819D0642803D23B20694608733B
:1092C00006E0642113F05AF930306A4610731174C5
:1092D0006A46147C0A21204613F050F930306A4661
:1092E000303150739173002C03D16846C07C012843
:1092F0000AD11E20302102900091524801950CC8DD
:10930000032103A805F025F805B030BDF1B58CB0F8
:1093100008A8017C0591407C039008A80025302610
:109320004A4F807C049000292ED00A2113F026F9A0
:10933000303008AA1070303151702D200290009604
:109340000195022108A87B683A6805F002F80498A4
:10935000002818D10124039A05993A2308A8FEF79A
:10936000E9FF08203B4906950794059003C904913D
:10937000039001203A210191029000960CCF052123
:1093800008A805F0DFF8DAE508A8C47C0A21204621
:1093900013F0F4F8303108A80170322002900096E2
:1093A0000195012108A87B683A6804F0D2FF002CDF
:1093B000E9D106243A23049A0399CFE708B51A495C
:1093C000002801D0CA8800E00A89002003460090E6
:1093D000194803C804F03DFF08BD10B58AB0044623
:1093E00010F0D1FE002801D0162100E01D21002C34
:1093F00004D03A2008AA10700C2003E0202008AA0C
:10940000107000200791012213490692059003C9AC
:109410000491039008A800783021029200911DE089
:1094200017260020FFCFFFFF00200020A8F9020030
:1094300008FA0200A0F90200B0F902009F860100BC
:1094400010270000D0F90200E8F90200F8F9020044
:109450003A3A3A0000FA0200D8F902000190464870
:1094600001210CC808A805F06DF80AB010BD1FB5A1
:109470000446642113F082F830306A4610730A21E2
:10948000204613F07BF80C460A2113F077F83031B0
:109490006A465173214630319173082200213020F1
:1094A0006B4607C3354803210CC803A804F0DCFF52
:1094B00004F0ACFE1FBD1FB503F0C9FC3A216A469B
:1094C00011730A2113F05AF80C460A2113F056F8CA
:1094D00030316A4651732146303191730020034682
:1094E00000902748A82203C804F000FF1C22012195
:1094F00030206B4607C3234803210CC803A804F09F
:10950000B3FF04F083FE1FBD1FB51FA000680390CA
:10951000042103A8FFF777FC1022012100206B46ED
:1095200007C31A4804210CC803A804F09DFF04F0E7
:109530006DFE1FBD70B50D46511E144606291AD288
:10954000FEF7A1FF124B2E2D04D1D97A601C814267
:1095500000D2D87200200521091B04E01A185278A5
:109560001A54401CC0B28142F8DC1D54D87A062837
:1095700001D2401CD87270BDD0F90200E8F9020097
:10958000A0F90200F8F902005465737408FA0200A9
:10959000F025002010B5F9490A79022A09D10A46B6
:1095A000143A1278002A04D08978132901D1FFF7E0
:1095B000D9FB10BD70B5F14D0446093D6878A04255
:1095C00019D028460B38002C0AD00121002289032B
:1095D00000690BF003FE00280CD0E9A2EF4907E078
:1095E00000690BF038FE002804D0EC49E4A2C91C45
:1095F00001F0DAFB6C70002070BD70B5DF4D0446E1
:10960000287800280CD10120FFF7D4FF68780028C3
:1096100002D1012001F0F4FB05F081F9012028704E
:109620006C7170BD10B504460846FFF7E6FFD348DD
:10963000230001468470143913F05AFF21141215C7
:10964000181B1E214B4B1424272A2D30143636624A
:1096500033143945485F514E55585C143F6514002A
:10966000FEF77FFE10BDFFF71CF910BDFEF75FFF90
:1096700010BDFEF7EAFF10BDFEF79DFF10BDFFF71E
:1096800031F810BDFFF7F8F910BDFFF740FA10BD33
:10969000FFF74EFA10BDFFF7BEFA10BDFFF7CCFA88
:1096A00010BDFFF71AFB10BDFFF77BFB10BDC8789C
:1096B0000028FBD0FFF7DEFB10BDC8780028FBD0E8
:1096C000FFF765FC10BDFFF7E2F810BDFFF742FDA4
:1096D00010BDFFF757FD10BDFFF76EFD10BD012057
:1096E000FFF772FD10BD0A20487100E06420FFF70B
:1096F0007CFD10BDFFF77FFD10BDFFF737FD10BDEE
:10970000FFF769FB10BDFFF7FFFE10BDF8B59B4EDC
:1097100002233179F1700121032704220025A04C96
:109720003071012809D002282BD0032804D1102041
:109730002070A1726572B070F8BD21706370A7705F
:10974000E27005202071A07209F086F9002805D08A
:10975000A17A06206054A07A401CA07210F01DFD72
:10976000002805D0A17A07206054A07A401CA0727E
:1097700003F06DFB002801D01E201AE065722078EE
:10978000D9E77E48A57214380078002803D013204A
:109790002070A172F2E70A2020700B2060700C206C
:1097A000A0700D20E070A27208F0F9FF0028E5D04B
:1097B0000E20A17A6054A07A401CA072DEE770B53A
:1097C0006E4D2879022814D12C46143C20780028AC
:1097D0000FD0002626700220FFF798FFA8780421FA
:1097E000FFF720FF08F0F9FF6421012005F08EFA51
:1097F000667270BD70B5614D2879022813D12C4670
:10980000143C207800280ED1012020700220FFF7A0
:109810007DFFA8780421FFF705FF6421012005F0F2
:1098200075FA0020607270BD54490979022908D187
:10983000524914390978884203D0002800D0D9E76A
:10984000BDE7704770B5012001F0DAFA4B4E0024F5
:1098500030793546143D022804D0012000F01BFF6A
:10986000022008E02C70002000F015FF08F0C2FE76
:1098700008F00AF80120FFF749FFB0780421FFF74C
:10988000D1FE6421012005F041FA6C7270BD3B48A5
:109890000079022800D1D5E7704701B537484178F3
:1098A000002911D1017800290ED0807802280CD02F
:1098B0000A2809D16846C078012803D06846007894
:1098C000002801D0FFF7D8F808BD0098FFF7CDFCBD
:1098D00008BD10B529484178002907D10178012930
:1098E00004D18078012801D1FEF73BFD10BD10B5F1
:1098F000102912D121498978CA1E130013F0F8FDEE
:109900000B07101C0D0D0D0D0D0716220D00032960
:1099100004D000214068FFF77AFC10BD0121F9E76F
:1099200000784007F9D5FEF790FE10BD007840079B
:10993000FBD5FFF7FDF810BD00788007FBD5FEF7DB
:109940003AFE10BD00784007FBD5FFF764F910BD63
:109950001FB50A48417800290ED1017801290BD1A1
:109960008078C11E032902D30B38032804D20D4A84
:10997000102168460BF024F91FBD000024200020B0
:109980002E2E5C2E2E5C7372635C646973706C6146
:10999000795C75695F6D656E752E6300A6050000C4
:1099A00088260020EF980100F94B10B59A781946E7
:1099B00018461439C079162A1FD010DC082A36D070
:1099C00006DC012A16D0022A01D1FFF7F7FC10BDF0
:1099D000112A15D0152AFAD1FFF7B4FA10BD192AA9
:1099E00031D01B2A18D01E2A30D01F2AF6D1FFF7FB
:1099F0008AFB10BDFFF7F1FC10BDFEF7E8FE10BDBD
:109A00000A79002A02D0521E0A7102E010209870D2
:109A10000020FFF7D2F910BD4879642801D2143034
:109A200000E000204871C0B2FFF7DFFB10BD8A796B
:109A3000002A02D0521E8A7102E00720987001208D
:109A4000FFF7ACFB10BDFFF7BFFB10BDFFF733FD09
:109A500010BDCF480178012907D1C179002902D072
:109A60000021C171A0E70121FBE77047C84810B58C
:109A7000C84A0121001F0BF03CFB002803D0C64A56
:109A8000C64901F091F9C24900200939487010BD5A
:109A900010B5BF4801798078032903D1102803D07D
:109AA000112801D0042108E0B949042014390871B3
:109AB000BB480DF026FF04211120FFF7B3FD10BDB8
:109AC000B34A10B514781346012003211B79002CEA
:109AD00001D0032B20D19278152A1ED01F2A1CD02A
:109AE000162A1DD0172A1BD0182A19D0192A17D0C8
:109AF000012B16D0A64C143C022B15D0032B0BD1F6
:109B00002079002808D105F036F9002804D1607AC0
:109B1000002801D0FFF7BCFF10BD1046052100E072
:109B20001046FFF77FFD10BD2078002802D00321EA
:109B30001320F6E703210A20F3E710B510F029FB04
:109B4000002808D092484078002804D10021954A86
:109B500008460BF035F810BD10B504F0F1FE8C4846
:109B600000220270817815290CD01F290AD01629ED
:109B700008D0172906D0182904D0192902D00521A8
:109B8000817110BD827110BD10B5814C2079032800
:109B90000ED1E078FFF7BAFDA0780421FFF742FD6F
:109BA0006421012005F0B2F80020214614394872E2
:109BB00010BD10B501F064FB002801D001F011F9CF
:109BC000002001F01DF9724C2079022802D00328F0
:109BD00003D004E0FFF736FE01E0FFF7D5FF07F002
:109BE00049F8FFF7B9FF04F0E9FF03F03AFD03F08D
:109BF00081FD02F093FA0220607010BD10B501F0F3
:109C00003FFB002801D001F0ECF8002001F0F8F84B
:109C10005F4C2079022802D0032803D004E0FFF72C
:109C200011FE01E0FFF7B0FF07F024F804F0C6FFD3
:109C30000120607003211A20FFF7F4FC10BD10B55D
:109C400002F04BFB03F052FD514901204870032103
:109C50001A20FFF7E7FC10BD10B5012001F0D0F885
:109C600007F01EF802F039FB03F040FD48480021E0
:109C7000417080780421FFF7D5FC10BD10B501209C
:109C800001F0BEF807F00CF84148002141708078DF
:109C90000421FFF7C7FC10BDF8B53D4C424F2079B9
:109CA0007E7AA578012805D1FFF730FD072D01D078
:109CB0007E72A570F8BD70B5354E307903280FD08F
:109CC00035460024143D2C710320FFF71FFDB078AA
:109CD0000421FFF7A7FC6421012005F017F86C723E
:109CE00070BD0A4608B50146042A0ED128480278FC
:109CF000012A0AD180780A38052806D2042268464B
:109D000012F096FC0098FFF701FB08BD01B5204852
:109D1000417800290BD10178012908D180780A38CF
:109D2000052804D2214A042168460AF049FF08BDEB
:109D3000F8B50426304601F087FB012001F060F8F9
:109D40001948134C417AA378425C93420BD1827A32
:109D5000521E914201DA491C00E00021C9B2417251
:109D6000405CA07000E0A270094DA078143D02286C
:109D70001ED00027AF706878002803D0022006F0BC
:109D800035FA6F70A0783146FFF74CFCF8BD000043
:109D900024200020539A0100809901009B050000B7
:109DA00006400000C19A010088260020E39C0100C3
:109DB0003E260220A870E5E7F8B507460229E5D15E
:109DC000FA4D39782C461434207800268446607881
:109DD000A2781E2973D024DC152971D015DCF44B30
:109DE00001295B7A3FD010296BD011296AD0142940
:109DF000CCD17878012872D00328C7D11B2A6FD024
:109E00001C2A6DD0012A6BD0DBE0192969D01A29F0
:109E100068D01B2967D01D29B8D1604601286FD0B2
:109E2000A8E1352908D00ADC28296AD0322969D06E
:109E3000332968D03429A9D1FFF72EFFA6E73629A8
:109E400077D0372976D03829A0D100289ED17878CC
:109E5000012870D0FF2899D104F07CFFEE70A07823
:109E60001F2869D092E7D1497F7814310979012FF1
:109E700011D0022F64D0032F76D0042F86D10FF09B
:109E800007FF002882D104211220FFF7CBFB01201D
:109E9000E871287284E0012807D0032916D06046B3
:109EA000002816D002293AD047E060460028C5D1E4
:109EB00003F086FD002806D003211A209DE050E122
:109EC00083E0FEE017E104211B2096E0FFF7E0FDB0
:109ED0005CE704F01BF8002806D01A2015E065E0C6
:109EE0006AE096E024E14AE103F06AFD00280BD025
:109EF00003F066FD01280CD0A07802280BD005E005
:109F000032E1CAE020E199E01B20A0700421A07892
:109F100073E01C20F9E73E210220A870F7E72878BB
:109F200000280AD0A248C05C824206D1FFF747FC55
:109F30002CE747E152E163E0D3E0FFF7F9FE25E7C4
:109F400001288FD0032979D0072A02D0FFF77AFCA5
:109F50001CE7012986D10420A87196480DF0D1FC98
:109F6000042108201AE0FFE70128B1D00229AFD16F
:109F700008F015FC0028ABD108F0DCFB002000F055
:109F80008AFB2E708A480E21827A8154817A491C7C
:109F90008172894807F074FCA0780421FFF742FB26
:109FA0006421F7E004F0B2FE6E72EFE604211B209C
:109FB000FFF738FB012005E07D480421C05CFFF776
:109FC00031FB002006F079FEE0E60028B0D1787879
:109FD00001280AD0052801D0FF28A9D104F0BAFE33
:109FE000EE70A07815287DD0D0E60120E87007211A
:109FF0001520FFF717FBEE7060E0FFF713FBC5E6D7
:10A000000120E87007211F20FFF70CFBEE704621AE
:10A01000C0E000288CD17878012810D0022815D013
:10A02000FF2813D0032814D004281FD0052886D178
:10A03000604601288CD1062A72D0A7E68EE007215F
:10A040001620FFF7EFFA46211920ABE700F0C3F91D
:10A050009CE608F001FD0028A7D020790128A4D1B2
:10A06000534DA7786E7AFFF751FB13E0162A01D102
:10A0700000F0B1F908F0F0FC002896D12079012811
:10A0800093D14B4DA7786E7AFFF740FB062F8CD00B
:10A09000162F8AD06E72A77078E6002885D178785E
:10A0A000012807D0FF288FD104F054FEA07819288A
:10A0B00031D06BE607211920FFF7B4FA46210520BD
:10A0C00070E7002890D17878012811D0022801D0BB
:10A0D000FF2889D104F03EFE03F012FCA078172877
:10A0E0008DD100E017E03248417A405C032184E7DB
:10A0F0000721172017E000289FD17878012810D079
:10A10000022801D0FF2898D104F024FE05F0BFF901
:10A11000A078182891D12648417A405C04216CE748
:10A1200059E007211820FFF77DFA4621032039E77F
:10A1300004211D20FFF776FA204800F0EFFD06F01D
:10A1400099FD01F0C9FA21E60028A5D17878012807
:10A1500002D1FFF7B0FD19E602289DD1FFF714FDEB
:10A1600014E601F0BFFA11E6012A03D104211046DA
:10A17000FFF758FA207903288ED17878ECE77878C1
:10A18000012809D0052887D100200FF08FFDFFF7A7
:10A1900083FD3221012005E73221012004F0B6FDC4
:10A1A0006E7207480DF0ADFBF0E5000010200020B6
:10A1B00088260020114000000D9D010025A201000D
:10A1C000A31000000028BED160460128BBD1012A9F
:10A1D00001D0042AB7D1042110460EE7797801296D
:10A1E0000AD0022908D0032912D00429ABD10228B1
:10A1F000A9D0FFF7DEFCC9E50028A4D0012804D0CF
:10A200000228A0D1FFF728FDC0E5FFF737FDBDE527
:10A21000012898D0022802D0FFF7F0FCB6E5FFF73E
:10A220000EFDB3E501B574484078022803D16846B5
:10A230000078372804D1714A022168460AF0C0FC30
:10A2400008BD7CB5042600F075FC6D4800F063FD88
:10A2500002216846017070214170032181709721AD
:10A26000C17093210171674903F09FFB0120FFF743
:10A270004DFAFFF7FBFB0120FFF79CF9624802F063
:10A2800099FF0621614801F0C9FE614806F00DFD05
:10A29000594C0025657002F0DAFD002801D01E201F
:10A2A000A070A0783146FFF7BDF96421012004F0C9
:10A2B0002DFD514814384572C571564808F081FA91
:10A2C000554808F081FA554808F081FA7CBD10B570
:10A2D00000F0D6FF002801D000F083FD002000F040
:10A2E0008FFD06F0D0FCFFF737FC04F067FC01F0AF
:10A2F00015FF4B490020086002460123022105207A
:10A3000001F03DFA10BD70B53B48002502780146CA
:10A310004979002A01D1002905D0491E0906090EF4
:10A3200041710DD011E0817900290ED0491E090636
:10A33000090E817109D13B494D720978817004E0A1
:10A340000020FFF737F9FFF707FC2B4C143CA078EF
:10A35000012600280AD0A078401EA070A07800280E
:10A3600004D13C21022005F0A9FF6670E0790028A5
:10A3700008D0207A002803D0207A401E207201E005
:10A38000FFF7A5FF04F0F7FC002802D06572A57264
:10A3900070BDA07A022802D2401CA07270BD667205
:10A3A00070BD15480078012800D00020704710B516
:10A3B0007820FFF722F9104920208870FFF7A4F8D1
:10A3C00010BD10B50220FFF718F90B491220887054
:10A3D000FEF701FD10BD10B504F0BCFC08F032FB27
:10A3E00005488078162805D10E48417A405C032143
:10A3F000FFF718F910BD000024200020B99D0100CE
:10A4000025A201003B9B010051990100D398010056
:10A410009B9801008F9801002998010095950100F3
:10A420001C070050882600209B49401802D19B49F8
:10A430000120C87000207047FEB5984D00241435E7
:10A440002F460E3F01AE311920460CF006FA305D62
:10A45000002803D06000285A44285DD9385D0028C0
:10A4600057D060000090285A012852D98B48C06804
:10A470000AF0F1FE89488268002A4AD00098FF213C
:10A48000285A1931884207D98448001D005D0521EA
:10A490009047002038553CE044280CD97F4800996B
:10A4A0001830415A002934D1009B0121C15214387F
:10A4B000005D022111E079484178002931D001780E
:10A4C00000290CD00021017000690AF0C4FE734815
:10A4D000724A001D9268005D0321904719E06F48A1
:10A4E0000121017000690AF0B6FE002803D06CA2B9
:10A4F0006E2100F059FC69486E49001D0219001FC9
:10A5000000690AF06BFE002803D065A2702100F0FC
:10A510004BFC305D00280CD06100685A401C68522A
:10A520000EE000210170012181705C48001D005D7A
:10A53000D3E75A4A00206100183250526852385509
:10A54000641CE4B2022C00D27DE70020315C0029BB
:10A5500015D0524CE0680AF07EFE002803D050A2CD
:10A560009F2100F021FC00225349E0680AF036FEEA
:10A57000002803D04AA2A12100F016FCFEBD401C19
:10A580000228E3D3FEBD70B5012915D1434D00214A
:10A59000AD1D2A460E320124131D04280DD00728B4
:10A5A0000FD03FA2C62100F0FFFB3C4C20780028D2
:10A5B0000BD00020FFF740FF70BD2C701180198078
:10A5C000F3E76C7051805980EFE7E0680AF043FED2
:10A5D000002803D032A2CD2100F0E6FB002236494C
:10A5E000E0680AF0FBFD0028E6D02DA2CF2100F0A4
:10A5F000DBFB70BDF8B5294C002525700126A6703F
:10A60000A268002A02D0007801219047E078002853
:10A6100007D06846057046700222694627480DF04B
:10A6200073F9F8BD1CB504461C48FF2249320221CB
:10A630001C300CF0CFF80CF000F9002803D018A261
:10A64000FC2100F0B1FB15481D4A00210C300AF036
:10A6500050FD002803D012A2FF2100F0A5FB0F48F7
:10A66000184A002110300AF044FD002804D0FF21D0
:10A670000BA2023100F098FB0848134A846001AC39
:10A6800012A100940DF01CF9002803D004A23E2171
:10A6900000F08AFB1CBD7047FBB0FFFF2C200020A0
:10A6A0002E2E5C627574746F6E5C627574746F6E5E
:10A6B0002E6300006626000033030000124F0000E6
:10A6C00039A40100F5A5010029A401006275747484
:10A6D0006F6E000038B5F74C6278002A11D02278EE
:10A6E00082420ED0207988420BD368460270FF2147
:10A6F00041702146083949680098884700206070F9
:10A70000E07038BD38B5EB4C083C606800281CD0C0
:10A710002078002819D003F08EFB012815D80021DD
:10A720002820FFF7D7FFE3490120487028220A704C
:10A7300088701423CB700871C91F0A70487069466D
:10A740000A70487061680098884738BDF7B5D949E4
:10A7500082B008394A68002A63D00978002960D09D
:10A76000D54BD44EC21A01251D270221F41F984251
:10A770005AD02DDCD14BC21A984214D014DCD04BE5
:10A780003726C21A984278D007DCCE4A801875D096
:10A79000012874D0022844D1AFE0432A70D04C2A5B
:10A7A0006FD0622A3DD181E0232A41D007DC1B20F3
:10A7B000102A3FD0132A78D0212A32D166E01F20F8
:10A7C000C001101A3227002862D0012829D12DE0BB
:10A7D000BB4B673BD01A9A423DD013DCBA4BD01A20
:10A7E0009A4238D007DC012A20D0102A6CD0981E5B
:10A7F000101A16D12FE001282DD003282BD00428C1
:10A800000FD128E01527082817D006DC012822D010
:10A81000022820D0032804D11DE0182832D028288F
:10A8200030D0012005B0F0BD277004E0277055E05E
:10A830001E2047E02070657051E000211520FFF7D1
:10A8400049FF757037702320B570F0703571342270
:10A850009E4803990EE000213820FFF73BFF7570FA
:10A8600038273770B5702D20F070984835717622F2
:10A870003430039911F0DCFED6E745E02BE02CE004
:10A8800027E01EE000207070277020E01A20D1E73A
:10A8900000213220FFF71EFF27706570757037703A
:10A8A000B57035710020F07019E00FE0342121708F
:10A8B0008249491E884201D1012000E002206070D7
:10A8C0000DE0352020700AE03320FBE720700520E2
:10A8D000F5E73620F6E72670ADE72670617075491A
:10A8E000684608394A780270897841707149009841
:10A8F000083949688847002094E700213720FFF78E
:10A90000E9FE26700320DAE700213720FFF7E2FE98
:10A9100026700420D3E7F8B5664D0446083D686804
:10A92000002826D02878002823D003F084FA0128B4
:10A930001FD81126691C0E70002C0DD001244C70FC
:10A9400000211120FFF7C6FE5A480F2144700670FF
:10A950008470C170047102E000200870487055498D
:10A96000684608394A7802708978417069680098A9
:10A970008847F8BDF8B54F4E0546083E7068002878
:10A980001BD03078002818D003F055FA012814D8CD
:10A99000701C1027C41D0770022D0FD00021012D3F
:10A9A00019D0017041704349684608394A780270ED
:10A9B00089784170716800988847F8BD0125457015
:10A9C00000211020FFF786FE65702770A5700F200C
:10A9D000E0702571E7E70222427027706170E2E7BC
:10A9E000344882B00838416800290ED00078002829
:10A9F0000BD0304A1C20D21F1070012353706A46BE
:10AA000010705370009802B0084702B0704738B514
:10AA1000284C083C6168002929D02178002926D0DB
:10AA20001422611C0A70002808D0CA1D527801281F
:10AA30000BD002280DD0002008700DE001204870D6
:10AA400000211420FFF746FE07E0012A0FD0022064
:10AA500002E0012A0BD003204870164968460839E5
:10AA60004A7802708978417061680098884738BDDB
:10AA7000104982B008394A68002AC6D009780029EE
:10AA8000C3D00C49C91F012810D0022810D00328B8
:10AA90001ED00020487019200870064B6946083BFC
:10AAA000087098784870009802B010470320F1E7CA
:10AAB0000420EFE7602000204120000091100000FA
:10AAC0002E100000D5EFFFFFC20F000094260020DB
:10AAD0000520DFE799E737B5A44C82B0616800290B
:10AAE00009D02178002906D0651C0D2805D00E2834
:10AAF00001D00020687005B030BD00211920FFF79B
:10AB0000E9FD1921994A29700120687008325070B6
:10AB1000117090706B46DB7B002B09D00A23D37039
:10AB200010716A4611705070616800988847E2E7BA
:10AB30002D23F4E710B58E4808F011FB002801D052
:10AB4000012010BD8B4808F00EFB8B4803F0D5F9AF
:10AB50008A4802F0D3FD8A4802F0CEFE00218948DF
:10AB600004F076FD88480CF0BEFE002803D087A2D2
:10AB7000602100F019F98A4802F01FFB002010BD87
:10AB8000F3B57A4F81B078680C4600284BD03878FE
:10AB9000002848D003F04FF9022844D80198012634
:10ABA0007D1C042802D0072815D000E02E70012C4F
:10ABB0001DD0022C1DD0052C1DD0032C33D1032019
:10ABC0006870FFF7EEFB002832D068480830417803
:10ABD000012912D01EE0FFF7E4FB002803D0012C6E
:10ABE00021D12E7003E0022C1DD12E7001246E7035
:10ABF000E7E70220E4E70420E2E7007815280CD01C
:10AC000038280AD0282808D0192806D0112804D0BE
:10AC1000102802D0012C07D00AE0012C03D128789B
:10AC20000021FFF757FDFEBD28780021FFF752FDF8
:10AC30004E4968464A780270897841707968009870
:10AC40008847FEBD70B5040015D056498D78202D7B
:10AC500000D3202553482030C678102E02D2002D74
:10AC600003D109E01026002D08D02A46C91C601C1B
:10AC700011F0DEFC257070BD002E07D04949324628
:10AC80002431601C11F0D4FC267070BD00202070AF
:10AC900070BDF8B504003DD042483430C778202F4D
:10ACA00000D320273F4854300679102E00D31026B9
:10ACB000457D402D00D340250020A070E01C009071
:10ACC000002F06D037493A46383111F0B1FCA77051
:10ACD00008E0002E0DD0334932465931E01C11F006
:10ACE000A7FCA670A278009820211154A078401CDF
:10ACF000A070002D0AD0A17800982A46081829498A
:10AD00006A3111F095FCA0784019A07025483430C4
:10AD100000882080F8BD15494860704713494A688B
:10AD2000824201D100204860704738B50F4C08348A
:10AD300061782046C078012901D0002815D0401E36
:10AD40000006000EE07010D108492278491C0A70F4
:10AD5000FF204870491E4968002904D06B461A70CC
:10AD60005870009888470020607038BD5820002037
:10AD7000D7AA010071AA01000FAA0100E1A90100F0
:10AD800075A9010017A901004DA701002E2E5C65D1
:10AD900076656E745C6576656E742E6300000000E7
:10ADA00005A701009426002070B514460D460646FE
:10ADB00000F003FDFE48036A002B03D0224629461B
:10ADC0003046984700F08CFC70BD0A460146F948B1
:10ADD000EAE70078002803D1F5483B21808976DF37
:10ADE0007047F3480178002902D01321808976DF6B
:10ADF0007047002800D0F4E77047EFA2D221D3E7D4
:10AE000010B5EB4948700978002903D1002802D019
:10AE100000F061FB10BD00F053FB10BDF0B5ABB00E
:10AE20000746302106A811F01CFC02216846017675
:10AE3000012585760621C1760585DD48242124304B
:10AE40000B901EA811F00DFC20A80571E14800240C
:10AE500022901421239401A811F003FC0026302134
:10AE600012A811F0FEFB27942894062102A8299429
:10AE700000F066FC1121684601714471012F04D075
:10AE8000022F04D0032F0AD106E0857106E00220CC
:10AE90006A469071D47102E003228271C471C44881
:10AEA000078220A881837A382990092120A801846B
:10AEB000002001A90A5C401C9219D6B20A28F9DBCD
:10AEC0006846867327A81B90C3480090C34B1EAAF0
:10AED00012A906A80BF0DCFC002804D0FF21B6A2C2
:10AEE000CC31FFF761FF2BB0F0BD10B5B04C00289E
:10AEF00024D0032811D1607800280CD02320E081D1
:10AF0000208A02280DD00EF0C3FE002806D000F0E3
:10AF1000D7FA02200CE000F0D3FA10BD208A0228F4
:10AF2000FBD10EF0B5FE0028F7D100F0C9FA0120E0
:10AF3000FFF774FF0120FFF763FF10BD6078002862
:10AF4000FBD00EF0A5FE0028F7D000F0C4FA10BD2B
:10AF500010B5A3480CF0D5FC10BD10B5944800788E
:10AF6000002805D0002000F0A5FA9D48C01E04E08E
:10AF7000012000F09FFA9A48801E0CF0C2FC10BD20
:10AF8000F8B5054600888A4C192860D00ADC0026EE
:10AF9000012110280DD0112822D0122857D01428B2
:10AFA00055D140E0392848D052282DD055284ED1CF
:10AFB00043E0A888A08121707D480622E91D2D303C
:10AFC00011F036FB874A0421002009F0F9FD002822
:10AFD00004D0852178A28900FFF7E6FEA67036E04E
:10AFE0000020C043A0812670A170E6707D4A042134
:10AFF000002009F0E5FD002803D06FA27A49FFF791
:10B00000D3FE0520207222E000F099FC00281ED11A
:10B0100000231A461946A089A9DF002817D07249D3
:10B0200065A20C3111E000F08AFC00280FD100234A
:10B030001A461946A08982DF09E01321A08976DF2C
:10B04000002804D068495CA23431FFF7ADFE002629
:10B05000664F06E0B0003958002901D028468847DD
:10B06000761C20798642F5DBF8BD10B5044600F069
:10B0700066FC002802D0204609F0EAFA00F05FFCE6
:10B08000002802D0204606F027FD204608F01AFFCF
:10B0900000F055FC002802D0204606F017FD53486A
:10B0A0002146803008F0D6FB2046FFF769FF00F00C
:10B0B00046FC002802D0204606F0FCFC20460BF09F
:10B0C00060FD10BD10B504460AF0BAFD20460BF035
:10B0D00090FD10BD10B506F005FD002010BD1FB598
:10B0E0000020694608730AF03CFE002804D03E495F
:10B0F00031A2D231FFF758FE03A809F072F90028F7
:10B1000004D0BD212CA28900FFF74EFE6C4605211C
:10B11000601D11F0A6FA6846427901210A43E12038
:10B1200002400C32DF2002406846427107228271E1
:10B130001022C2712E480090684601711C480522F9
:10B14000611D283011F074FA194869460B3009F076
:10B15000A1F9002804D0C12117A28900FFF724FE1D
:10B160001FBD13488269002A03D041791F4810305F
:10B17000104770470E48C269002A03D081791B48E6
:10B1800024301047704770B50878094D0C460028E8
:10B190003CD0022839D16278142A36D81348A11C31
:10B1A000243011F045FA6078A871124A002123E09A
:10B1B00068200020EFBEADDE2E2E5C2E2E5C2E2EE3
:10B1C0005C4170705C626C655C6E72665F626C653F
:10B1D0002E63000064060000FBAD0100EBAE010031
:10B1E000442000005BAF01001F0200004027002048
:10B1F000D5B0010075B10100084609F0E1FC002856
:10B2000003D0EA4AEA49FFF7CFFD70BD6278142AFD
:10B21000FBD8A11CE74811F00BFA60786871002197
:10B22000E54A084609F0CCFC0028EED0E049DF4AA8
:10B230000C39E8E710B5E148E1498089884209D036
:10B24000132176DF002807D0D949D84A1831FFF7F3
:10B25000ABFD01E000F034F908F001FE002804D055
:10B26000D349D24A2131FFF79FFD09F021FD09F0B2
:10B270001FFD022409F01CFD641C142CFADB10BD18
:10B28000CE480078704770B50EF002FDCB4C002818
:10B290000BD16078002808D02078002805D1E089FB
:10B2A000002818D0E089401EE081A0780025002801
:10B2B00018D0E078002812D0C24A0421002009F0FA
:10B2C0007FFC002804D01D21B84A4901FFF76CFD1E
:10B2D000A570E57006E00020FFF792FDE5E7E07855
:10B2E000401CE0702078002808D0607A002805D043
:10B2F000A07A002815D0A07A401EA072E07900281C
:10B300000ED00EF0C5FC00280AD12078002807D105
:10B310006078002804D0207A00280AD0401E2072CD
:10B3200070BDA08985DF002801D00828E6D16572AC
:10B33000E4E7E57100F0C4F80120FFF76FFD01209C
:10B34000FFF75EFD70BD70B588B00D46064600F093
:10B35000F9F8FFF7C4FE00F0C6F89B4800240090FF
:10B3600001940120694608719248703008F028FA6B
:10B370000BF013FF002804D08D498C4A8231FFF76F
:10B3800013FD1C21684611F06CF90520C0030190E3
:10B390000F20000402900094032168460173C481C9
:10B3A00004748A4805908A480690684608F033FD80
:10B3B000002804D0FF217D4AE531FFF7F5FC01208C
:10B3C000FFF72CFD7D48052146618561814800F02D
:10B3D00025FE002804D07D21744AC900FFF7E4FC53
:10B3E00008B070BD7549C86170470A46014671488A
:10B3F00010B5703008F03FFA10BD0A4601466D489E
:10B4000010B5703008F05CFA10BD10B548DF0028A8
:10B4100004D06749654AB931FFF7C6FC10BD6749DA
:10B420000862704710B5654A1179042901D30120DB
:10B4300010BD604C8B00103CE050491C1171002085
:10B4400010BD5E48007B704770B505460EF020FCCD
:10B4500000280ED1594C207800280AD1E079002824
:10B4600004D100F02DF80320FFF7D8FC0120E07193
:10B47000257270BD10B50146504C0A20A07220788C
:10B4800000280ED0627A20468089002A03D08ADF05
:10B49000002807D004E00122114684DF01206072F9
:10B4A000002010BD012010BD444810B50B3009F03C
:10B4B00083F810BD41494969002900D00847704709
:10B4C00010B574DF082805D0002803D0374AEC21D6
:10B4D000FFF76AFC10BD10B538492320C88103204E
:10B4E0000BF064FA10BD0EB51120694608720822EF
:10B4F00039A102A87CDF002804D0FF212B4A6F313C
:10B50000FFF752FC2A481C3878DF002804D0FF21BE
:10B51000264A7231FFF748FC00200090019050212C
:10B52000684601807821418004218180FF2191318A
:10B53000C1807ADF002804D0FF211C4A7C31FFF74C
:10B5400033FC0EBD1CB51B490023482228310820BE
:10B550000AF092FE002804D03121144A0901FFF7B5
:10B5600023FC002000900190012069460870684685
:10B5700060DF002804D00E490C4A3839FFF714FC6C
:10B5800018480AF08DFE002804D00949074A3339CB
:10B59000FFF70AFC14480AF08BFE002804D0044987
:10B5A000024A2F39FFF700FC1CBD0000B8B10100B2
:10B5B0005D0300005027002063B1010068200020D7
:10B5C000FFFF000051AF010087B10100D3AD0100C2
:10B5D000F3AD010087B201004944313037204852B1
:10B5E000000000006BB00100C5B00100F8484069E0
:10B5F0007047704738B5F74CE078002807D06846A8
:10B600003DDF00983EDF0098A0600020E070A06859
:10B6100038BDF14A00201060F0490120C860F04BAD
:10B620004B60886010607047EA480078002806D1B7
:10B63000EC480068C00702D0EC49EB48086070474E
:10B64000B12044DFBFF34F8FEA49E948C860BFF338
:10B650004F8FFEE770B5FFF7EDFDFF2045DFB1200E
:10B6600044DF002804D0FF21E3A20631FFF79CFB52
:10B67000B12044DF002804D0FF21DFA20D31FFF705
:10B6800093FB11DF002804D0FF21DBA21031FFF76C
:10B690008BFBCF4C606913DF002804D0FF21D6A2BA
:10B6A0001331FFF781FB0121D94A88051060D94A7F
:10B6B00000201268D74B80330D468540154204D0D8
:10B6C000C606F60E0D46B5401D60401C2028F3D37B
:10B6D00060690AF00DFE70BDBE49032048707047D6
:10B6E00035DF7047BB4901204870704710B5B94835
:10B6F00041793C2906D23B2902D1C74B00221A606E
:10B70000491C41714178002912D00179491CC9B204
:10B71000017103290CD3417801290AD0417802290B
:10B7200009D04178032908D04078042800D13CDFB3
:10B7300010BD35DF10BDFFF783FFFFF78BFF10BD96
:10B740001CB5044606290BD3684671DF0021684604
:10B750000522531A1B185B786354491C0629F8DB31
:10B760001CBD7CB50C460546062907D3684671DF2B
:10B7700000A922460131284610F05AFF7CBD13462D
:10B7800010B50A46194600F0E2F9924904204870C3
:10B7900010BD012047DF704710B5052800D20520F5
:10B7A0007D22491CD2004A43410CC40350080023A7
:10B7B0002018594110F00CFF10BD86490120087077
:10B7C0000020704738B59548C4690020009068464D
:10B7D00046DF601D60434509282045436540B12D83
:10B7E00000D1B225002044DF0099E8B2884201D19F
:10B7F000012038BD002038BD894910B50C228818B9
:10B8000010F04FFF00280AD000230C2284490A20A0
:10B8100000F0B7FF824801460EC90C300EC010BDC3
:10B8200000B5804989B040181DD07E493731401895
:10B8300024D1684605F056FA6846C189C1838189DA
:10B840008183C179C17581798175818881820189FE
:10B8500001834189418300980490102204A9724811
:10B860000CF052F80AE00021704A084609F0A8F9E5
:10B87000002803D060A26E49FFF796FA002009B0B5
:10B8800000BD6D496B480860704765490A7982427E
:10B8900002D06A4A0A600871704730B58FB005213E
:10B8A000674800F0BBFB002804D0492152A2C90020
:10B8B000FFF77AFA00240DAB00932046614A62A19B
:10B8C00023460BF0FDFF002804D059494AA211314C
:10B8D000FFF76AFA524D00232C606C600C2201A91C
:10B8E0000A20AC6000F092FF54490198884209D1C7
:10B8F0006846007AFFF7C9FF01A807C82B4607C3AF
:10B900000C3507C54C494B48086009A805F0EAF911
:10B91000142104A810F0A5FE04A805F0ECF90220FB
:10B92000401C1428FCDB00200FB030BD0020704705
:10B93000704746A0704740494748086070473848FC
:10B940000079704723488078704722498870704793
:10B9500007B583B003A807C8029200900191304850
:10B960006A468179927991420ED16A46417952793B
:10B97000914209D16A46C179D279914204D16A468D
:10B98000017A127A91420DD06946897C81716946AB
:10B99000497C4171294901606946C97CC171694688
:10B9A000097D017206B000BD1D498A7982714A790C
:10B9B0004271CA79C2710A7A0272097901717047BB
:10B9C00026480168080C89B2814200D000207047E7
:10B9D000001000109C2000200000014000050140E4
:10B9E000FFFF0400000401403546526E000601408E
:10B9F0000400FA0500ED00E02E2E5C2E2E5C2E2EAB
:10BA00005C4170705C7379735C7379732E630000B2
:10BA100080E200E000E100E0D07F00204000001064
:10BA2000EC270020BCDFFFFF52400000F9B7010007
:10BA30002D02000054225422D87F002044332211CA
:10BA4000EDB6010021B80100737973004A756C20CE
:10BA5000313120323031360053225322D47F00203E
:10BA60000320B4E786B04169009183693CA21421A8
:10BA700001A807F0A1FC01A803F0C8F935DFFEE733
:10BA8000F0B5394A00211160384C384D374E374FE8
:10BA9000374A364B11342235333644371168012882
:10BAA00002D002281FD034E0080CB84220D055271D
:10BAB0007F02B84201D12F4811E0984201D12E48AF
:10BAC0000DE0A04201D12D4809E0A84201D12C4847
:10BAD00005E0B04201D12B4801E05520400689B273
:10BAE0000143116015E021488AB24430824201D1FD
:10BAF0000120F0BD55271E487F02BA4203D1090C30
:10BB00000904194304E09A4205D1090C09042143B0
:10BB100001600020F0BDA24203D1090C09042943B1
:10BB2000F6E7AA4203D1090C09043143F0E7B24217
:10BB300005D10E4A090C443209041143E8E7090C07
:10BB400009043943E4E70A49002008603FE712048A
:10BB500089000A430C4980004018026037E7000062
:10BB60007025582C25580000D07F002011AA000015
:10BB7000DC7F0020000011AA000022AA000033AAE6
:10BB8000000044AA000055AA000700501FB56846EF
:10BB90008179C078FE4A3C2350430A1868460179EF
:10BBA000E12000014143684640793C24584308188D
:10BBB00011186846827BC07AF54B584313186846C3
:10BBC000027BE120000142436846407B604310183D
:10BBD0001818814202D9081A04B010BD401AFBE7B8
:10BBE00070B586B001886A460446118080789070EE
:10BBF000E378D3702379137163795371A3799371C7
:10BC0000E44A1278002A67D0E24D10352A88914222
:10BC100062D1A97888425FD10822294603A810F092
:10BC200007FD049B039A01990098FFF7AFFFDA49DB
:10BC3000884251D82879217988420ED00822294695
:10BC400004A810F0F5FC019B009A05990498FFF7F1
:10BC50009DFFFF212D31884238D3CE490822103173
:10BC600004A810F0E5FC019B009A05990498FFF7E1
:10BC70008DFFE121890088422ED868793C21484314
:10BC8000A979C64A401800214B00D55A854203D8ED
:10BC90009B185D88854219D2891C0829F4DBBF4BAB
:10BCA00000219B1F4A009A5A904206D865793C268B
:10BCB0007543A679AD19954208D2904209D36579AA
:10BCC0003C267543A679AD19954202D8002006B0EE
:10BCD00070BD491C0329E5DB0120F8E773B5684610
:10BCE00085780C2D17D8C4781F2C14D80379172BFE
:10BCF00011D842793B2A0ED881793B290BD8068886
:10BD0000A448103006808570C4700371427181713F
:10BD10006E46F179C1717CBD1CB5A14A801802D074
:10BD2000012836D125E008460A8869460A808278CB
:10BD30008A70C278CA7002790A7142794A7182792E
:10BD40008A71C279CA71FFF74BFF002822D001998E
:10BD50000098FFF7C3FF8F4C2078002804D191484A
:10BD60000BF0CFFD012020708E483E300BF0C9FD56
:10BD70000FE08848103002880A8082788A70C27882
:10BD8000CA7002790A7142794A7182798A71C079DE
:10BD9000C87100201CBD70B5012918D101787D48FB
:10BDA0000C30052906D0062912D009290FD1C478F4
:10BDB0007D4D22E07C4D0478983D06E0641EE4B29F
:10BDC000A0002858002800D08047002CF6D170BD74
:10BDD000754D4478243D06E0641EE4B2A000285866
:10BDE000002800D08047002CF6D170BD641EE4B25C
:10BDF000A0002858002800D08047002CF6D170BD44
:10BE0000F8B5644D10352846AC78C6780788022C02
:10BE100010D01E2E31D2012C2FD0032C2DD0052C6A
:10BE20002BD0072C29D0082C27D00A2C25D00C2C5D
:10BE30003AD122E01C2E0ED2FF219131384610F06B
:10BE40009DFB002907D06421384610F097FB00299C
:10BE50002AD0B80728D11D2E1FD2FF219131384694
:10BE600010F08CFB00291FD06421384610F086FBAF
:10BE7000002912D0B80717D00FE01F2E0DD2012CC9
:10BE800012D0032C10D0052C0ED0072C0CD0082C6F
:10BE90000AD00A2C08D00C2C06D00120E8700C2CFB
:10BEA00005D2641CAC7005E0761CEE7002E0A87050
:10BEB0007F1C2F80E879062801D2401C00E000207A
:10BEC000E871F8BD70B5334841680446491C103428
:10BED0004160A0793B2803D2401CA071052018E0E6
:10BEE0000025A571052000F002F960793B2802D2F7
:10BEF000401C60710CE065712079172802D2401C4B
:10BF0000207105E02571FFF77BFF092000F0EFF8B5
:10BF1000062000F0ECF870BD7CB51E483F214901B9
:10BF20001030018001258570C570002404714471B2
:10BF300084710421C171001F0470447084701A4917
:10BF4000C470204698398200401CC0B28C501D2815
:10BF5000F9D31549002024398200401CC0B28C500E
:10BF60000928F9D3104900208200401CC0B28C502F
:10BF70000A28F9D307480D4A0121083009F0B9F819
:10BF8000002804D0FF210AA24131FEF70DFF23E073
:10BF900080510100A820002000A3020016FA020030
:10BFA000BFEFFFFF431000009C280020C5BE01002A
:10BFB0002E2E5C2E2E5C2E2E5C4170705C7573658F
:10BFC000725F636C6F636B5C757365725F636C6FDC
:10BFD000636B2E630000000001AB00932046474ACC
:10BFE00047A123460BF06CFC002803D0474AF02100
:10BFF000FEF7DAFE4648457000207CBD10B5444887
:10C0000001210022C903806809F0E8F8002804D063
:10C01000FF213E4A4F31FEF7C7FE10BD30B53C4A06
:10C02000034652780020002A14D0394A0C320529E0
:10C0300007D0062910D009290BD1D1780A2915D3A8
:10C0400008E011781D2905D28C00324D491C2B5176
:10C05000117030BD012030BD51780929FAD22D4D23
:10C060008C0074352B51491C517030BD294D8C000A
:10C0700098352B51491CD17030BD254910310A88A3
:10C0800002808A788270CA78C2700A7902714A790D
:10C0900042718A798271C979C17170471C49103126
:10C0A0000A7902704A79427089798170002070475C
:10C0B00017481030C079704715483C22103001797C
:10C0C000407951430818704711480078704710486C
:10C0D00040687047914204D8884206D3904202D902
:10C0E00003E08842FAD3012070470020704701B571
:10C0F000094A0121684608F063FD08BD19BD010029
:10C100007573657220636C6F636B0000B0BF0100D4
:10C11000A82000200428002097BD010010B5814808
:10C12000406809F098F8002803D07FA2B921FEF7F3
:10C130003BFE00F042FA10BD1FB5002102910391B1
:10C1400000910191814940181DD08149401825D0A6
:10C15000012823D102A800F049FA6846437A4380B7
:10C16000C27A8280417BC180002B06D1002A04D193
:10C17000002902D1022069460870082269467548E4
:10C180000BF0C2FB0AE0FFF7C9FF73490C200860FF
:10C19000714908390860704914390860002004B0FA
:10C1A00010BDFEB507460025684605700E462846B8
:10C1B00000F08EFA01A9132000F0D8F8594C00289D
:10C1C0000BD000F059F96078401C6070607814283A
:10C1D00031D900F0CBF9657030E0657068460079C0
:10C1E00000281CD0FF281AD025704006800F20D0D0
:10C1F00069463C2000F0BAF868460078B04200D3A7
:10C20000304669460870C2B239463F2000F0E9F86E
:10C2100000280ED000F030F9684605700BE0217858
:10C22000491C217021781B29DFD900F09FF9257066
:10C2300004E000F021F9002000F063FA684600787D
:10C24000FEBD70B563214548FFF7ABFF05460228E8
:10C250000DD9424E00240C3EA0003258002A02D0D4
:10C2600029463E489047641CE4B2032CF4D370BDC9
:10C2700010B500F0E9F800282DD02A48384A0121ED
:10C28000001D08F036FF002803D027A27F21FEF70B
:10C290008BFD244C00223349606808F09FFF002882
:10C2A00003D021A28221FEF77FFD00202B4A014608
:10C2B0000C3A8300401CC0B2D1500328F9D3A170BE
:10C2C00029480BF010FB002803D017A2A121FEF78C
:10C2D0006BFD002010BD012010BD10B500F054F919
:10C2E000104800221F49406808F078FF002803D05A
:10C2F0000DA2B121FEF758FD10BD0A498978032926
:10C300000AD2164A00210C3A8B00D358002B05D0D4
:10C31000491CC9B20329F7D3012070478900505046
:10C3200000207047C02000202E2E5C2E2E5C2E2E6A
:10C330005C4170705C6465765C6773656E736F7288
:10C340005C6773656E736F722E6300004DEFFFFFC5
:10C35000B1C1FFFF114F000040070050D02800205E
:10C3600043C20100CD4C000039C101003EB50C466E
:10C37000802108436A4610715171022002460090E4
:10C3800002AB01A9002009F041FA002801D00120E8
:10C390003EBD6846407A207000203EBD7FB5002437
:10C3A00015460E46062A0ED88021084369460873B2
:10C3B000681C80B2009001AB012203A9002009F0A3
:10C3C00025FA002802D0012004B070BD01A804E0C5
:10C3D000011949783155641CE4B2AC42F8D300200D
:10C3E000F2E77CB5002415460E46642A0FD8002ECD
:10C3F0000DD08021084369460871681C00903346BF
:10C40000012201A9002009F001FA002806D001202C
:10C410007CBD301940783055641CE4B2AC42F8D38E
:10C4200000207CBD0EB54006400E6A461071517169
:10C4300002200246009002AB01A9002009F0E6F9B3
:10C44000002800D001200EBD80480078002801D0CF
:10C45000002070470120704708B500216846017030
:10C4600069460F20FFF782FF68460078142801D044
:10C47000002008BD012008BD08B569461720FFF758
:10C4800075FF08BDF0B589B000251C22704901A8D0
:10C4900010F0CEF8002000F01BF9FFF7EDFF0028A8
:10C4A00033D169461820FFF761FF00282DD1684677
:10C4B00000784106490E684601701820FFF7B2FF68
:10C4C000002822D1162009F085FE00273C4601AE47
:10C4D000600081194978305CFFF7A4FF002814D16F
:10C4E000641CE4B20D2CF3D369461820FFF73EFF1D
:10C4F00000280AD16846017880200143684601700F
:10C500001820FFF78FFF002801D0012508E0162032
:10C5100009F060FEFFF7A0FF01004C4806D007704D
:10C52000002000F0EEF8284609B0F0BD01210170AE
:10C53000F6E710B50021084600F0A4F845490020B0
:10C540000860FFF79FFF002800D0012010BD10B544
:10C550000021084600F096F8FFF794FF002804D069
:10C56000FF213DA27931FEF71FFC10BD10B500215F
:10C57000434A084608F024FB002804D0FF2136A2D5
:10C580008331FEF711FC10BD38B5002000F0A0F893
:10C5900069461820FFF7EAFE040009D168460178D1
:10C5A00080200143684601701820FFF73BFF0446D6
:10C5B000002000F0A6F8204638BD38B5002000F075
:10C5C00087F869461820FFF7D1FE040009D16846B4
:10C5D00000784106490E684601701820FFF722FFD7
:10C5E0000446002000F08DF8204638BD38B50446DA
:10C5F000002020706070A070E0702071607100F009
:10C6000067F8FFF729FF00281BD0CA216020FFF739
:10C6100009FF002811D169460C20FFF7A7FE6846E4
:10C620000078552801D0AA280BD1192009F0D2FD95
:10C63000062221461046FFF7B1FE00216020FFF7D9
:10C64000F1FE002000F05DF838BD0000C820002099
:10C6500028FA0200340700502E2E5C2E2E5C2E2E5F
:10C660005C4170705C6465765C6773656E736F7255
:10C670005C6773656E736F725F69632E63000000A1
:10C680004FC5010010B50022284B002810D001280A
:10C690000DD14407184620300460012444601F2453
:10C6A00084600224C4601D24046101765A7010BDA8
:10C6B00001241E48A407001D0460102444600F24B8
:10C6C00084600E24C4600B24046101761A7010BDCE
:10C6D00070B50125154C00280AD0012807D16178D2
:10C6E000002904D12146203108F0BAFF657070BDE1
:10C6F00021780029FBD10D49091D08F0B1FF2570F3
:10C7000070BD70B50025094C002808D0012805D15E
:10C710006178012902D109F038F8657070BD21787F
:10C720000129FBD109F031F8257070BDCC20002023
:10C730000020564A032903D0052900D11070704704
:10C74000507070471CB5002807D009F00AFB00287C
:10C7500003D04FA24E21FEF727FB14216846C1806B
:10C76000402181805148494900900831684609F0CC
:10C7700038FB040003D046A25421FEF715FB2046E7
:10C780001CBDFFB5414C83B020781E4615460F46B0
:10C79000002802D0112007B0F0BD6168002901D047
:10C7A000002088470120207041486A464760058183
:10C7B00003990546C9B2017046813448083009F032
:10C7C00080FB002803D032A27221FEF7EDFA287A0E
:10C7D0008019800704D02EA27D210720FEF7E4FAFD
:10C7E0006B892A896846696809F0D5FB050003D082
:10C7F00027A28121FEF7D8FA20780028FCD16168B1
:10C80000002901D0012088472846C4E7FFB51F4C06
:10C8100083B060781D4616460F46002801D01120CF
:10C82000B9E76168002901D00220884701206070C3
:10C830001F486A460C30476006810399C9B20170EF
:10C84000458105461148083009F03BFB002803D01C
:10C850000FA2B021FEF7A8FA6B892A896946686899
:10C8600009F0DDFB050003D009A2B321FEF79CFA15
:10C8700060780028FCD16168002901D00320884736
:10C88000284688E7014948607047000008210020D9
:10C890002E2E5C2E2E5C2E2E5C4170705C666C61C0
:10C8A00073685C666C6173682E63000031C70100B9
:10C8B000342900200020584A032903D0052900D13B
:10C8C00010707047507070471CB5002807D009F0F1
:10C8D00048FA002803D051A25521FEF765FA6421D9
:10C8E0006846C1808021818054484B4900900C31BA
:10C8F000684609F076FA040003D048A25B21FEF7EF
:10C9000053FA20461CBDFFB5434C83B020781E4629
:10C9100015460F46002805D06088401C6080112015
:10C9200007B0F0BD01202070A168002901D00020CF
:10C93000884743486A464760058103990546C9B25E
:10C940000170468134480C3009F0BBFA002803D04E
:10C9500032A27D21FEF728FA287A8019800704D0B8
:10C960002EA287210720FEF71FFA6B892A896846C5
:10C97000696809F010FB050003D028A28B21FEF79F
:10C9800013FA20780028FCD1A168002901D00120E9
:10C9900088472846C4E7FFB51F4C83B060781D4622
:10C9A00016460F46002803D00020A0801120B7E7CC
:10C9B00001206070A168002901D00220884720482A
:10C9C0006A460C30476006810399C9B201704581FF
:10C9D000054611480C3009F074FA002803D00FA264
:10C9E000BC21FEF7E1F96B892A896946686809F07C
:10C9F00016FB050003D009A2BF21FEF7D5F9607828
:10CA00000028FCD1A168002901D0032088472846CE
:10CA100086E7014988607047182100202E2E5C2E81
:10CA20002E5C2E2E5C4170705C666C6173685C6677
:10CA30006C6173685F646174612E6300B5C8010046
:10CA40004C290020F0B501252C468C40A54F8000D4
:10CA5000A34EC719002B13D0B460A34C3C6100BF98
:10CA600000BF00BFA14C001905600802C01C1104E2
:10CA7000084319050843386100BF00BF00BFF0BD7F
:10CA8000F4609B4CEAE79B4B5A68914207D8884276
:10CA90000CD35B695918891A814205D806E08A1AB5
:10CAA000824201D8884201D301207047002070479C
:10CAB000F8B5904C904DA0696061A860616A8F4E96
:10CAC000022900D9B06000273846A760EEE0894906
:10CAD0001C310A5C002A1BD00F5489498300C958B5
:10CAE000002916D06269914222D382492031095C23
:10CAF00084488A007B495118086181486178103068
:10CB0000C05800F0E4F8A06881007D48203047500C
:10CB1000C9E078492031095C7A488A007149511886
:10CB2000086161780120414075481030C058E8E73D
:10CB30000228E16057D259190968216170492031F2
:10CB4000C958002921D16E496A4A10312032C9588A
:10CB5000105C01230322FFF775FFA368684A0120D8
:10CB6000990020325050684A8C46D060EA68E168EB
:10CB70008A4206D95F4A2032D25C93005B4A9A18F7
:10CB800010606046401901608DE05F490120C86077
:10CB9000E8682169FFF777FF0028F6D0E868E168C8
:10CBA000FFF771FF0028F0D0E96820692346814231
:10CBB00003D3E968DA68914206D3EA6882420CD26C
:10CBC000E868E168884208D34A499A682031895C5C
:10CBD00001208A004549511808609968D868890081
:10CBE000491908605FE0454940395918896B21614E
:10CBF00043492031C958002925D141493D4A1031C6
:10CC00002032C958105C01230322FFF71BFFA168E3
:10CC10003B4A8C4601208900203250503B4A8E46C8
:10CC2000D060F268E3689A4207D9324A61462032FE
:10CC3000525C2E49920052181060304970464039BB
:10CC4000401883632FE031490120C860F0682169F2
:10CC5000FFF719FF0028F6D0F068E168FFF713FF2F
:10CC60000028F0D0F16820692346814203D3F1689F
:10CC7000DA68914207D3F168324681420CD2D0681B
:10CC8000D968884208D31B499A682031895C012001
:10CC90008A001649511808609868D96882001748B8
:10CCA000403810188163A068401CA060616A884207
:10CCB00000D20CE7F8BD0F4A10B5022128321170DE
:10CCC000002801D8FFF7F4FE0A48283010BD0122E1
:10CCD00082400348002901D082607047C2607047DB
:10CCE0000005005000650040031F01000060004087
:10CCF000031F02002C21002040A500404095004069
:10CD000064290020001F030040A000404090004024
:10CD100038B500244F4A2821142007F03DFF002891
:10CD200003D04DA26A21FEF73FF80AF0BDFD52483C
:10CD30000090524B15221621002008F087F9002898
:10CD400003D045A27121FEF72FF8FFF7E5F8204642
:10CD500038BD7CB5FEF74EFCFEF74BFC484D00207D
:10CD60002870FFF7E6FB040006D00120FEF788FEDE
:10CD7000002860D001202870182168464171B42134
:10CD800001719921017004214170BB2181706946B4
:10CD9000019802F0A0FF040006D00220FEF770FE0A
:10CDA00000284ED002202870FFF728F9FFF760FA1C
:10CDB00000F011FC002803D027A2B621FDF7F4FFF4
:10CDC00000F0EBFD002803D023A2BA21FDF7ECFF11
:10CDD00000F0BCF9002803D01FA2BE21FDF7E4FF3C
:10CDE00005F08BFC0DF066F906F02BF9002803D056
:10CDF00019A2C521FDF7D8FFFEF74FFD04F08EFF05
:10CE00000020FFF761FD0CF0E7F90CF06FFE0CF06D
:10CE10008EFB0BF0D4F90AF006FF04F0E6F904F0FB
:10CE2000FEFB02F062F9FEF7B4FC02F090FAFEF7A6
:10CE30008AFE00207CBD204607A28F21FDF7B4FFAB
:10CE40009AE7204604A2A621FDF7AEFFACE70C4806
:10CE500000787047942900202E2E5C2E2E5C2E2EFA
:10CE60005C4170705C696E69745C6170705F696E62
:10CE700069742E630000000013630200102E00206E
:10CE80005C210020FA48002101604160816001823C
:10CE9000C160704710B50FF083FC10BD10B50FF0E6
:10CEA0007FFC0022F34900281ED04878002810D0CB
:10CEB000EF4B8878DC68401C2418DC600B461C3380
:10CEC000DC782418DC701B1DDC882018D8808A7060
:10CED00002E08878401C8870C878202806D90B7931
:10CEE000392B03D9052007E04A70F0E7152805D94A
:10CEF0000B79322B02D90420487110BD0F2804D9B8
:10CF00000B792A2B01D90320F6E7092804D90B79DC
:10CF10001E2B01D90220EFE7052804D9087905283E
:10CF200001D90120E8E74A7110BDF3B5002491B0A2
:10CF300000287DD0FF210B9100218E46FF210A9110
:10CF400000210991FF2100278C463B4647E0C1188C
:10CF50000622C5568A56954201DDAA1A00E0521BE8
:10CF6000D2B2032A15D2012207258A564D57AA426A
:10CF700001DD521B00E0AA1AD2B2032A09D202260E
:10CF800008258E574D57AE4201DD721B00E0AA1BEB
:10CF9000D2B2022A03D9B74A15796D1C15718A7964
:10CFA000CD79097A8032803580310B9ED2B2EDB2D4
:10CFB000C9B2B24200D20B92724500D996460A9A83
:10CFC000954200D20A95099A954200D90995614582
:10CFD00000D28C46B94200D90F460933DBB219465C
:10CFE000129A08319142B2D30B9A71468A1A0A9B5F
:10CFF0000999C91A8A4200DD1146C9B29D4D62469F
:10D00000BA1AE9708A4200DB1146E97005AA129942
:10D010000FF0CEFB6846407D954E00287ED0954FA0
:10D0200001211C373870697031680818694600E0C2
:10D0300085E03060097D002909D07168884206D9F1
:10D04000411ACCB2391D0A8812190A8070606869C9
:10D0500000280ED00DF094F83168884202D90020E3
:10D06000287006E02878002803D10120287068691C
:10D0700080477F480C38002C0BD00168012C60D011
:10D08000AA6861438918A960017A6143EA6889182E
:10D09000E960012469460C70754831680C380191CB
:10D0A0004268A868824214D272492031338A801AB9
:10D0B0005B1C33827B785B1C7B708B885B1C8B805A
:10D0C0008242F3D3A8600220044368460470318A88
:10D0D000818167480C38427AE868824216D26549F5
:10D0E0002031B368801A5B1CB360BB785B1CBB70DB
:10D0F0004B885B1C4B808242F3D36946E86008781A
:10D100000421084369460870B06802902C69002C1D
:10D1100002D068460FC8A047A96900E009E00029CD
:10D1200007D05448C0698847002038707870B870BC
:10D13000F8700FF035FB002801D17068306013B033
:10D14000F0BDAA688918A960017A9FE770B5494DBA
:10D1500000242C6148486C61FFF7CFF8002805D106
:10D1600005214648FEF75AFF002801D0012070BD76
:10D1700009214348FEF752FF2C70002070BD0028A3
:10D1800009D03B4902680C390A6042684A60027A59
:10D190000A72407A4872704708B5052809D33229C7
:10D1A00007D8884205D86A461070517000980FF071
:10D1B0009FFB08BD2F49086170472E4948617047A1
:10D1C0002B48406870472A48006870472848008A02
:10D1D00070472748806870472548C06870470FB47B
:10D1E0002348019901600199416002998160694673
:10D1F000098A01820399C16004B0704703B51D48D4
:10D20000694609882030018069464988418069461D
:10D21000898881806946C988C1800CBD002809D0F1
:10D22000144920310A8802804A8842808A88828094
:10D23000C988C18070470F4800212030018041809B
:10D240008180C18070470A4900200860486088607A
:10D250000882C86007498860C860704705498861CE
:10D2600000201C31087048708870C870704700003A
:10D27000D4370020602100202BCF01009DCE01007B
:10D2800085CE0100034900208861EFE7014840791D
:10D29000ECE700006021002010B5FB499CB040186D
:10D2A0001FD1FA4C0120A070A069002819D0607825
:10D2B000002803D002A80EF0F5F90DE0207900282F
:10D2C0000FD1F3484279017901920091C3788278B5
:10D2D000018802A80EF013FA002802D1A16902A861
:10D2E000884700201CB010BD10B5E84C9AB0142837
:10D2F00008D00A2804D1E169002901D0012088471B
:10D300001AB010BD01202071A070A069002809D0BA
:10D3100068460EF0C7F968468089042802D9A169D9
:10D3200068468847E1690029EAD00020E7E7D74846
:10D33000002101718170704738B5D44802780146E8
:10D340000F310B78002A01D1012B25D1447A00221C
:10D350004272052C02D9C478641CC470012B1BD105
:10D36000CB783B2B02D25B1CCB700AE0CA708B7867
:10D370003B2B02D25B1C8B7003E08A704A78521CF4
:10D380004A704469002C07D0C04904220F31684616
:10D390000FF04EF90098A04738BD0EB5BB48017894
:10D3A000002904D101460F31097801292FD1C17814
:10D3B0006A4611720021C1704389D3804181517244
:10D3C0004279002A0AD0152A01D2012204E02F2A2C
:10D3D00001D2022200E003226B465A7241710079A9
:10D3E000002805D06946487A0421084369464872F6
:10D3F000A748694602880A8082788A70C278CA7013
:10D4000002790A714079487168460DF009FF0EBD36
:10D41000F3B59E4901220C318A560023944602221C
:10D4200082B0CB568A56009200220C390F7AC2E0A5
:10D4300085568118019102240C570126A646934C6B
:10D440008E570C34002161560C46A94201DD611B48
:10D4500000E0291BC9B203292ED2AB4201DD591BC2
:10D4600000E0E91AC9B2032926D2884B01210C3306
:10D470005956B14201DD891B00E0711AC9B2032976
:10D480001AD26146B44501DD891B00E0711AC9B2A8
:10D49000032911D2022159567346714501DDC91A7B
:10D4A00000E0591AC9B2032906D20099714501DD7D
:10D4B000C91A00E0591AC9B202291DD9891EC9B278
:10D4C000744B8C46591A714B5B89994204D9634459
:10D4D00019466E4B598102E06C496E4B4B81614697
:10D4E000FF23591A694B5B7A994202D96146591850
:10D4F00000E0FF21654B5972644923460C31012439
:10D500000C57A44602240C5700940D704E707446BC
:10D510008C705E4CA179642903D2002F01D0491C84
:10D52000A17161798E46642943D2242A01D2002157
:10D5300001E011462439C9B291423AD28556445687
:10D54000A54201DD2C1B00E0641B092C18DC019DA9
:10D5500001242C57461801257557AC4201DD641B88
:10D5600000E02C1B092C0BDC019D02242C5702250A
:10D570007557AC4201DD641B00E02C1B092C22DD39
:10D58000002F15D0414CA1790D46123D1B2D0BD219
:10D59000E179042903D97146491C617101E0491CF4
:10D5A000E1710021A17104E02D2902D30027F8E7E1
:10D5B0000127D21CD2B20399941C8C4200D237E7C7
:10D5C00032480772FFBD314CA5793C2D01D90027A7
:10D5D000E771C91CAFE72D4910B500200A46C87095
:10D5E0000F32107050709070D07048618861C861BF
:10D5F0002948FEF782FE002811D106212748FEF7B0
:10D600000DFD00280BD105212548FEF707FD002858
:10D6100005D109212348FEF701FD002801D0012092
:10D6200010BD0CF0B9FE20480EF0BBF81F480AF000
:10D630005AF9002803D01EA28E21FDF7B5FB002069
:10D6400010BD10B5114C0F342078012808D10CF012
:10D65000BAFF0E48006A002800D0804700202070E2
:10D6600010BD38B5094C0F34207801280AD108487C
:10D67000417900910379C278817800880CF08EFF9F
:10D680000020207038BD0000ADDFFFFF88210020A2
:10D69000B8200020FF03000011D401009BD301003B
:10D6A00039D301002FD30100E9D2010099D2010042
:10D6B0002E2E5C2E2E5C2E2E5C4170705C67736586
:10D6C0006E736F725F6170706C69636174696F6EA5
:10D6D0005C757365725F736C6565705C757365729C
:10D6E0005F736C6565702E630000000008490120BF
:10D6F00008707047064900200870704704490862A6
:10D70000704703498861704701488078704700007E
:10D71000882100207E480021017041808180C180E5
:10D72000704773B568464678172E0ED885783B2D1E
:10D730000BD8C278172A08D804793B2C05D8C188A1
:10D740000378052903D2002B01D001207CBD70484D
:10D7500003703C235E43731943803C235A431219E0
:10D7600082805943C1806A4900200C3988807CBD81
:10D77000FEB5684A684C801804D0692822D09328E6
:10D780001ED11FE00E78172E08D848783B2805D800
:10D790008B78172B02D8CD783B2D01D90120FEBD07
:10D7A0000F796A46177056709070D3701571C888DB
:10D7B000D08001990098FFF7B4FF20460AF0A1F845
:10D7C0000020FEBDFFF7A6FFF7E7F8B5504C207824
:10D7D000C10734D0274601250C3F012810D1FEF7A0
:10D7E0006BFCA2886188FEF775FC002801D07D7073
:10D7F00006E07878002803D02078400840002070A8
:10D80000FFF748FB002600281AD0B878401CC0B2A9
:10D81000B87007280ED9FE70387800280AD03E70FC
:10D82000BE80B968002901D0012088473A48743881
:10D830000AF067F8B8781E2801D9BE80BE70F8BD1E
:10D84000F878401CC0B2F870092800D9BE70B888BA
:10D850003249884201D2401CB8802D48E1880C38FA
:10D8600080888142EBD8FEF727FC0090FEF720FC71
:10D87000401C2F46874020782F430740FEF718FCB6
:10D88000401C2946814029438F4202D12078C0079D
:10D8900002D120780128D2D1A28861880098FEF7B1
:10D8A00019FC0028CBD01A4C0C3CA168002901D0EF
:10D8B00002208847184875380AF023F8A088E080CD
:10D8C000A6802570F8BD1CB505211548FEF7A6FBFE
:10D8D000002801D001201CBDFFF71CFF01AC114A3C
:10D8E00011A1009409F0ECFF002803D011A25721E8
:10D8F000FDF75AFA00201CBD05490C3988607047B5
:10D90000034800210C3801708180C18070470000FD
:10D91000B8210020EFEFFFFF87100000FFFF00009D
:10D92000CBD7010071D701006C6F6E6720736974EB
:10D93000000000002E2E5C2E2E5C2E2E5C4170709E
:10D940005C6773656E736F725F6170706C69636141
:10D9500074696F6E5C757365725F6C6F6E675F7311
:10D9600069745C757365725F6C6F6E675F73697401
:10D970002E63000070B50E460546002409E0281904
:10D98000022201218256415628570EF0EFFFE41C77
:10D99000E4B2A01CB042F2D370BD10B50748FEF748
:10D9A000ACFC002800D0012010BD10B50C460EF0D4
:10D9B000BBFF20460EF0B0FF002010BD75D901005E
:10D9C000FB4840787047F8B5FA4F0022C61BF8496B
:10D9D000F94D02230124B84221D009DCF74BC018CD
:10D9E0002BD001282BD005280CD0062841D10EE0E1
:10D9F000012E19D0F1483130301839D0F04E80194D
:10DA000037D120E08A704A70EA480C3803E08A7007
:10DA10004C70E8480B3809F074FF2C7229E08A70CA
:10DA20004B70E4480A38F6E78C704B70E1480A38CE
:10DA300009F067FFDF480938EDE7EC7019E0EA709C
:10DA40001E20287115E0487869460870002804D027
:10DA5000012804D0022805D103E00C7002E00B700D
:10DA600000E00A700122D74809F04EFFEC7100E097
:10DA70002A720020F8BD70B5CD4DA88800F051FA8B
:10DA8000CD4CA17905290FD22146A2791C318854A9
:10DA9000A079401CC1B220461C3000F06CFA2870FE
:10DAA000A079401CA07170BDC34B05221C3300211E
:10DAB000541E5E1876785E54491CA142F9DB991811
:10DAC0002039C877BC4805211C3000F054FA287072
:10DAD00070BD08B5002069460880BB490A68002A65
