:020000040001F9
:10C00000B8EB00204DC7010055C701006DC6010007
:10C0100059C701005BC701005DC7010000000000B7
:10C020000000000000000000000000005FC70100E9
:10C0300061C701000000000063C7010065C701007F
:10C0400067C7010067C70100254502002D320200C5
:10C050003932020067C70100C1EC010071310200F2
:10C06000A9430200ED4302000144020067C701003A
:10C0700067C7010067C7010067C7010067C7010004
:10C08000DD5902005931020067C7010067C701008E
:10C09000B933020067C70100BD33020067C7010062
:10C0A00067C7010067C7010067C7010067C70100D4
:10C0B00067C7010067C70100000000000000000022
:10C0C00067C7010067C7010067C7010067C70100B4
:10C0D00067C7010067C7010067C7010000000000D3
:10C0E0000000000000000000000000000000000050
:10C0F0000000000000000000000000000000000040
:10C10000000000000000000000000000000000002F
:10C11000000000000000000000000000000000001F
:10C40000DFF80CD001F046FA00480047453F030032
:10C41000B8EB0020401E00BF00BF00BF00BF00BF40
:10C4200000BF00BF00BF00BF00BF00BF00BF00BF14
:10C4300000BF00BF00BF00BF00BF00BF00BF00BF04
:10C4400000BF00BF00BF00BF00BF00BF00BF00BFF4
:10C4500000BF00BF00BF00BF00BF00BF00BF00BFE4
:10C4600000BF00BF00BF00BF00BF00BF00BF00BFD4
:10C4700000BF00BF00BF00BF00BF00BF00BF00BFC4
:10C4800000BF00BF00BFC5D170470000401E00BF05
:10C4900000BF00BF00BF00BF00BF00BF00BF00BFA4
:10C4A00000BF00BF00BF00BF00BF00BF00BF00BF94
:10C4B00000BF00BF00BF00BF00BF00BF00BF00BF84
:10C4C00000BF00BF00BF00BF00BF00BF00BF00BF74
:10C4D00000BF00BF00BF00BF00BF00BF00BF00BF64
:10C4E00000BF00BF00BF00BF00BF00BF00BF00BF54
:10C4F00000BF00BF00BF00BF00BF00BF00BFC5D16D
:10C5000070470000401E00BF00BF00BF00BF00BF5B
:10C5100000BF00BF00BF00BF00BF00BF00BF00BF23
:10C5200000BF00BF00BF00BF00BF00BF00BF00BF13
:10C5300000BF00BF00BF00BF00BF00BF00BF00BF03
:10C5400000BF00BF00BF00BF00BF00BF00BF00BFF3
:10C5500000BF00BF00BF00BF00BF00BF00BF00BFE3
:10C5600000BF00BF00BF00BF00BF00BF00BF00BFD3
:10C5700000BF00BF00BFC5D170470000401E00BF14
:10C5800000BF00BF00BF00BF00BF00BF00BF00BFB3
:10C5900000BF00BF00BF00BF00BF00BF00BF00BFA3
:10C5A00000BF00BF00BF00BF00BF00BF00BF00BF93
:10C5B00000BF00BF00BF00BF00BF00BF00BF00BF83
:10C5C00000BF00BF00BF00BF00BF00BF00BF00BF73
:10C5D00000BF00BF00BF00BF00BF00BF00BF00BF63
:10C5E00000BF00BF00BF00BF00BF00BF00BFC5D17C
:10C5F00070470000401E00BF00BF00BF00BF00BF6B
:10C6000000BF00BF00BF00BF00BF00BF00BF00BF32
:10C6100000BF00BF00BF00BF00BF00BF00BF00BF22
:10C6200000BF00BF00BF00BF00BF00BF00BF00BF12
:10C6300000BF00BF00BF00BF00BF00BF00BF00BF02
:10C6400000BF00BF00BF00BF00BF00BF00BF00BFF2
:10C6500000BF00BF00BF00BF00BF00BF00BF00BFE2
:10C6600000BF00BF00BFC5D170470000094B1EF0DE
:10C67000040F1CBFEFF309801847EFF30880064949
:10C68000064A1268884201D8904202D88D464FF07F
:10C6900000001847E9FF0100B8EB0020002D002042
:10C6A000056885F308884068FF2464B2EFF30585C8
:10C6B000002D01D1A64600472546064621273FBA50
:10C6C000F0B40024002500260027F0B4F92040B281
:10C6D00000470000401E00BF00BF00BF00BF00BFFA
:10C6E00000BF00BF00BF00BF00BF00BF00BF00BF52
:10C6F00000BF00BF00BF00BF00BF00BF00BF00BF42
:10C7000000BF00BF00BF00BF00BF00BF00BF00BF31
:10C7100000BF00BF00BF00BF00BF00BF00BF00BF21
:10C7200000BF00BF00BF00BF00BF00BF00BF00BF11
:10C7300000BF00BF00BF00BF00BF00BF00BF00BF01
:10C7400000BF00BF00BFC5D170470000064880474A
:10C7500006480047FEE7FEE7FEE7FEE7FEE7FEE7E6
:10C76000FEE7FEE7FEE7FEE7D141020001C401005B
:10C7700002461146802901DA00207047802904DB37
:10C78000C02902DA0020C043F7E7C02903DBE02913
:10C7900001DA0220F1E7E02903DBF02901DA0320C6
:10C7A000EBE7F02903DBF82901DA0420E5E7F829B3
:10C7B00003DBFC2901DA0520DFE7FC2901DB062089
:10C7C000DBE70020D9E7F3B585B00446002C02D0A2
:10C7D0000698002802D1002007B0F0BD0020069D79
:10C7E00028602078FFF7C4FF0090069D00980300A2
:10C7F00009F048F90705D20B1F396294D20020785E
:10C8000028700098401C0090C8E02078049066785A
:10C81000E0203040802801D00020DDE7049880012E
:10C82000B106890E401828700498C006400F687041
:10C83000B4E0207804906678A778C0203040802843
:10C8400003D1C0203840802801D00020C4E7B001C7
:10C85000B906890E4018287004980001B106090F26
:10C86000401868709AE0207804906678A778E0789D
:10C870000390C0203040802808D1C0203840802854
:10C8800004D1C02103980840802801D00020A3E7EC
:10C89000B90103988006800E081828703001B90687
:10C8A000090F40186870049880001C210840B106E8
:10C8B000890F4018A87071E0207804906678A778F6
:10C8C000E078039020790290C020304080280CD17D
:10C8D000C0203840802808D1C02103980840802813
:10C8E00003D102980840802801D0002074E7039803
:10C8F000810102988006800E08182870390103987B
:10C900008006000F08186870B000B906890F40183B
:10C91000A87004988007000EE8703FE0207804902B
:10C920006678A778E078039020790290607901908A
:10C93000C0203040802810D1C020384080280CD141
:10C94000C02103980840802807D102980840802819
:10C9500003D101980840802801D000203CE70298CC
:10C96000810101988006800E081828700298010144
:10C9700001988006000F08186870B90003988006B7
:10C98000800F0818A8700498800140210840B10663
:10C99000890E4018E87001E000201DE700BF0098F4
:10C9A0001AE70146DC4B994207D8A02905D300229B
:10C9B0000B46A03B5B0098189BE0D84B994207D8E8
:10C9C000D74B994204D3D74ACB1A5B00981890E012
:10C9D000D54B994208D803231B03994204D3D34A69
:10C9E000CB1A5B00981884E0D14B994208D82723D2
:10C9F0005B02994204D3CF4ACB1A5B00981878E0C7
:10CA0000CD4B994208D8CC4B3B3B994204D3CB4AFF
:10CA1000CB1A5B0098186CE0C74BF333994209D8E6
:10CA2000C54B9633994205D3C44A7832CB1A5B0082
:10CA300098185EE0C24B994207D85B1F994204D315
:10CA4000C04ACB1A5B00981853E0BF4B994209D8F3
:10CA5000BD4BFD3B994205D3BA4AAA32CB1A5B00C3
:10CA6000981846E0B94B994208D8B84B4E3B9942CA
:10CA700004D3B74ACB1A5B0098183AE0B54B9942F9
:10CA800009D8B44B493B994205D3B14A9E32CB1ADF
:10CA90005B0098182DE0B04B994208D8AE4B703B24
:10CAA000994204D3AD4ACB1A5B00981821E0AC4BF5
:10CAB000994208D8AB4B994205D3A84AE232CB1A27
:10CAC0005B00981815E0A84B994208D8964B723332
:10CAD000994204D3A54ACB1A5B00981809E0A44BED
:10CAE000994206D8A34B994203D3A34ACB1A5B00C1
:10CAF00098187047F7B584B00646174600250024FD
:10CB000020E0701902A9FFF75EFE03900398012848
:10CB10000DDD0298FFF745FF01903919974A0198FA
:10CB200083180222184622F0CBFDA41C08E00398CB
:10CB3000012803D102983855641C01E001200390BC
:10CB400003982D18705D002802DD05988542D8DB1A
:10CB5000204607B0F0BDFFB584B00C460025039514
:10CB6000049D002D42D0002100203BE0039D6E1C5F
:10CB70000396079E755D0195002330E08026019D98
:10CB80003540002D1ED00546C617760F761976055E
:10CB9000320EC617760F7619F610F600861BF6B21F
:10CBA00002960125029EB540EDB2009515466543FB
:10CBB0006E180D9DAE5D009D354316466643771891
:10CBC0000D9EF555019D6D062D0E01954D1CE9B28A
:10CBD000A14203DB0021451CE8B202E05B1C082BEC
:10CBE000CCDB00BF069DA842C0DB41E00020002155
:10CBF0003CE0039D6E1C0396079E755D0195002326
:10CC000031E08026019D3540002D1ED00546C61717
:10CC1000760F76197605320EC617760F7619F6104E
:10CC2000F600861BF6B202960125029EB540EDB2D3
:10CC30000095154665436E180D9DAE5D009D35430C
:10CC40001646664377180D9EF555019D6D062D0E0F
:10CC50000195451CE8B2069DA84203DB00204D1C4F
:10CC6000E9B202E05B1C082BCBDB00BFA142C0DBBA
:10CC700008B0F0BDF0B585B005460E461446002C50
:10CC800002D1002005B0F0BD012D16D1304620386C
:10CC90000701244908317818102201A922F010FD5B
:10CCA0001021204600F00CF901AB102208210020D1
:10CCB0000094FFF750FF1020E4E700BF00BF002002
:10CCC000E0E7F7B58AB0054614460BAF002C02D159
:10CCD00000200DB0F0BD022D1AD13878A1385E21A8
:10CCE00048437978A1394018460125497018202217
:10CCF00002A922F0E5FC2021204600F0E1F802AB79
:10CD00001022114601200094FFF725FF2020E0E7C4
:10CD100000BF00BF0020DCE75104000042260000F5
:10CD20001020000064070000D5330000CA13000083
:10CD3000A59F0000761B00006BFE0000C2BE000035
:10CD4000E5FF0000F6BF000029FA000064E80000DB
:10CD50009CC20000CA2E0000B7490000CEC30000EC
:10CD6000AE4D0000774C0000E03C000020C7000002
:10CD70008D4700005640000054D800009C0B040072
:10CD80005C0D00002DE9F05F0546002092469B46B1
:10CD900088460646814640241BE0284641464746D1
:10CDA000224600F064FC53465A46C01A914110D303
:10CDB00011461846224600F04BFC2D1A67EB01087D
:10CDC0004F4622460120002100F042FC17EB0009EB
:10CDD0004E41201EA4F10104DFDC484631462A46BC
:10CDE0004346BDE8F09FA0F16101192900D8203821
:10CDF00070472DE9FE43994615468846074601AC23
:10CE0000022942D3002D40D000200290A8F1010059
:10CE10004FF0FF36009022E000FB057201FB057029
:10CE200011464A469047002805DC54F82600304455
:10CE300044F8260013E060682A4600FB057154F8A8
:10CE4000040C00FB057007E00B7890F800C001F8B7
:10CE500001CB00F8013B521E002AF5D1764254F86E
:10CE6000040C61688842D7DC4B462A463846FFF7F7
:10CE7000C0FF54F8040C4B46A8EB0001401C00FB1B
:10CE800005702A46491EFFF7B4FFBDE8FE8340EA5D
:10CE900001039B0703D009E008C9121F08C0042A38
:10CEA000FAD203E011F8013B00F8013B521EF9D21F
:10CEB0007047D2B201E000F8012B491EFBD2704747
:10CEC0000022F6E710B513460A4604461946FFF756
:10CED000F0FF204610BD421E12F8013F002BFBD18F
:10CEE00011F8013B02F8013B002BF9D17047421CBD
:10CEF00010F8011B0029FBD1801A704710B50022E1
:10CF000000E0521C835C8C5CA34201D1002BF8D161
:10CF1000D8B2E1B2401A10BD30B504460020034635
:10CF200000E05B1C934203D2E05CCD5C401BF8D078
:10CF300030BD034611F8012B00F8012B002AF9D16E
:10CF40001846704770B500B91068002512E00B460E
:10CF500002E0A64203D05B1C1C78002CF9D1E3B29E
:10CF60002B4305D02CB125B1002100F8011B04E0B2
:10CF70000546401C0678002EE9D11060284670BD99
:10CF8000004ADFE7B42E00200FB400B58DB010A921
:10CF900009900B9000914FF0FF300A9000200C9008
:10CFA00005480690054807906A4609A80F9900F0C1
:10CFB00095FB0DB05DF814FBF9D6010017D7010001
:10CFC0002DE9FF5F1D464FF0FF3BD5E90146914635
:10CFD0005F464FF00008A9697F1C01988847296ABD
:10CFE000824688470028F6D1BAF1FF3F0CD024F4DE
:10CFF000C064002E19DD600614D5BAF12B0F09D0DC
:10D00000BAF12D0F0ED103E0584604B0BDE8F09FF1
:10D0100044F48064A9697F1C01988847761E824683
:10D02000002E02DDBAF1300F03D0B9F1000F26D087
:10D0300032E0A969761E44F400747F1C0198884789
:10D040008246002E05DDBAF1780F06D0BAF1580FEE
:10D0500003D0B9F1000F10D01EE0B9F1000F02D0DB
:10D06000B9F1100F18D1A969761E24F400747F1C41
:10D07000019888478246102002E0082000E00A203C
:10D08000814609E008FB0908A969761E44F400748A
:10D090007F1C019888478246002E05DD4946504690
:10D0A00000F007FB0028EDDAE96901988847A00540
:10D0B00002D46FF00100A8E7E00725D1600613D580
:10D0C000600502D5C8F1000000E0404629680A1D4D
:10D0D0002A600968220501D5087015E0220701D5EC
:10D0E000088011E008600FE02868011D29600068D1
:10D0F000210502D580F8008006E0210702D5A0F8BE
:10D10000008001E0C0F8008038467EE72DE9FF5F2F
:10D11000D2E901A74FF00008916999461446DDF85D
:10D1200038B0464601988847054659EA0B0005D0B5
:10D1300009E0A169761C019888470546216A2846BE
:10D1400088470028F5D1681C03D05FEACA7005D073
:10D1500015E04FF0FF3004B0BDE8F09F2068011DDE
:10D160002160D0F800800AE05FEACA7001D108F8B7
:10D17000015BA169761C7F1E019888470546002F38
:10D180001ADD681C18D0B9F1000F0DD0E81705EBB7
:10D19000D060421120F01F0059F822102A1A0120F5
:10D1A00090400142E0D107E0BBF1000FDCD1216AE1
:10D1B000284688470028D7D0E16901988847BBF105
:10D1C000000F07D1002E05DD5FEACA7002D10021F1
:10D1D00088F80010A068B84203DDBBF1000F03D04F
:10D1E00017B16FF00100B6E73046B4E770B50646F8
:10D1F00008F06EFC046805460A220021304600F063
:10D200009BFA2C6070BD2DE9FE4F804681EA030039
:10D21000C00F0C46009021F0004123F00045B8EB10
:10D220000200A94105D24046214690461C460B46C5
:10D23000024623F00040104347D0270DC7F30A00F1
:10D24000C3F30A510290401A019040286BDAC3F3ED
:10D25000130040F4801B0098924620B10023D2EBCB
:10D26000030A63EB0B0B01985946C0F1400250468C
:10D2700000F0EEF906460D4650465946019A00F078
:10D2800006FA10EB08006141002487EA115284EA93
:10D29000E7731A4340D0009A62B3019A012A4FEA19
:10D2A000075215DC001B61EB02014FF0004202EA5D
:10D2B0000752CDE90042001C41F5801132462B4651
:10D2C00000F081FA03B0BDE8F08F40462146F9E74F
:10D2D000001B61EB0201001C41F5801300185B414B
:10D2E0002018A2F5001747EB030140EAD570B619E4
:10D2F0006D4111E06D084FEA360645EAC0754FEA08
:10D300000752001B61EB0201001C41F58011490826
:10D310004FEA30000019514132462B4603B0BDE8B8
:10D32000F04F00F041BA0098012240000023D0EBFA
:10D33000020263EBE073009821464FEAE074B8EB19
:10D34000000061EB0401E9E783F000435BE781F053
:10D35000004158E72DE9FE4F81EA030404F0004440
:10D3600021F0004100944FF0000B23F0004350EAFD
:10D3700001045ED052EA03045BD0C3F30A54C1F344
:10D380000A552C44A4F2F3340194A0FB0254C1F3D7
:10D39000130141F48011C3F3130343F4801301FB21
:10D3A000024400FB034E840A970A44EA815447EA88
:10D3B0008357A4FB076802958D0A05FB07854FEA92
:10D3C000932C04FB0C542705029D4FEA065847EAAC
:10D3D0001637B5EB08056EEB070C870E920E47EA81
:10D3E000811742EA8312A7FB0201B6EB0B0164EB43
:10D3F00000042B0D43EA0C335E1844EB1C50DA4654
:10D400005146E7FB0201C5F313044FEA0B3343EA2D
:10D4100014534FEA0432019C43EA0603A4F10C04BE
:10D420000294009CCDE900B400F0CDF903B0BDE852
:10D43000F08F00200146F9E72DE9F04D81EA030461
:10D4400004F0004B21F0004514464FF0000A23F091
:10D45000004150EA050220D054EA01021DD0C5F374
:10D460000A570246C5F31303C1F31300C1F30A566A
:10D4700040F4801543F48013A7EB0608101BD64632
:10D4800008F2FD3873EB050002D308F1010801E052
:10D4900092185B41B8F1000F03DA00200146BDE8A5
:10D4A000F08D00204FF48011064684460EE0171BD5
:10D4B00073EB050705D3121B63EB050306434CEA28
:10D4C000010C49084FEA300092185B4150EA01070D
:10D4D000EDD152EA030012D082EA040083EA05018A
:10D4E000084305D0101BAB4106D20122002306E001
:10D4F00000224FF0004302E06FF0010253101AEBDC
:10D5000006004CEB085110EB0A0041EB0B01BDE8A3
:10D51000F04D00F049B90EB5C10F80EAE070084443
:10D52000CA07002140F233438DE80E000A460B463D
:10D5300000F049F903B000BD0EB540F2334102914D
:10D540000021CDE900110A460B4600F03CF903B07A
:10D5500000BD70B5C1F30A5201F000450024C1F3CB
:10D56000130140F2FF3341F480119A4201DA0020A6
:10D5700070BD40F233439A42A2F2334203DC52427E
:10D5800000F075F800E090402C43F1D0404270BDAF
:10D59000C1F30A5210B5C1F3130140F2FF3341F455
:10D5A00080119A4201DA002010BD40F233439A42C2
:10D5B000A2F2334203DC524200F059F810BD904011
:10D5C00010BD000030B5041E71F1000404DB4FF003
:10D5D0000044404264EB0101141E73F1000405DBBA
:10D5E0001C464FF00043524263EB04038B4208BFDA
:10D5F000824230BD30B5041E71F1000404DB4FF0EF
:10D600000044404264EB0101141E73F1000405DB89
:10D610001C464FF00043524263EB0403994208BF9B
:10D62000904230BD30B50B46014600202022012437
:10D6300009E021FA02F59D4205D303FA02F5491BE0
:10D6400004FA02F52844151EA2F10102F1DC30BDF6
:10D65000202A04DB203A00FA02F1002070479140B2
:10D66000C2F1200320FA03F3194390407047202AA7
:10D6700004DB203A21FA02F00021704721FA02F37C
:10D68000D040C2F120029140084319467047202A39
:10D6900006DBCB17203A41FA02F043EAE07306E0DA
:10D6A00041FA02F3D040C2F12002914008431946EA
:10D6B00070473A2800D2303820F02002412A01D3A6
:10D6C000A2F13700884201D34FF0FF3070470000CD
:10D6D000026811441378016018467047D16004490C
:10D6E00051610449116200211161114600F0F2B844
:10D6F000D1D60100C1D80100426842B1016811F8D9
:10D70000013B23B1521EC0E90012184670470121A7
:10D71000C160881E704742685AB1C368016843B946
:10D7200083688B4205D0491E521CC0E900120020BC
:10D7300070474FF0FF3070472DE9F04791460F4694
:10D7400080460446002614F8015B2DB100F0B4F8C1
:10D750000068405DC007F6D12B2D02D02D2D18D0CA
:10D76000641E4A463946204600F04AFA27B1396815
:10D77000A14201D1C7F8008071054FF002040BD51A
:10D780004042002803DD08F0A3F90460A007BDE8CB
:10D79000F08746F48066E4E70028F8DA08F098F9A4
:10D7A00004606FF00040F2E710B5141E73F100043E
:10D7B00008DA401C41F1000192185B411A4301D183
:10D7C00020F0010010BD2DE9F04D92469B4611B1AD
:10D7D000B1FA81F202E0B0FA80F220329046FFF70F
:10D7E00037FF04460F4640EA0A0041EA0B01534660
:10D7F0005A46084313D0114653EA010019D0C8F124
:10D8000040025046FFF733FF05460E465046594644
:10D810004246FFF71DFF084305D0012004E02046E3
:10D820003946BDE8F08D0020054346EAE0762C43FA
:10D8300037430A986305E40AA0EB08000022FD0ABA
:10D8400044EA47540A3002D500200146E9E70105C1
:10D8500010196941DDE9084500196941BDE8F04D3D
:10D86000A2E7C1F30A52C1F3130140F2FF3341F4BE
:10D8700080119A4202DA00200146704740F2334399
:10D880009A42A2F2334202DC5242FFF7F0BEFFF7A7
:10D89000DFBE0000064C074D06E0E06840F00103E3
:10D8A00094E8070098471034AC42F6D3FEF7ACFD7D
:10D8B000D0940600F094060000487047DC91060002
:10D8C00010B50446FFF7F8FF0068005D00F00100A6
:10D8D00010BD00002DE9F34F8BB04FF0000801F1AF
:10D8E0000C000C464FF0010B46460DF1080A019062
:10D8F0006269012101989047051E2DD0252D2CD05D
:10D90000216A8847C0B16269012101989047216A64
:10D9100088470028F7D1411E62690198904700E0CE
:10D92000761CA1690B988847216A88470028F7D19F
:10D93000E1690B988847DBE7A1690B9888470746A0
:10D94000A84201D1761CD3E7E1690B9888477F1C78
:10D9500002D1B8F1000F6FD046E1002762693D4661
:10D960003946019890472A2804D16269012101981B
:10D9700090470125DFF88492626901210198904760
:10D98000A0F130010A290AD24F45E5DC07EB8701F7
:10D9900000EB4107303FDFD445F01005ECE7E90626
:10D9A00001D46FF000476C280AD04C2814D06828A6
:10D9B00015D06A280DD074281CD07A281AD01DE002
:10D9C00062690121019890476C2802D045F0040556
:10D9D00014E045F002050DE045F020050AE062691B
:10D9E000012101989047682802D045F0080505E01C
:10D9F00045F400656269012101989047C4E9015727
:10DA000065283DD019DC58287AD00CDC452837D061
:10DA100004DC252826D0412831D131E046282FD0FA
:10DA200047282CD12CE05B2877D0612828D06328A8
:10DA30007CD0642823D15AE0D0E06F2848D008DC9D
:10DA400066281DD067281BD0692821D06E2816D1E2
:10DA500027E0702845D0732868D0752847D07828EB
:10DA60000DD14DE0A1690B988847054625283FF464
:10DA700069AFE1690B9888476D1C3FF46AAFB3E06A
:10DA800023466A466FF001000B99AFF300809EE0D9
:10DA900045F040006060A80723464FF0000236D4EE
:10DAA0003EE0E8077FF447AF2068011D2160006871
:10DAB000290501D506701BE7290701D5068017E760
:10DAC000A90703D5F117C0E9006111E706600FE768
:10DAD00045F040006060A80723464FF0080216D4C6
:10DAE0001EE040F60E0125EA0100606016E045F0F8
:10DAF00040006060A80723464FF00A0207D40FE0F9
:10DB000045F040006060A80708D5234610226FF05A
:10DB100001000B99AFF3008059E007E02346102283
:10DB20006FF001000B99FFF74BFA50E04FF000093E
:10DB30004F464B46632802D05B2806D040E0E806FB
:10DB400001D40120A06001273AE062690121019817
:10DB500090475E2805D14FF0010962694946019856
:10DB60009047216939B900210A46534643F82120DC
:10DB7000491C0829FADBB0B3216969B9C11700EB68
:10DB8000D16253110AEB830122F01F02821A012095
:10DB90000B68904003430B60626901210198904734
:10DBA0005D28E8D1B9F1000F09D00020514651F8A5
:10DBB0002020D24341F82020401C0828F7DB02AB8C
:10DBC000224600976FF001000B99FFF79FFA00289B
:10DBD0000CDA401C08D1BBF1000F05D04FF0FF302C
:10DBE0000DB0BDE8F08FFFE74046F9E7E90701D146
:10DBF00008F1010806444FF0000B79E6CCCCCC0CC0
:10DC00002DE9F05F82460078002715468B460AF121
:10DC10000104B946302801D09DB113E014F8010B7E
:10DC20000127782803D0582801D045B10AE00DB16A
:10DC3000102D07D10027102514F8010B02E008254C
:10DC400000E00A250026B0460EE005FB080005FBB3
:10DC500006F1012701EB10461FFA80F8B6F5803F68
:10DC600000D3B94614F8010B2946FFF722FD00281E
:10DC7000EBDABBF1000F05D00FB1641E00E0544693
:10DC8000CBF80040B9F1000F06D007F021FF0221C8
:10DC90000160C81EBDE8F09F48EA0640FAE770B58B
:10DCA0008C1810F8015B15F0070301D110F8013B47
:10DCB0002A1106D110F8012B03E010F8016B01F8CE
:10DCC000016B5B1EF9D12B0705D40023521E0DD426
:10DCD00001F8013BFAE710F8013BCB1A921C03E074
:10DCE00013F8015B01F8015B521EF9D5A142D8D3AC
:10DCF000002070BD2DE9F04104462078411E0A291C
:10DD000009D244B100F0F8F93C4D3D4E00274FF0E8
:10DD1000010838B902E00120BDE8F081207800F068
:10DD2000DBF910B16078C00704D0207800F0E4F986
:10DD3000F0B13FE020780AF027FA2078401E05EB8A
:10DD4000C00047702078401E05EBC00080F80680B8
:10DD50002078401E05EBC000C771716809B1022030
:10DD6000884795F8500020B3401E85F8500042E0E7
:10DD70006078C0071ED020782168401E05EBC000E7
:10DD80000160616841602078401E05EBC00080F8AA
:10DD900006802078401E05EBC000C771716809B18C
:10DDA0000120884795F85000092824D2401C85F8A6
:10DDB000500020E0207800F09FF9E0B16078C007C3
:10DDC00019D020780AF0E0F920782168401E05EB90
:10DDD000C0000160616841602078401E05EBC00012
:10DDE00080F806802078401E05EBC000C77171687E
:10DDF00009B10320884700208EE70000E85000208A
:10DE00005827002010B500F043F9002809D000F091
:10DE10000BF804484168002903D0BDE810400220F7
:10DE2000084710BD5827002010B500F09FF9BDE845
:10DE3000104051210148FFF743B80000E85000208E
:10DE4000002803D051220249FFF721B87047000093
:10DE5000E85000202DE9FC5F804600244FF6FF7754
:10DE60000025684600F0C2FB9DF807109DF80400ED
:10DE70009DF80520C0EB001002EB800C0022481C2E
:10DE80004FF0010B0BFA00F3DFF8EC9043F0010ABE
:10DE900009EBC20358783AEA000601D0012816D1EE
:10DEA0009878DE78C0EB001006EB800666450AD94C
:10DEB0004FF00104A6EB0C0080B2B84207D207462F
:10DEC000501CC5B203E002D15879012805D0521C7C
:10DED000D2B20A2ADCD364BB03E00124521CD5B2BF
:10DEE00027E0062901D2491C00E00021C9B24FF603
:10DEF000FF76002700204A1C0BFA02F343F0010CC6
:10DF000009EBC00253783CEA030A01D0012B0BD184
:10DF1000D3789278C2EB021203EB8202B24203D2B0
:10DF2000431CDDB201241646401CC0B20A28E7D3C8
:10DF3000ACB18CB16D1E19F8350088F8000009EB02
:10DF4000C500027988F80320827888F80120C0781B
:10DF500088F8020088F804100020BDE8FC9F06291C
:10DF600001D2491C00E00021C9B27F1CFFB2072F7B
:10DF7000C0D30120F1E70000E850002030B50028B0
:10DF800014D00C4B93F8501089B10022002103EB00
:10DF9000C10464782CB1144613F83150521CD2B22B
:10DFA0000555491CC9B20A29F1D3827230BD00213E
:10DFB000817230BDE85000202DE9FC410546491E24
:10DFC0000A2902D30120BDE8FC81304800EBC104DE
:10DFD0002079E870A0786870E078A870607968713E
:10DFE000A079A871684600F001FB9DF804009DF837
:10DFF0000510C0EB001001EB8001A078E278C0EBC7
:10E00000001002EB80000126884208D29DF807002C
:10E01000062801D2401C00E00020C1B21CE019D14A
:10E020007F1C06FA07F040F001016078814301D0BF
:10E03000012802D16079012805D09DF80700062843
:10E0400005D2401C04E09DF8070028711BE0002069
:10E05000C1B201E09DF80710002062784C1C06FA5E
:10E0600004F343F00103934305D0012A03D00629AA
:10E0700003D2491C02E0297105E00021C9B2401C0D
:10E08000C0B20728EAD300209DE70000E850002036
:10E09000034890F85000002800D00120704700008D
:10E0A000E850002010B551210848FEF709FF084943
:10E0B000002008600621074800F05EFA08B1012040
:10E0C00010BD0AF0B5F8002010BD0000E850002097
:10E0D00058270020858002000A2809D840B1054948
:10E0E000401E01EBC000C079002800D0012070471D
:10E0F00000207047E85000200A280AD848B1064995
:10E10000401E01EBC0004078C04340F30000401CBB
:10E110007047002070470000E8500020401E0A2889
:10E1200001D3012070470649002201EBC000827133
:10E130000121C171417801F0FE014170002070475A
:10E14000E8500020401E0A2801D3012070470649EC
:10E15000012201EBC0008271417841F00101417060
:10E160000021C17100207047E850002009F0DEBF97
:10E1700002480079012800D000207047E82D0020D7
:10E180002DE9F74F4FF000080D4604464246C346BE
:10E19000DFF8449147E02D2A01D2002001E0A2F1EE
:10E1A0002D00C0B290423CD2A35621568B4201DDD5
:10E1B000591A00E0C91AA718261801F0FF0C97F9A0
:10E1C000013096F901108B4201DD591A00E0C91A9D
:10E1D00001F0FF0A97F9021096F90230994201DD29
:10E1E000C91A00E0591AC9B2BCF1030F04D8BAF138
:10E1F000030F01D803291ED999F80E305B1CDBB23E
:10E2000089F80E3099F80F60761CF6B289F80F6025
:10E21000022E02D989F80DB001E0042B15D94FF078
:10E220000108D21CD2B2901CA842B4D3B8F1000F9E
:10E2300023D000261DE099F80D10491CC9B289F8B9
:10E240000D10022901D989F80FB0C01CA9E7A05709
:10E2500010FB00F2A01990F9011011FB012190F9B7
:10E26000020010FB0010C0F3CF0011F01DFFF61CE0
:10E27000F6B2B01CA842EAD319E099F80410484657
:10E28000012914D180F804B080F809B080F805B0F5
:10E29000817901F0FE0181714B2101702D214170C6
:10E2A0000C2181701021C1708921A9F816100299E2
:10E2B00099F80A204A70084999F8092010314978DC
:10E2C000914201D8012200E0002202990A7089F8E7
:10E2D0000AB0BDE8FE8F0000E82D0020C1B2C0F3F7
:10E2E0000720814203D8042901D3092801D2012043
:10E2F0007047024A1170507000207047F82D0020BE
:10E3000070B500220DE0541CE3B207E0855CC65CEA
:10E31000B54201D98654C5545B1CDBB28B42F5D3A0
:10E32000E2B28A42EFD370BD10B5034812F08FFC01
:10E33000BDE8104001F09ABF7CC400203EB5002427
:10E34000A3F89A40002821D0002B1FD0B0F88C10E1
:10E3500046291BD801210E258DF80010ADF8045078
:10E36000052146258DF80110ADF806500F258DF8D2
:10E3700002108DF80310ADF80850110CADF80A40EA
:10E38000252904D21A46694601F074FE3EBD6A464C
:10E39000014912F067FC3EBD7CC4002002480249DE
:10E3A00018390078087370477827002011B59DF858
:10E3B00000309DF801108B4214D99DF80200814273
:10E3C00010D99DF8032090420CD90C1A042C09DDB9
:10E3D000841A032C06DD032A04D9034C23706170D0
:10E3E000A070E27018BD00007827002010B516F06C
:10E3F000A3FD114B002420B116F090FD102809D088
:10E4000010E01878002816D01C70BDE810400220DB
:10E4100006F07EBC1BF04EF9112803D107480078A6
:10E42000022808D01878002805D01C70BDE81040DC
:10E43000022006F06DBC10BD082B0020F12A002040
:10E440002DE9F84368460EF0CFFE9DF80000264AFD
:10E450009DF80110C0EB001002EB80000144012088
:10E460000026224CB1F5347F04D8A17F01B9E077B2
:10E47000A07703E0A17F01B1E077A677E07F0028D5
:10E4800030D01B4FA07F4FF48005A7F10408A0B146
:10E4900000221849184819F027FF3D6013201AF090
:10E4A0001FFA812003F056FF872003F053FFC8F8BE
:10E4B0000050114819F0C8FF13E000220D490E4822
:10E4C00019F012FF3D6013201AF00AFA812003F0C0
:10E4D00041FF212003F03EFFC8F80050064819F024
:10E4E000B3FFE677BDE8F8835CFEFFFFB02B0020AA
:10E4F0000C050050002C00205846050010B51D4C9E
:10E50000617B002000290BD094F82010032902D150
:10E51000607318F05DF914F8200F401C207010BDD6
:10E5200084F82000207B0028F9D1206B40B916F038
:10E5300003FD28B116F0F2FC802801D11DF068FF20
:10E54000206B10B1206B401E206316F0F5FC18B94B
:10E5500016F0E4FC8028E2D1E06A0028DFD0E06A0F
:10E56000401EE062E06A0028D9D1BDE8104016F0F4
:10E57000BFBE0000B02B002010B502460020184B93
:10E580005B78002B10D0164B083305290ED00629D6
:10E5900017D0092907D1D9780A291ED2114C44F87D
:10E5A0002120491CD97010BD012010BD19783C29CB
:10E5B00005D20D4C44F82120491C197010BD0120D2
:10E5C00010BD59780A2906D2064C283C44F821206F
:10E5D000491C597010BD012010BD012010BD000064
:10E5E00010290020F05C0020D85B002007490A8831
:10E5F00002808A788270CA78C2700A7902714A7978
:10E6000042718A798271C979C17170471C290020D1
:10E61000034841790079C0EB001001EB800070479E
:10E620001C2900200148C079704700001C290020E7
:10E63000914207D8884203D3904201D80120704705
:10E6400000207047884201D2904201D801207047D3
:10E650000020704773B59DF802500C2D1BD89DF813
:10E6600003101F2917D89DF80420172A13D89DF8E6
:10E6700005303B2B0FD89DF806403B2C0BD80648A5
:10E68000BDF8006006808570C170027143718471AD
:10E690009DF80710C1717CBD1C2900203FB581B0D9
:10E6A0001446AFF20705002128460FF051F901206A
:10E6B00000909DF804004000019014F0DBF89DF8F4
:10E6C0000010084000909DF8040014F023F89DF815
:10E6D0000010084000909DF8080014F01BF89DF809
:10E6E00000100840009014F0C5F89DF80010084094
:10E6F00000909DF8040040F0010001909DF8040096
:10E7000014F008F89DF80010084000909DF80400EF
:10E71000C0070CD126E09DF8100090B101212046E1
:10E7200014F050F89DF8001008400090641C9DF80B
:10E730001000411E04911ED39DF800000028EAD16C
:10E7400019E00021204614F03DF89DF80010084023
:10E750000090EBE7207813F0DDFF9DF800100840F3
:10E760000090641C9DF81000411E049103D39DF895
:10E7700000000028EED19DF8200010B99DF800009F
:10E7800028B914F093F89DF800100840009028462E
:10E790000FF06CFA9DF8000005B030BD1FB582B0D7
:10E7A0001446012001909DF808004000029014F0EA
:10E7B00061F89DF80410084001909DF8080013F0DE
:10E7C000A9FF9DF80410084001909DF80C0013F07B
:10E7D000A1FF9DF80410084001909DF80800C007B3
:10E7E0000CD126E09DF8140090B10121204613F0D1
:10E7F000E9FF9DF8041008400190641C9DF8140086
:10E80000411E05911ED39DF804000028EAD119E0AD
:10E810000021204613F0D6FF9DF804100840019017
:10E82000EBE7207813F076FF9DF804100840019084
:10E83000641C9DF81400411E059103D39DF804004B
:10E840000028EED19DF8200010B99DF8040028B9E9
:10E8500014F02CF89DF80410084001909DF8040075
:10E8600006B010BD38B5114D002128460FF070F8E4
:10E8700041F2883000900E4C05E0012019F068F854
:10E880000099491E00912168C1F3404111B10098DF
:10E890000028F2D1009820B128460FF0E7F90120B6
:10E8A00038BD28460FF0E2F9002038BD65E80100C8
:10E8B000100500502DE9F34F2DED088B8BB0012092
:10E8C00004909DF84C90149890ED000B51EC100BB7
:10E8D000FEF73FFE07B2B846149890ED020B51ECDC
:10E8E000100BFEF736FE00B201900090012458E0B4
:10E8F0003846FEF710FE41EC100B149800EB04159F
:10E9000051EC100B95ED001B53EC112BFEF75AFE4A
:10E9100006D295ED000B51EC100BFEF71AFE07B274
:10E920004046FEF7F8FD95ED001B53EC112BFEF76A
:10E9300061FE07D295ED000B51EC100BFEF709FEBE
:10E940000FFA80F80198FEF7E6FD41EC100B082065
:10E95000149900EB04100D1851EC100B95ED001BF1
:10E9600053EC112BFEF72EFE07D295ED000B51EC68
:10E97000100BFEF7EEFD00B201900098FEF7CBFD04
:10E9800095ED001B53EC112BFEF734FE07D295EDED
:10E99000000B51EC100BFEF7DCFD00B20090641C84
:10E9A00024B24C45A4DBDDF800A07BE10024A9F1F2
:10E9B0000105009882457DD100260820149900EBBE
:10E9C000051001EB000B14E00820149900EB061071
:10E9D00008449BED000B90ED001B53EC102B51EC09
:10E9E000110BFEF7EFFD02D00020049003E0761C2F
:10E9F00036B24E45E8DB049828B1ADF80880ADF892
:10EA00000A7002240BE1002650E00821149801EB63
:10EA1000051210440A9090ED000B149801EB0611BA
:10EA200000EB010B53EC102B9BED001B51EC110B79
:10EA3000FEF7C8FD37D05046FEF76DFDCDE9081052
:10EA40009BED001B53EC112BFEF7BCFD0ED114986F
:10EA500000EB061090ED000B51EC100BFEF779FD6A
:10EA6000214602AA641C24B222F81100DDE9081034
:10EA700041EC100B0A9890ED001B51EC100B53EC7D
:10EA8000112BFEF79FFD0ED1149800EB051090EDB1
:10EA9000000B51EC100BFEF75CFD214602AA641C32
:10EAA00024B222F811003546761C36B24E45ACDB56
:10EAB000B5E0FFE70026AFE05046FEF72CFDCDE9BC
:10EAC000061041EC100B0820149900EB061001EB26
:10EAD000000B51EC100B9BED001B53EC112BFEF7C0
:10EAE00089FD11D2DDE9061041EC100B08201499C4
:10EAF00000EB0510084490ED001B51EC100B53EC9B
:10EB0000112BFEF75FFD1AD9DDE9061041EC100B61
:10EB10000820149900EB0510084490ED001B51ECFF
:10EB2000100B53EC112BFEF765FD72D2DDE90610D8
:10EB30009BED001B53EC112BFEF744FD69D8BAF195
:10EB4000000F57D0DDE906109BED001B53EC112B95
:10EB5000FEF738FD4ED00820149900EB051008444C
:10EB6000059090ED000B9FED541B51EC100B53ECF6
:10EB7000112BFEF727FD3DD005989BED008B90ED06
:10EB8000000B53EC182B51EC100BFEF7DDFB41ECA6
:10EB90001A0B149800EB061090ED009B149853ECA0
:10EBA000192B00EB051090ED000B51EC100BFEF74C
:10EBB000CBFB41EC1B0BDDE9061053EC182BFEF7E9
:10EBC000C3FB53EC1B2BFEF7C5FBFEF7C2FCFEF7A5
:10EBD000A2FC53EC1A2BFEF72FFC53EC192BFEF77B
:10EBE00012FBFEF7B6FC214602AA641C24B222F8EE
:10EBF00011000EE0149800EB061090ED000B51ECA4
:10EC0000100BFEF7A6FC214602AA641C24B222F8CF
:10EC100011003546761C36B24E45FFF64DAF00204A
:10EC2000661E10E002AD411C35F9102035F9113097
:10EC30009A4207DD25F8103025F8112018B1401E42
:10EC400000B200E008B2B042ECDB002524E002A9EB
:10EC500031F91500B84221DA05F1010B31F91B2019
:10EC6000424517DD404501DA21F8158031F91B00D6
:10EC7000B84201DD21F81B7031F9156005E05146FD
:10EC8000304635F04BF8761C36B202A830F91B003E
:10EC9000B042F4DAAD1C2DB2A542D8DB0AF1010A6C
:10ECA0000FFA8AFA019882457FF780AE0BB0BDEC6F
:10ECB000088BBDE8FC8F0000000000000000000091
:10ECC0002DE9F84F0025A9464FF48078012400264D
:10ECD0004B4F404619F0AEFE38B1D7F80403204040
:10ECE00018B1404619F09CFE2543640008F1040861
:10ECF0001FFA88F8761C082EEBD34FF4BE7420461A
:10ED000019F098FE38B1204619F08AFE45F000450A
:10ED10003C48D0F80090DFF8F08015F0FF0F14D0D9
:10ED2000012600242E420CD007EB8401D1F81005F7
:10ED3000C0F30420D1F81015C1F3014158F8242084
:10ED400090477600641C082CECD3002D56DA4FF067
:10ED5000000B4FF0FF300090002400252A4F791956
:10ED600011F8500F20F0C00A91F90010491C34D05E
:10ED70004FF00108009908FA0AF818EA010F2CD0A0
:10ED8000860950460DF0C8FF57F820700FB9032EC2
:10ED900023D1032E01D14BEA080B4FEA8A0000F180
:10EDA000A040D0F80007C0F3014018EA090801D0DC
:10EDB000022804D0B8F1000F0FD103280DD1032E83
:10EDC00007D1022813D00221504619F0B3FD641C6C
:10EDD000E4B217B131465046B8476D1C042DBDD37F
:10EDE00054B108480068484503D1002404E00321D9
:10EDF000EAE78146CDF800B0002CADD1BDE8F88F30
:10EE00000060004010050050D49A0020F0B54FF08B
:10EE1000000E4FF0FF0C76466546774608E0C45D6D
:10EE2000744500D9A646644500D2A4467F1CFFB2B3
:10EE30008F42F4D30E4CAEEB0C076079874213DCA3
:10EE4000002008E0115CB14200D90E46A94200D270
:10EE50000D46401CC0B29842F4D3A079874205DD2C
:10EE6000217A701B884201DD0120F0BD0020F0BD39
:10EE7000842E002008B10249C860002070470000BD
:10EE8000642E002000281ED00F4A016811624168DC
:10EE90005162007A82F8280002F1200002F1180184
:10EEA0004378A3F11400087048708870C870087126
:10EEB00048718871C871107050701E3B93700020AB
:10EEC00010719071D0717047642E00202DE9F04FC1
:10EED000FA4F87B002F18006FB7800F1800501F15E
:10EEE0008004032B77D0012B77D0E2B21E21F448A7
:10EEF00010F00EFEF879032871D0012871D0E2B22B
:10EF0000EF481E211E3010F003FEEC48DFF8ACC3C2
:10EF10000078ACF1200C022865D0012866D08CF86E
:10EF20000360E6481038C1790591827904928B1804
:10EF30004279039201798E4611445A18C1780291A0
:10EF40000A44817801910A444178009190F800B018
:10EF5000114401EB0B00DA49C0F3C7004A79CF79BD
:10EF60008E790D799146BB192A44CC781A4413192D
:10EF70008A7892461A444B7802EB03080A7808EB29
:10EF800002019CF80480C1F3C701B8F1FF0F03D25E
:10EF900008F101088CF80480DFF820C3ACF1200CE4
:10EFA0009CF807C0BCF1000F72D0DFF810C3ACF1C1
:10EFB000200C9CF804C0BCF13C0F6AD9DFF8FC823D
:10EFC00098F804C08C4514D2A1EB0C0C13E002E0BD
:10EFD00003E004E005E0F2B288E7EAB286E7F2B2C5
:10EFE0008EE7EAB28CE78CF803409AE78CF803507E
:10EFF00097E7ACEB010CBCF10A0F4ADA8F4201D261
:10F00000CF1B00E07F1A032FF7DA8E4201D28E1B4E
:10F0100000E0761A032EF0DA894502D2A1EB090648
:10F0200001E0A9EB0106032EE7DA8D4201D24D1B68
:10F0300000E06D1A032DE0DA8C4201D20C1B00E0D7
:10F04000641A032C25DA8A4502D2A1EB0A0401E0F6
:10F05000AAEB0104032C1CDA8B4201D2CB1A00E08C
:10F060005B1A032B15DA8A4201D2891A00E0511A81
:10F0700003290EDA98F80110814201D2421A00E009
:10F080000A1A0F2A4DDA059A824203D9121A02E0AF
:10F0900073E0CEE0821A052A43DA049A824201D94B
:10F0A000121A00E0821A052A3BDA039A824201D939
:10F0B000121A00E0821A052A33DA864502D9AEEB2D
:10F0C000000201E0A0EB0E02052A2ADA029A82422F
:10F0D00001D9121A00E0821A052A22DA019A824224
:10F0E00001D9121A00E0821A052A1ADA009A82421D
:10F0F00001D9121A00E0821A052A12DA834502D9D0
:10F10000ABEB000201E0A0EB0B02052A09DA6B4A27
:10F11000203AD278824201D9101A00E0801A0F28D2
:10F1200018DB664A203A50781378984202D9C41AFC
:10F130000F2C0FDC98F80240844204D2984202D986
:10F14000C41A072C06DC9E2864D9984262D9C31AD7
:10F15000022B5FDD5A4A1E231E3219465848FFF71C
:10F1600055FE20B155482038C06800B1804753494A
:10F170000020203908718871C87150490020203959
:10F1800048714E481038A0F110010478CE78B4428E
:10F190006AD343789C4267D88578AB4264D9C278F9
:10F1A000954261D30579AA425ED3C2799A1A022A9E
:10F1B00003DC82799A1A022A56DD404A083A957988
:10F1C000D57192F805C082F806C092F8049082F8D2
:10F1D0000590CA4692F8039082F80490CB4692F8C4
:10F1E000029082F803905778977092F8008082F826
:10F1F000018013700CEB050252445A444A443A44CD
:10F2000042441A440A81121DD2080A704B708A794E
:10F21000DAB142E0782800D97D212848083814392D
:10F22000017041708170C170017141718171C17152
:10F230001170224820384179491CC9B241714B29CB
:10F240009FD90021C17141719BE78A78934224D9EB
:10F250009A1A1D2A05DC194DAD789D421DD2132A3C
:10F260001BDD0122CA7117E0B44216D842789442DD
:10F2700013D383789A4210D8C578AB420DD803795E
:10F280009D420AD8C3799B1A022B03DC83799B1A0F
:10F29000022B02DD8A7000228A718179C171417965
:10F2A000817101794171C17801718178C1704178B2
:10F2B00081704470067007B0BDE8F08F842E002086
:10F2C000C1DF00202DE9FC4106460020019000240A
:10F2D00006F1080301AA10A112A00096FDF754FE42
:10F2E0009DF804009DF80550114A9DF8063012F86B
:10F2F000241088420BD102EB84014F78BD4206D125
:10F3000089788B4203D1641C7460BDE8FC81641C65
:10F31000E4B20C2CEBD3F8E7257320256420256498
:10F32000000000004D61722031372032303137004B
:10F33000A04205002DE9F0410500DDE906603BD063
:10F340001F4C94F8C17004EB4717A7F8C81094F845
:10F35000C11004EB411181F8CA2094F8C11004EBEC
:10F36000411181F8CB3094F8C11004EB411181F8C0
:10F37000CC6094F8C11004EB411181F8CD0094F8F1
:10F38000C110C02004EB411181F8D00094F8C110E5
:10F39000A4F1700004EB4111007981F8D10094F8D8
:10F3A000C10013F0D9FC48B194F8C100294610F00F
:10F3B000CBFC0020BDE8F0810120FBE70220F9E74B
:10F3C000F0C2002070B5010006D0134A01240020CD
:10F3D00092F8C1305B1C0CE0012070BD02EB4015BF
:10F3E00095F8C2601EB195F8C450012D09D0401C9B
:10F3F000C0B28342F2D808B1401EC0B21CB1022094
:10F4000070BD0024F7E702EB4012002382F8C430FD
:10F4100010F09AFC002070BDF0C200203EB50D46F1
:10F4200040F080008DF8040080208DF80500072052
:10F4300019F0A6FA02200246009002AB01A9074883
:10F4400018F0F4FF0446072019F0C2FA0CB10120AD
:10F450003EBD9DF80900287000203EBD60420500B9
:10F460003EB500F07F008DF804008DF805100720F0
:10F4700019F086FA02200246009002AB01A9064864
:10F4800018F0D4FF0446072019F0A2FA0CB10120AD
:10F490003EBD00203EBD0000604205002DE9F04168
:10F4A0000E4F012138460EF053FA63210C4811F03B
:10F4B0007FFA0646022E0CD90024094D103D55F85E
:10F4C000242012B1314606489047641CE4B2042C53
:10F4D000F5D33846BDE8F0410EF0C8BB9DF40100FD
:10F4E000B866002010B50021054A084609F0C6FBA1
:10F4F000002803D0BDE8104009F01EB810BD000080
:10F50000650903002DE9F14FDFF840A483B05046B0
:10F5100000F11805BAF80440BAF80660B0F802B075
:10F5200028886B88E988AA882F89A146B44203D924
:10F53000864201D9984269D8B14503D2864201D2A8
:10F54000984263D3B14503D1864201D198425DD040
:10F55000FE4CB042248815D34E4513D3D94511D360
:10F56000A3450FD304F1020C60450BD9984209D38F
:10F57000934207D38A4205D3B94203D307F1020C61
:10F58000604515D8B04224D84E4522D8D94520D858
:10F59000A3451ED800F1020CA4451AD2984218D8EF
:10F5A000934216D88A4214D8B94212D8BC4510D218
:10F5B000B84202D9A0EB070C01E0A7EB000CBCF1AC
:10F5C0000F0F23DCA04201D9001B00E0201A0F28F6
:10F5D0001CDC994502D9A9EB030001E0A3EB09006B
:10F5E00080B202280ED2934201D99C1A00E0D41AAC
:10F5F000C0F10200844205DD9A4201D9184400E0BE
:10F60000181A68806888304440082880CF4B2888C2
:10F61000183386425B8904D96C88A04201D9944290
:10F620006CD8864204D26C88A04201D2944265D341
:10F63000864204D16C88A04201D194425ED06C888D
:10F64000844215D3B04213D34E4511D3D9450FD3BD
:10F650000BF1020C64450BD9944209D38A4207D3BB
:10F66000B94205D39F4203D303F1020C644515D878
:10F67000844226D8B04224D84E4522D8D94520D835
:10F6800004F1020CDC451CD294421AD88A4218D8E4
:10F69000B94216D89F4214D89C4512D29C4202D936
:10F6A000A4EB030C01E0A3EB040CBCF10F0F25DC71
:10F6B0005C4502D9A4EB0B0401E0ABEB04040F2C76
:10F6C0001CDC964201D9B41A00E0941BA4B2022CAF
:10F6D00010D28A4202D9A2EB010C01E0A1EB020C8C
:10F6E000C4F10204A44505DD914201D9224400E0A1
:10F6F000121BAA80AA88024452086A80934AAE4626
:10F7000018326D889289A84205D9BEF80440A542F6
:10F7100001D98C4279D87446A84205D2B4F804C005
:10F72000654501D28C4570D3A84205D1B4F804C018
:10F73000654501D18C4568D0BEF80440F246AC4224
:10F7400015D3854213D3B04211D34E450FD309F1DF
:10F75000020C64450BD98C4209D3B94207D39F42AE
:10F7600005D3934203D302F1020C644515D8AC4291
:10F7700026D8854224D8B04222D84E4520D804F15C
:10F78000020CCC451CD28C421AD8B94218D89F42E0
:10F7900016D8934214D8944512D2944202D9A4EBBD
:10F7A000020C01E0A2EB040CBCF10F0F2DDC4C4568
:10F7B00002D9A4EB090401E0A9EB04040F2C24DC1A
:10F7C0005446884202D9A0EB010C01E0A1EB000CE9
:10F7D0001FFA8CFCBCF1020F12D2B94202D9A1EB84
:10F7E000070801E0A7EB0108CCF1020CE04507DDBA
:10F7F0008F4202D9614402E007E0A1EB0C01E180F5
:10F80000E18829444908AAF804105049BEF8044088
:10F810000831A542098805D9BEF806C0644501D95A
:10F82000BC457CD8F046A54205D2B8F806C0644570
:10F8300001D2BC4573D3A54205D1B8F806C06445D2
:10F8400001D1BC456BD0BEF806A0A24515D3AC4291
:10F8500013D3854211D3B0420FD306F10208C2453B
:10F860000BD9BA4509D39F4207D3934205D38A42A5
:10F8700003D301F10208C24515D8A24527D8AC42EE
:10F8800025D8854223D8B04221D80AF1020CB445CC
:10F890001DD2BA451BD89F4219D8934217D88A4225
:10F8A00015D88C4513D28A4502D9AAEB010C01E088
:10F8B000A1EB0A0CBCF10F0F31DCB24502D9AAEB67
:10F8C000060C01E0A6EB0A0CBCF10F0F27DCF24698
:10F8D000BD4202D9A5EB070C01E0A7EB050C1FFA0E
:10F8E0008CFCBCF1020F13D29F4202D9A7EB030894
:10F8F00001E0A3EB0708CCF1020CE04508DDBB42B8
:10F9000002D9674402E00AE0A7EB0C07AEF80870E2
:10F91000BAF808C0A4444FEA5C0CAAF806C00B4F22
:10F92000DFF828C018370CF1080CFF88BCF802A0DB
:10F93000BC4207D90CF1100CBCF808C0674501D9CE
:10F940009C4570D8DFF8048002E000008E2E002075
:10F9500008F11808BC4205D2B8F808C0674501D2C2
:10F960009C4576D3BC4205D1B8F808C0674501D1A3
:10F970009C456ED0DFF8B8C3BCF808E0BE4515D38F
:10F98000A74213D3AC4211D385420FD300F1020832
:10F99000C6450BD99E4509D3934207D38A4205D366
:10F9A000514503D30AF1020CE64515D8BE4527D8C8
:10F9B000A74225D8AC4223D8854221D80EF10208AF
:10F9C00080451DD29E451BD8934219D88A4217D82C
:10F9D000514515D8D04513D2D64502D9AEEB0A0C05
:10F9E00001E0AAEB0E0CBCF10F0F32DC864502D908
:10F9F000AEEB000C01E0A0EB0E0CBCF10F0F28DC0D
:10FA0000DFF82CE39C4202D9A4EB030C01E0A3EB4A
:10FA1000040C1FFA8CFCBCF1020F13D2934203D9E1
:10FA2000A3EB020802E014E0A2EB0308CCF1020C05
:10FA3000E04507DD9A4201D9634401E0A3EB0C03E2
:10FA4000AEF80A30BEF80AC0BC444FEA5C0CAEF80F
:10FA500008C0B74BDFF8D8C2ACF1100C1B89BCF85A
:10FA600004C0CDF800C09F4207D9DFF8C4C2BCF87B
:10FA70000AC0634501D9944576D8DFF8B4829F4225
:10FA800005D2B8F80AC0634501D294456CD39F42B1
:10FA900005D1B8F80AC0634501D194457AD0DFF8A2
:10FAA00090C2BCF80AE09E4519D3BB4217D3A742C7
:10FAB00015D3AC4213D305F10208C6450FD99645BC
:10FAC0000DD38A420BD3514509D3DDF80080C245DE
:10FAD00005D3DDF800C00CF1020CE6451BD89E45AD
:10FAE0002FD8BB422DD8A7422BD8AC4229D80EF133
:10FAF000020CCDF804C0AC4523D2964521D88A42E9
:10FB00001FD851451DD8DDF80080C24519D8DDF851
:10FB100004C0C44515D2DDF80080C64502D9AEEB5D
:10FB2000080C01E0A8EB0E0CBCF10F0F32DCAE4567
:10FB300002D9AEEB050C01E0A5EB0E0CBCF10F0FEA
:10FB400028DCDFF8ECE1974202D9A7EB020C01E0D8
:10FB5000A2EB070C1FFA8CFCBCF1020F13D28A42F5
:10FB600003D9A2EB010802E014E0A1EB0208CCF1FA
:10FB7000020CE04507DD914201D9624401E0A2EBAD
:10FB80000C02AEF80C20BEF80CC09C444FEA5C0C92
:10FB9000AEF80AC0664ADFF898C15289ACF1100C81
:10FBA0000292BCF806C0CDF804C0934207D9604A5F
:10FBB000DDF808C09289944501D98A4274D8DDF8ED
:10FBC00008C05B4A634505D2B2F80C80C44501D237
:10FBD00088457ED3634505D1B2F80C80C44501D178
:10FBE000884576D0524AB2F80CE0E6451AD39C45D7
:10FBF00018D3BB4216D3A74214D304F1020CE64536
:10FC000010D98E450ED351450CD3DDF800C0E24526
:10FC100008D36246DDF804C0624503D3019A921C02
:10FC200096451CD8DDF808C0E6452CD89C452AD856
:10FC3000BB4228D8A74226D80EF10202A24222D205
:10FC40008E4520D851451ED8DDF80080C2451AD80F
:10FC5000C446DDF80480C44515D8424513D2DDF80A
:10FC600004C0E64502D9AEEB0C0201E0ACEB0E029B
:10FC70000F2A2EDCA64502D9AEEB040201E0A4EB6C
:10FC80000E020F2A25DCDFF8A8E08B42AEF1100E41
:10FC900001D95A1A00E0CA1A92B2022A12D2514568
:10FCA00003D9A1EB0A0C02E013E0AAEB010CC2F1AC
:10FCB0000202944506DD8A4501D9114400E0891A03
:10FCC000AEF80010BEF800C0029A1949624452080A
:10FCD0008A81174A1649183AA2F800B0A2F8029091
:10FCE0009680D0800D804C808F80CB80029A0A81D4
:10FCF0008A894A81A1F1100213888B81A2F800A0A1
:10FD000000995180019991800399D18002F10801F5
:10FD10004A888A800B884B80088099180844032100
:10FD2000401CB0FBF1F004B080B2BDE8F08F0000E1
:10FD3000A62E002038B500221049114818F0D4FA38
:10FD4000072018F01DFE69461820FFF767FB0446E0
:10FD500044B99DF8000000F07F0100911820FFF7E2
:10FD60007FFB0446072018F033FE054818F06CFBB3
:10FD7000042018F0EDFD204638BD0000902A002038
:10FD80006042050038B500221049114818F0ACFA5D
:10FD9000072018F0F5FD69461820FFF73FFB0446E1
:10FDA00044B99DF8000040F0800100911820FFF751
:10FDB00057FB0446072018F00BFE054818F044FBDB
:10FDC000042018F0C5FD204638BD0000902A002010
:10FDD000604205001CB51049FF20C870072018F0CC
:10FDE00075FD072018F0F4FD00220B490B4818F0B0
:10FDF0007BFAC0B208B101201CBD0620002300938D
:10FE00001A461946019318F0EFFC10F067FE08B18E
:10FE100001201CBD00201CBD902A0020604205006E
:10FE200010B500F0CFFD20B3134A0121134808F0AC
:10FE300099FF08B108F080FB1048002244F6CD413C
:10FE4000006809F015F808B108F076FB00200C4AAC
:10FE5000002142F82010401CC0B20428F9D3094800
:10FE60008170094833F0B6FE08B108F065FB002048
:10FE700010BD012010BD00009DF401005C42050092
:10FE8000A8660020532A0020C50B030010B50C4CB7
:10FE9000A178042901D3012010BD0021094A52F89C
:10FEA00021302BB1491CC9B20429F8D3012010BD5F
:10FEB00042F82100A078401CA070002010BD000076
:10FEC000532A0020A86600202DE9FC410D46164665
:10FED0000024642E17D8B5B140F0800001900720AF
:10FEE00018F04EFD701CC0B200902B46012201A9F3
:10FEF0000A4818F09BFA0746072018F069FD4FB131
:10FF00000120BDE8FC810120FBE728194078285535
:10FF1000641CE4B2B442F8D30020F2E7604205006A
:10FF200010B5FFF72FFF0748002244F6CD410068C7
:10FF300008F09EFF002803D0BDE8104008F0FCBA8E
:10FF400010BD00005C42050010B50548006808F0CF
:10FF5000B5FF08B108F0F0FABDE81040FFF7EABEBF
:10FF60005C42050010B50446002020706070A0704F
:10FF7000E07020716071002219491A4818F0B4F934
:10FF8000072018F0FDFC12F0FDFAF0B1CA21602044
:10FF9000FFF766FA20B100216020FFF761FA14E054
:10FFA00012F0FFFA88B1192017F0D2FC0622214680
:10FFB000104610F061FD20B100216020FFF750FADB
:10FFC00003E000216020FFF74BFA072018F000FD46
:10FFD000044818F039FABDE81040042018F0B8BC05
:10FFE000902A00206042050000F000F88CB0044622
:10FFF000AFF20706002130460DF0AAFC60690090C0
:020000040002F8
:100000000EA2142107A8A36913F075FB07A820F01E
:10001000BFFD0C4D686858B1A06900900AA2142178
:1000200002A8636913F067FB696809B102A88847F1
:1000300030460DF01BFE07F001FB00007025582C28
:10004000255800004C2700204C25582C50255800DE
:1000500010B5064A030C040E9370D4701070000A99
:10006000507003481171437510BD00005D2E0020D3
:10007000A6DF00202DE9F05F4FF0000ADFF8E4B1C1
:10008000A2F89AA0904607465546ABF14604DFF821
:10009000D891C2F800A0DDE037F8156099F80100AA
:1000A00060B170494831887D401CC0B288756E4986
:1000B000491D0979884201D900F0D8F869481E30F5
:1000C00090F82910491C80F829102188B1425FD38B
:1000D000B4F802C061455BD8B44559D9ACEB060110
:1000E000022955DDA1888C4552D3E28891424FD335
:1000F00021898A424CD3ACEB0101022948DD012160
:100100004A4689F8011099F80010491C89F8001036
:1001100099F8021039B382F802A0C07E142801D9E0
:10012000401C00E01520C1B2232900D3232199F8F7
:100130000300814200D901466046022207E000BF69
:1001400034F81230834200D21846521CD2B28A428E
:10015000F6D3ACEB000081B242481E3011F0D6F865
:1001600010B101280ED013E03E48483011F0A8F835
:1001700070B13C484830017D062909D9424611F04A
:10018000B7F905E03749483181F814A081F816A085
:1001900099F80200494690B92288608882420ED8B8
:1001A000A38898420BD8B4F806C0634507D86045C9
:1001B00005D2ACEB0200012801DD012088709BF81C
:1001C0000820584612B18279521C8271C27912B14C
:1001D000012A0ED02BE023886288934227D9A38876
:1001E0009A4224D9E288934221D301228BF8072036
:1001F0001DE023886288934219D2A3889A4216D2BE
:10020000E288934213D880F807A001220272827814
:10021000C2704278827002784270827902700279EC
:100220005346042A01D2521C02718BF80630232057
:1002300004EB4002401E32F8043DC0B25380012856
:10024000F6D82680C878232802D2401C89F80300FB
:100250006D1CADB2B7F88C00A8423FF61DAFBDE8EB
:10026000F09F00005EDF0020582E00200F49002084
:100270000E4A088048808880C8800881488188812B
:100280000B498E320123C87013754B1D9B78537533
:10029000A2F1480390751871487088701E339876E3
:1002A00083F82800087090767047000018DF00205F
:1002B000582E00200149487270470000582A00203B
:1002C0007CB50546284603F083FA19480F2195B1FD
:1002D000322282704FF4FA647F228DF800208DF86C
:1002E00001101E218DF802100A218DF80310FA2149
:1002F0008DF8041011E0192282704FF47A643F22C5
:100300008DF8002007228DF801208DF802100521BC
:100310008DF803107D218DF804108572DDE9000150
:10032000FFF796FE2046BDE87C4012F02FB8000093
:10033000582A00200148807A70470000582A00207F
:1003400010B504F0C5F9022801D9012010BD0D49EE
:10035000088A4A8A801A1B2806DACA8942F6E063AC
:100360009A4201D2002010BDC98941F288329142DF
:1003700001D2002010BD142801DA002010BD012098
:1003800010BD0000582A00203A48C189028A408ADC
:10039000101AB1F5FA5F07D25A2801DA0120704726
:1003A000962865DA0220704742F6F822914207D279
:1003B000782801DA01207047962859DA0220704720
:1003C00043F69822914207D2642801DA012070474F
:1003D0008C284DDA0220704744F62062914207D201
:1003E0005A2801DA01207047822841DA022070473A
:1003F00046F2A812914203D25A2839DA02207047F5
:1004000047F23052914203D2552831DA0220704728
:1004100049F28802914203D2502829DA022070471B
:100420004AF21042914203D2462821DA0220704754
:100430004BF2B032914207D22D2801DA03207047E7
:10044000692815DA022070474CF25032914207D2E7
:100450002D2801DA04207047642809DA0320704748
:10046000322801DA04207047782801DA0320704727
:1004700000207047582A00202DE9FC4701260196EC
:100480000A2017F065FA9F4D00272F70FEF7EAF952
:100490009DF80410084001909DF8040000287DD0CC
:1004A00001232A46194644200096FEF777F99DF865
:1004B0000410084001909DF8040000286FD001202E
:1004C00017F046FA2F704FF0150985F80190AF70BC
:1004D000EF704FF0C60885F80480FEF7C3F99DF869
:1004E00004100840019005232A4609214420009663
:1004F000FEF754F99DF80410084001909DF804009F
:1005000000287DD0012017F023FA0F202870FEF775
:10051000A9F99DF804100840019001232A460D21F5
:1005200044200096FEF73AF99DF804100840019027
:100530009DF8040000287DD0012017F009FA10244E
:100540002C7085F8019085F80290EC7008202871D5
:100550006F714FF0140985F806900420E871FEF7DA
:1005600081F99DF804100840019008232A460A21C9
:1005700044200096FEF712F99DF8041008400190FF
:100580009DF8040000287DD0012017F0E1F9022039
:100590002870402068708020A87001E09BE09CE0FB
:1005A000FEF760F99DF804100840019003232A46E5
:1005B0000B2144200096FEF7F1F89DF80410084046
:1005C00001909DF80400002878D0012017F0C0F9B0
:1005D0000A20287085F801903820A870FEF742F9AB
:1005E0009DF804100840019003232A460C21442062
:1005F0000096FEF7D3F89DF804100840019000E043
:100600006DE09DF80400002873D0012017F0A0F9D8
:100610002C70FEF727F99DF8041008400190012383
:100620002A46092144200096FEF7B8F89DF80410E8
:10063000084000E055E001909DF80400E8B3322442
:10064000012017F085F9641EA4B20A2017F080F982
:100650000196FEF707F99DF80410084001909DF8F7
:10066000040050B10123274A194644200096FEF7A2
:1006700015F89DF80410084001902878400703D52C
:10068000002C00E02FE0DBD19DF8040070B30120C6
:1006900017F05EF92F7055206870AF70EF7085F815
:1006A0000480FEF7DFF89DF8041008400190052350
:1006B0000921144A4420009601E01CE017E0FEF7EF
:1006C0006DF89DF80410084001909DF80400B0B149
:1006D0000020BDE8FC870120FBE70120F9E70220AC
:1006E000F7E70320F5E70420F3E702E005E0052043
:1006F000EFE70620EDE70720EBE70820E9E7092010
:10070000E7E70000B09F002010B500F0E1F80149D4
:10071000087010BD442D002010B510F007FDBDE895
:1007200010400CF057B800002DE9FC41012601965D
:10073000112017F03FFA11F097FF11F0DFFE0028AB
:100740007ED00321112018F0AEF80A2017F000F92E
:10075000574C00252570FEF785F89DF804100840D9
:1007600001909DF8040000286BD001232246194611
:1007700044200096FEF712F89DF8041008400190FE
:100780009DF8040000287DD0012017F0E1F82570C5
:10079000922060701027A770E57002202071FEF78C
:1007A00061F89DF8041008400190052322460921B4
:1007B00044200096FDF7F2FF9DF8041008400190D8
:1007C0009DF8040000286BD0012017F0C1F8FF202D
:1007D00020706070A070E070207165711420A071AD
:1007E0000420E071FEF73EF89DF8041008400190E7
:1007F000082322460A2144200096FDF7CFFF9DF8EA
:100800000410084001909DF80400E0B3012017F0A7
:100810009FF82770302060704020A070FEF722F80B
:100820009DF8041008400190032322460B21442028
:100830000096FDF7B3FF9DF804100840019001E019
:1008400028E029E09DF8040070B3012017F080F83B
:100850002770D2206070A770E5702571FEF702F84E
:100860009DF80410084001900523224609214420E8
:100870000096FDF793FF9DF80410084001909DF845
:10088000040001E00AE00DE080B100F051F8002022
:10089000BDE8FC81FF20FBE70120F9E70120F7E735
:1008A0000220F5E70420F3E70520F1E70220EFE757
:1008B000B09F002010B50324FFF736FF20B1641E5F
:1008C000E4B2F9D2FF2010BD002010BD00F048B8FE
:1008D00038B500200090154C6082A0716071112025
:1008E00017F068F9E07B18B912F056F80120E073B0
:1008F00011F0BAFE11F002FEA0B10321112017F091
:10090000D2FF0224FFF7B8FD0090641EE4B203D3C7
:100910009DF800000028F5D19DF8000020B19DF859
:10092000000038BDFF2038BD002038BD282D002034
:1009300010B5112017F03EF9102017F03BF90F20E9
:1009400017F038F90321112017F0ADFF03210F2014
:1009500017F0A9FF0321BDE81040102017F0A3BF36
:1009600038B50446134A0121134808F0FBF908B1D1
:1009700007F0E2FD17F06EF920B917F041F908B160
:1009800007F0DAFD0D484461112017F013F90A4809
:100990004068009003208DF80100094A6946112043
:1009A00017F0AEF808B107F0C7FD0121112017F0CC
:1009B0004FF838BD491E0400648F0600282D002022
:1009C0001907020003480078002801D00020704772
:1009D000012070478C2A002008B569461820FEF7D0
:1009E0001DFD00280DD19DF8000040F08001009110
:1009F0001820FEF735FD002803D1162016F0A8FFB9
:100A0000002008BD08B569461820FEF707FD00283C
:100A10000DD19DF8000020F0800100911820FEF714
:100A20001FFD002803D1162016F092FF002008BDFC
:100A300008B569461720FEF7F1FC08BD2DE9FC4119
:100A40000446FDF70FFF002602233A4A0121442005
:100A50000096FDF723FEDFF8DC8001234546AA1C43
:100A6000032144200096FDF719FE01273B46EA1CAE
:100A7000022144200097FDF711FE287800F0800045
:100A800001909DF804002C4D58B1287A48B900BF58
:100A90002A4A0021084608F0F1F808B107F04CFD99
:100AA0002F7298F80100687298F80300607098F847
:100AB000020000F00E002070810700D5AE704107E3
:100AC00000D5EE70010700D52E71697A090606D5AA
:100AD000688A40F004006882AF71BDE8FC81697AE1
:100AE000490605D5688A40F002006882AF71F4E7D4
:100AF00010F0060F16D060786E2806D8A770688AA6
:100B000040F010006882AF71E7E7A0F16F01632940
:100B100002D80220A070E0E7D3382C28DDD80420CA
:100B2000A070DAE7000702D50820A070D5E7A6700C
:100B3000D3E70000B09F0020282D0020A1C40300AF
:100B400018B5017801230022002901D0009300E0AC
:100B5000009211490C7C3CB99DF8004024B1C3704F
:100B60009DF80000087418BD0B7C43B19DF800305F
:100B70002BB10222C2709DF80000087418BD0B7CD6
:100B800013B19DF800300BB1C27018BD0322C270C2
:100B90009DF80000087418BD282D00202DE9F843A9
:100BA0000446AFF20708002140460CF0D1FEE07881
:100BB000002650B1DFF8389101274E4D012807D0AB
:100BC000022824D0032802D14DE02671667189E005
:100BD000AE72D9F8000008F071F90090009808B1E1
:100BE00007F0AAFC002240F27B41D9F8000008F08F
:100BF0003FF90090009808B107F09EFC2F736E73C8
:100C0000AE61EE72A660A078607120716AE0E87A49
:100C100020B14046BDE8F8430DF028B86079A178CE
:100C200088421ED1A06801281BD1AF7267750807E2
:100C3000000EA075A660102804D0202807D04028F8
:100C40000AD00DE0688A40F08000688208E0688A77
:100C500040F00100688203E0688A40F48070688296
:100C6000AF7121713EE0D9F8000008F027F900903B
:100C7000009808B107F060FC2E73AE6161792079AD
:100C8000814225D1A97A19BB697B09B16775A07525
:100C9000607DE8B16675A07D012806D0022809D0E4
:100CA00004280CD008280FD012E0688A40F40070A5
:100CB00068820DE0688A40F04000688208E0688A37
:100CC00040F48060688203E0688A40F400406882F3
:100CD000AF71688A40F020006882AE72A66026710B
:100CE0006671AE734046BDE8F8430CF0BFBF00002C
:100CF000648F0600282D002000F01F020121914082
:100D00004009800000F1E020C0F88012704700F038
:100D10001F02012191404009800000F1E020C0F84D
:100D20000011704700F01F0201219140400980002E
:100D300000F1E020C0F8001270474907090E0028B2
:100D400006DA00F00F0000F1E02080F8141D704773
:100D500000F1E02080F800147047000070B5002218
:100D60001749184817F0C0FA162017F019FE13207B
:100D700017F0C4FD4FF480611348FCF7A1F800257B
:100D800005F1B000C0B201F0E5FA002001F0E2FA8E
:100D9000102001F0DFFA0024002001F0A7FB641C02
:100DA000E4B2402CF8D36D1CEDB2102DE8D3162020
:100DB00017F01EFEBDE87040024817F045BB00006A
:100DC000002C0020584605006C81002010B5002240
:100DD0000E490F4817F088FA162017F0E1FD13208E
:100DE00017F08CFDAD2001F0B5FA8A2001F0B2FABF
:100DF000AE2001F0AFFA162017F0FAFD044817F004
:100E000023FBBDE810401A2017F0CABD002C0020BB
:100E10005846050010B51A2017F0EAFD00220D49CA
:100E20000D4817F061FA162017F0BAFD132017F0DD
:100E300065FDAD2001F08EFA8B2001F08BFAAF201A
:100E400001F088FA162017F0D3FDBDE810400248E3
:100E500017F0FABA002C00205846050010B51620ED
:100E600017F045FD162017F0BBFD4A49FF20C8705A
:100E700088700A2016F06CFD1A2017F038FD1A2031
:100E800017F0AEFD322016F063FD142017F02FFD91
:100E9000142017F07DFD322016F05AFD142017F0B3
:100EA0009FFD642016F054FD1A2017F020FD1A2033
:100EB00017F096FD322016F04BFD132017F017FDAA
:100EC000162017F014FD162017F08AFD0022314974
:100ED000314817F009FA162017F05AFD132017F0C1
:100EE00006FDAE2001F036FAA82001F033FA3F20CB
:100EF00001F030FAD52001F02DFA512001F02AFA44
:100F0000C02001F027FAD32001F024FA602001F07C
:100F100021FADC2001F01EFA002001F01BFA20204B
:100F200001F018FA812001F015FA212001F012FADF
:100F3000A02001F00FFAA42001F00CFAA62001F085
:100F400009FAAD2001F006FA8A2001F003FAD9204F
:100F500001F000FA222001F0FDF9DB2001F0FAF99E
:100F6000352001F0F7F9002017F056FEAF2001F010
:100F7000F1F9002017F050FE162017F031FD064859
:100F800017F062FA054832F025FE08B107F0D4FAEE
:100F9000002010BD002C002058460500B18E030033
:100FA00010B5FFF75BFFFFF7D9FE002010BD000072
:100FB00010B5002800D001200549087015F036F85A
:100FC00014F0F2FFBDE81040002017F001BF000050
:100FD000102C002010B51A2017F002FD0022124933
:100FE000124817F081F9162017F0D2FC132017F0E1
:100FF0007EFCAD2001F0AEF98B2001F0ABF9AF2003
:1010000001F0A8F9FF2017F007FE012240F6B831E1
:10101000074803F0FFF9162017F0E2FCBDE8104086
:10102000024817F011BA0000002C002058460500B5
:10103000718E03000FB42DE9F04F9DB08246DDE9BB
:101040002B742898E4301690289800F53D70159080
:10105000289800F5BD601490289800F20C60139059
:10106000289800F6DC001290289800F63C101190A9
:10107000289800F53D601090289800F6C4600F9005
:10108000289841F2B81108440E90289941F2AC40DA
:1010900008440D90289884300C90289841F2F4412F
:1010A00008440B9028980A909DF8A8004FEAD009B0
:1010B0002E9800280DD0F94800780EF01FFE011977
:1010C0002D9881420FD901201DB0BDE8F00F5DF8C9
:1010D00014FBF34800780EF017FE01192D98814299
:1010E00001D90120F0E7002009909DF8A750C5EB39
:1010F000C50000EB400800E29AF800109AF80100E1
:10110000FF2910D0002971D04FF0000B01EB002116
:1011100001AA0220FBF7D5FD394607EB09000DF1C6
:10112000040E1790A6E1A0F13001092925D805FB8E
:1011300001F080B200220A990E18394607EB090027
:10114000DFF860E31C9014E000200EEB811309E04F
:1011500006EB000C04EB000B1CF802C003F80BC0FC
:10116000401CC0B28542F3D808EB020082B2491C91
:10117000C9B21C988842E7D83FE1A0F1800150290C
:101180004ED80C2905D805FB01F080B211990E1834
:1011900024E0A0F18D01142905D805FB01F080B2EF
:1011A00010990E181AE0A0F1A201142905D805FB28
:1011B00001F080B20F990E1810E0A0F1B7011429C8
:1011C00005D805FB01F080B20E990E1806E0CC3868
:1011D000042803D8684380B20D990E1800223946BE
:1011E00007EB0900DFF8BCE21B9015E06BE1002083
:1011F0000EEB811309E006EB000C04EB000B1CF86E
:1012000002C003F80BC0401CC0B28542F3D808EB03
:10121000020082B2491CC9B21B988842E7D8ECE0B0
:10122000A0F1610119292DD8112905D805FB01F07C
:1012300080B213990E1804E07338684380B2129993
:101240000E180022394607EB0900DFF858E21A9021
:1012500014E000200EEB811309E006EB000C04EB18
:10126000000B1CF802C003F80BC0401CC0B2854242
:10127000F3D808EB020082B2491CC9B21A9888421E
:10128000E7D8BAE0A0F14101192937D8012905D8DA
:1012900005FB01F080B216990E180EE0A0F1430193
:1012A000142905D805FB01F080B215990E1804E049
:1012B0005838684380B214990E180022394607EB5B
:1012C0000900DFF8E0E1199014E000200EEB811333
:1012D00009E006EB000C04EB000B1CF802C003F85D
:1012E0000BC0401CC0B28542F3D808EB020082B2AA
:1012F000491CC9B219988842E7D87EE000212D2800
:1013000025D00BDCA0F121000C281FD2DFE800F073
:101310003147393B3D41451E1E434D2940282ED0C3
:101320000CDC3A281FD004DC2E2818D02F280DD131
:1013300037E03B2819D03F2808D118E05E2826D096
:101340005F2830D0602816D07E2816D015210023C3
:1013500006292CD805FB01F00C9A16182CE0012167
:10136000F5E70221F3E70321F1E70421EFE7052187
:10137000EDE70621EBE70721E9E70821E7E7092187
:10138000E5E70A21E3E70B21E1E70C21DFE70D2187
:10139000DDE70E21DBE70F21D9E71021D7E7112187
:1013A000D5E71221D3E71321D1E71421CFE7C81FD6
:1013B000684380B20B9A161807EB09003A4618905A
:1013C00018E00020DFF8DCC00CEB821C0BE01529D4
:1013D00025D006EB000B04EB000E1BF803B00CF855
:1013E0000EB0401CC0B28542F1D808EB030083B2B6
:1013F000521CD2B218989042E3D80AF1020A2E98F1
:10140000A0B1DFF898B09BF800000EF077FC204404
:10141000C4B29BF80000401C8BF8000053E004EBC2
:10142000000E4FF0000B0CF80EB0DAE7DFF870B0EA
:101430009BF800000EF068FC2044C4B29BF800004A
:10144000401C8BF800003EE00020164A02EB81129F
:101450000EEB000304EB000C13F80B3002F80C3019
:10146000401CC0B21028F3D30BF1100B1FFA8BFBFA
:10147000491CC9B217988842E6D82E98A0B1DFF867
:101480001CB09BF800000EF039FC2044C4B29BF85D
:101490000000401C8BF8000013E00000032B00202C
:1014A000022B00206C810020DFF85CB09BF800006C
:1014B0000EF02AFC2044C4B29BF80000401C8BF8BC
:1014C00000000AF1020A2E9848B1104800780EF088
:1014D00015FC01192D9881420BD90120F4E50A4829
:1014E00000780EF011FC01192D98814201D90120DC
:1014F000EAE50998401CC0B20990279909988842EA
:10150000FFF4FAAD0020DFE5022B0020032B0020C2
:101510000FB42DE9F04F8FB0DDE91D531A98E43078
:101520000D901A9800F53D700C901A9800F5BD606A
:101530000B901A9800F20C600A901A9800F6DC00E2
:1015400009901A9800F63C1008901A9800F53D6032
:1015500007901A9800F6C46006901A9841F2B811E4
:10156000084405901A9941F2AC40084404901A9836
:10157000843003901A9841F2F441084402901A987A
:1015800001909DF870004FEAD008002000909DF86F
:101590006F10C1EBC10000EB400665E118980478BC
:1015A000A4F13000092821D8484380B20027019ACD
:1015B0000244DFF8D4E22C4605EB080A13E00020D1
:1015C0000EEB841C09E002EB000903EB000B19F899
:1015D00007900CF80B90401CC0B28142F3D8F01970
:1015E00087B2641CE4B2A245E9D834E1A4F18000DA
:1015F000502847D80C2804D8484380B2089A02449F
:1016000022E0A4F18D00142804D8484380B2079A40
:10161000024419E0A4F1A200142804D8484380B27F
:10162000069A024410E0A4F1B700142804D84843F5
:1016300080B2059A024407E0CC3C042C04D801FB9C
:1016400004F080B2049A02440027DFF83CE22C4602
:1016500005EB080A13E000200EEB841C09E002EB06
:10166000000903EB000B19F807900CF80B90401CD5
:10167000C0B28142F3D8F01987B2641CE4B2A2452B
:10168000E9D8E8E0A4F1610019282AD8112804D883
:10169000484380B20A9A024405E0733C01FB04F01F
:1016A00080B2099A02440027DFF8DCE12C4605EB02
:1016B000080A13E000200EEB841C09E002EB00098D
:1016C00003EB000B19F807900CF80B90401CC0B20C
:1016D0008142F3D8F01987B2641CE4B2A245E9D87C
:1016E000B9E0A4F14100192833D8012804D84843AF
:1016F00080B20D9A02440EE0A4F14300142804D8ED
:10170000484380B20C9A024405E0583C01FB04F0C7
:1017100080B20B9A024400272C46DFF86CE105EBFF
:10172000080A13E000200EEB841C09E002EB00091C
:1017300003EB000B19F807900CF80B90401CC0B29B
:101740008142F3D8F01987B2641CE4B2A245E9D80B
:1017500081E000202D2C25D00BDCA4F121040C2CE1
:101760001FD2DFE804F032483A3C3E42461E1E4497
:101770004E2A402C2FD00CDC3A2C20D004DC2E2C0E
:1017800019D02F2C0DD138E03B2C1AD03F2C08D18A
:1017900019E05E2C27D05F2C31D0602C17D07E2C26
:1017A00017D015204FF0000C06282CD801FB00F2B2
:1017B000039C22442CE00120F4E70220F2E70320FE
:1017C000F0E70420EEE70520ECE70620EAE7072033
:1017D000E8E70820E6E70920E4E70A20E2E70B2033
:1017E000E0E70C20DEE70D20DCE70E20DAE70F2033
:1017F000D8E71020D6E71120D4E71220D2E7132033
:10180000D0E71420CEE7C21F4A4392B2029C224482
:101810002F4605EB08040E941AE00024DFF86890C8
:10182000A24609EB87190BE0152828D002EB040B20
:1018300003EB040E1BF80CB009F80EB0641CE4B204
:10184000A142F1D806EB0C041FFA84FC7F1CFFB206
:101850000E9CBC42E1D81898401C18900C33DBB2A7
:101860000098401CC0B20090199C0098A042FFF460
:1018700095AE0FB00020BDE8F00F5DF814FB03EB50
:10188000040B09F80BA0D9E76C81002038B5054698
:101890000C46402C01D9062038BD132017F0A0F8C3
:1018A0000120FAF7F3FD00210B460091224629465C
:1018B000034816F0BBFD08B1062038BD002038BD36
:1018C000584605000FB42DE9F04F9BB08246DDE984
:1018D00029742698AB301490269800F5D870139090
:1018E000269800F26D201290269800F558701190FD
:1018F000269800F22F401090269800F5A2600F90D5
:10190000269800F5D8600E90269800F507600D9097
:10191000269800F522600C90269863300B9026984C
:1019200000F671200A90269809909DF8A0004FEAD1
:10193000D0092C9800280DD0FE4800780EF0DEF972
:1019400001192B9881420FD901201BB0BDE8F00F7F
:101950005DF814FBF84800780EF0D6F901192B98C1
:10196000814201D90120F0E7002008909DF89F50A6
:1019700005EB4508F5E19AF800109AF80100FF29F7
:101980000FD0002970D04FF0000B01EB00216A4608
:101990000220FBF796F9394607EB0900EE46159051
:1019A0009CE1A0F13001092925D805FB01F080B2A6
:1019B000002209990E18394607EB0900DFF87CE38D
:1019C0001A9014E000200EEB811309E006EB000CE6
:1019D00004EB000B1CF802C003F80BC0401CC0B2A3
:1019E0008542F3D802EBC80082B2491CC9B21A98EA
:1019F0008842E7D835E1A0F1800150294ED88028EF
:101A000009D0A0F1810117290BD805FB01F080B2A4
:101A10000F990E1820E005FB01F080B210990E1806
:101A20001AE0A0F19901172905D805FB01F080B251
:101A30000E990E1810E0A0F1B101172905D805FB89
:101A400001F080B20D990E1806E0C938072803D8B6
:101A5000684380B20C990E180022394607EB090042
:101A6000DFF8D8E2199015E05AE100200EEB81135F
:101A700009E006EB000C04EB000B1CF802C003F8B5
:101A80000BC0401CC0B28542F3D802EBC80082B242
:101A9000491CC9B219988842E7D8E2E0A0F1610177
:101AA00019292DD8022905D805FB01F080B2129919
:101AB0000E1804E06438684380B211990E180022B1
:101AC000394607EB0900DFF874E2189014E00020B3
:101AD0000EEB811309E006EB000C04EB000B1CF885
:101AE00002C003F80BC0401CC0B28542F3D802EB21
:101AF000C80082B2491CC9B218988842E7D8B0E041
:101B0000A0F1410119292DD8042905D805FB01F0C0
:101B100080B214990E1804E04638684380B21399D5
:101B20000E180022394607EB0900DFF810E2179083
:101B300014E000200EEB811309E006EB000C04EB2F
:101B4000000B1CF802C003F80BC0401CC0B2854259
:101B5000F3D802EBC80082B2491CC9B21798884278
:101B6000E7D87EE000212D2825D00BDCA0F1210054
:101B70000C281FD2DFE800F03147393B3D41451EBC
:101B80001E434D2940282ED00CDC3A281FD004DCFF
:101B90002E2818D02F280DD137E03B2819D03F2808
:101BA00008D118E05E2826D05F2830D0602816D0F3
:101BB0007E2816D01521002306292CD805FB01F01C
:101BC0000B9A16182CE00121F5E70221F3E7032117
:101BD000F1E70421EFE70521EDE70621EBE7072117
:101BE000E9E70821E7E70921E5E70A21E3E70B2117
:101BF000E1E70C21DFE70D21DDE70E21DBE70F2117
:101C0000D9E71021D7E71121D5E71221D3E7132116
:101C1000D1E71421CFE7C81F684380B20A9A16188B
:101C200007EB09003A46169018E00020DFF80CC1D7
:101C30000CEB821C0BE0152925D006EB000B04EB06
:101C4000000E1BF803B00CF80EB0401CC0B2854269
:101C5000F1D803EBC80083B2521CD2B2169890425E
:101C6000E3D80AF1020A2C98A0B1DFF8C8B09BF8BB
:101C700000000EF043F82044C4B29BF80000401C62
:101C80008BF800004CE004EB000E4FF0000B0CF85A
:101C90000EB0DAE7DFF8A0B09BF800000EF034F8E1
:101CA0002044C4B29BF80000401C8BF8000037E0D1
:101CB0000020224A02EB81120EEB000304EB000C21
:101CC00013F80B3002F80C30401CC0B21028F3D3CC
:101CD0000BF1100B1FFA8BFB491CC9B215988842F7
:101CE000E6D82C9868B1DFF84CB09BF800000EF0F5
:101CF00005F82044C4B29BF80000401C8BF800009B
:101D00000CE0DFF834B09BF800000DF0FDFF20443C
:101D1000C4B29BF80000401C8BF800000AF1020AD4
:101D20002C9880B1034800780DF0E8FF01192B983A
:101D3000814205E0032B0020022B00206C81002053
:101D40000BD9012001E60A4800780DF0DDFF0119EA
:101D50002B98814201D90120F7E50898401CC0B2B8
:101D60000890259908988842FFF405AE0020ECE51C
:101D7000022B00200FB42DE9F04F91B0DDE91F26B2
:101D80001C99AB310C911C9901F5D8710B911C99E0
:101D900001F26D210A911C9901F5587109911C9964
:101DA00001F22F4108911C9901F5A26107911C993C
