:0200000270008C
:10A00000807F002031DB070059DB07005BDB0700A6
:10A010005DDB07005FDB070061DB0700000000007D
:10A02000000000000000000000000000E1C7070081
:10A0300065DB07000000000067DB070069DB070045
:10A040006BDB07006BDB07006BDB07006BDB0700DC
:10A050006BDB07006BDB07006BDB07006BDB0700CC
:10A060006BDB07006BDB07006BDB07006BDB0700BC
:10A070006BDB07006BDB07006BDB07006BDB0700AC
:10A080006BDB0700C1A807006BDB07006BDB070079
:10A090007DA907006BDB07009DDA07006BDB07007B
:10A0A0006BDB07006BDB07006BDB07006BDB07007C
:10A0B0006BDB07006BDB0700000000000000000006
:10A0C0006BDB07006BDB07006BDB07006BDB07005C
:10A0D0006BDB07006BDB07006BDB07000000000099
:10A0E0000000000000000000000000000000000070
:10A0F0000000000000000000000000000000000060
:10A10000000000000000000000000000000000004F
:10A11000000000000000000000000000000000003F
:10A4000010B5054C237833B9044B13B10448AFF3AE
:10A4100000800123237010BD782C00200000000074
:10A42000F0DB07000C4B43B10C480D4910B5AFF3FE
:10A4300000800C48036823B910BD0A48036833B98B
:10A440007047094B002BF7D0BDE810401847064B6A
:10A45000002BF5D0184700BF00000000F0DB07001C
:10A460007C2C0020742C002000000000154B002BD9
:10A4700008BF134B9D46A3F5803A00218B460F463B
:10A480001348144A121A00F063F80F4B002B00D047
:10A4900098470E4B002B00D0984700200021040065
:10A4A0000D000D48002802D00C48AFF3008000F0EA
:10A4B0002BF82000290002F021FA00F011F800BF6B
:10A4C00000000800807F0020000000000000000065
:10A4D000782C00206C3400200000000000000000F8
:10A4E00008B5074B044613B10021AFF30080054BBC
:10A4F0001868836A03B19847204600F031F800BF1E
:10A5000000000000C8DB070070B50D4E0D4CA41B09
:10A51000A4100025A54209D10B4E0C4C03F048FBBA
:10A52000A41BA4100025A54205D170BD56F8253006
:10A5300098470135EEE756F8253098470135F2E7A0
:10A540006C2C00206C2C00206C2C0020702C002027
:10A5500002440346934200D1704703F8011BF9E718
:10A56000FEE700BF1FB50021039001AA44F20100DD
:10A57000ADF80410029100F003F805B05DF804FB9B
:10A58000BFF34F8F0549064BCA6802F4E0621343DC
:10A59000CB60BFF34F8F00BFFDE700BF00ED00E0D1
:10A5A0000400FA0512F0030310B511D1094C226022
:10A5B0004C1CE400A4B22244074C2260074A1370EA
:10A5C000074A1370074A1080074A1180184610BDC9
:10A5D000072010BD9C2C0020982C0020942C0020DB
:10A5E000A42C0020A02C0020A22C00202DE9F34751
:10A5F0002B4D2B888B4206460C4617464BD302A8A0
:10A600004FF0000800F8018D00F0CEFC254B264AE3
:10A6100018781178CBB2254909888B4238BF0133AD
:10A62000C0B238BF5FFA83F840452ED092F8008060
:10A630001378DBB2994286BF0133DBB2002313707B
:10A640009DF8070000F0D4FC4FF6FF73984524D026
:10A65000DFF860A0DAF800304FEAC80903EB09021E
:10A6600043F83870A6B19CB1114B28881B6822466C
:10A6700008FB0030314603F088FADAF800304B442A
:10A6800000209C8002B0BDE8F0874FF6FF78D7E746
:10A6900000209080F6E70920F4E70420F2E700BFED
:10A6A000A02C0020A42C0020942C0020A22C002000
:10A6B000982C00209C2C0020F8B5124C124E2546F8
:10A6C000227833789A421CD010492278237809885E
:10A6D0000F48DBB2994286BF0133DBB200232B70F7
:10A6E0000C4B07881B680C48D2B211B203EBC10EA9
:10A6F000006853F83130BEF8041002FB0700984799
:10A70000DEE7F8BDA42C0020942C0020A22C002011
:10A71000A02C00209C2C0020982C0020494B4FF4AA
:10A720000032C3F8802003F1C04303F53C534FF4DB
:10A730008032C3F848230121C3F808232F2259602F
:10A740001046013800BF00BF00BF00BF00BF00BF00
:10A7500000BF00BF00BF00BF00BF00BF00BF00BF01
:10A7600000BF00BF00BF00BF00BF00BF00BF00BFF1
:10A7700000BF00BF00BF00BF00BF00BF00BF00BFE1
:10A7800000BF00BF00BF00BF00BF00BF00BF00BFD1
:10A7900000BF00BF00BF00BF00BF00BF00BF00BFC1
:10A7A00000BF00BF00BF00BF00BF00BF00BF00BFB1
:10A7B00000BF00BF00BF00BFC3D199602249002382
:10A7C0000B601046013800BF00BF00BF00BF00BFD4
:10A7D00000BF00BF00BF00BF00BF00BF00BF00BF81
:10A7E00000BF00BF00BF00BF00BF00BF00BF00BF71
:10A7F00000BF00BF00BF00BF00BF00BF00BF00BF61
:10A8000000BF00BF00BF00BF00BF00BF00BF00BF50
:10A8100000BF00BF00BF00BF00BF00BF00BF00BF40
:10A8200000BF00BF00BF00BF00BF00BF00BF00BF30
:10A8300000BF00BF00BF00BF00BFC3D1034A1370F9
:10A84000704700BF00E100E0BC2C0020AD2C0020D0
:10A85000437882780133DBB29A4208BF0023027842
:10A860009A421FBF0B704378406803EB430314BF49
:10A8700000EBC30000207047EFF30583C3F3080328
:10A88000BBB1103B5AB2002AABBF02F1604303F0E8
:10A890000F0303F56143094AACBF93F80033D35C5F
:10A8A0005B09DBB2022B06D0062B0CBF0120022075
:10A8B0007047022070470020704700BF14ED00E091
:10A8C0002DE9F0412549264B0025C1F84051C1F83A
:10A8D0004451C1F84851C1F84C51C1F80051C1F878
:10A8E00004511B68002B31D0D1F804451D49DFF815
:10A8F00088800968641A24F07F442F461A68A242AF
:10A900000FD8A41A15441A7CDE694AB1D8F8002081
:10A910001F74FAB199695869904708B1FFF722FE90
:10A92000B6B9114B114A197813788B4205D101330E
:10A93000DBB2022B08BF0023137012780C4B43F8D4
:10A9400022500C4B4FF48012C3F80021BDE8F08177
:10A950003346D3E75A6998699047E1E70010014010
:10A96000C42C0020BC2C0020B82C0020B92C0020C6
:10A97000B02C002000E100E0A82C00202DE9F04FD1
:10A980009449954A95480B68007885B001931378EF
:10A99000984200F01B810133DBB2022B08BF002379
:10A9A000137012788E4B53F82200019B034423F05E
:10A9B0007F430B604FF0010B8A4BD1F800E01B681E
:10A9C0000293894B93F80080884B1B680093884B57
:10A9D000002193F800C0029B039144460D46013CC0
:10A9E000E4B2FF2C40F00C817E4A05B11360039B5A
:10A9F00013B1784BC3F800E011B17D4B83F800C070
:10AA00001368BBF1000F40F036810299B3EB010BE4
:10AA100018BF4FF0010B0024754BD2F800C01B7813
:10AA200001936C4B02930027D3F800A06246BE4608
:10AA300008F1FF335FFA83F8B8F1FF0F40F03F8170
:10AA4000684B07B11A601B689C4503D1BBF1000F2E
:10AA500000F0B680002B00F09C811F68654A029BC5
:10AA6000D2F804451B68644DE11A287821F07F4133
:10AA7000033100284BD14FF48030C2F84403C2F8B0
:10AA800004035E484FF40036C0F88061066001267A
:10AA900016602F20013800BF00BF00BF00BF00BFFD
:10AAA00000BF00BF00BF00BF00BF00BF00BF00BFAE
:10AAB00000BF00BF00BF00BF00BF00BF00BF00BF9E
:10AAC00000BF00BF00BF00BF00BF00BF00BF00BF8E
:10AAD00000BF00BF00BF00BF00BF00BF00BF00BF7E
:10AAE00000BF00BF00BF00BF00BF00BF00BF00BF6E
:10AAF00000BF00BF00BF00BF00BF00BF00BF00BF5E
:10AB000000BF00BF00BF00BF00BFC3D12E708F4287
:10AB10002CBFDB195B1823F07F43C2F84035D2F815
:10AB20000415091B21F07F411B1B033123F07F43D8
:10AB3000994245D9D2F80435C2F840352F20013862
:10AB400000BF00BF00BF00BF00BF00BF00BF00BF0D
:10AB500000BF00BF00BF00BF00BF00BF00BF00BFFD
:10AB600000BF00BF00BF00BF00BF00BF00BF00BFED
:10AB700000BF00BF00BF00BF00BF00BF00BF00BFDD
:10AB800000BF00BF00BF00BF00BF00BF00BF00BFCD
:10AB900000BF00BF00BF00BF00BF00BF00BF00BFBD
:10ABA00000BF00BF00BF00BF00BF00BF00BF00BFAD
:10ABB00000BF00BFC3D1114B4FF40032C3F80021D6
:10ABC0000B4B00221A7005B0BDE8F08F00208346C1
:10ABD000F2E600BFBC2C0020B82C0020B92C0020CD
:10ABE000B02C0020C42C0020C02C0020C82C002039
:10ABF000AC2C002000100140AD2C002000E100E052
:10AC000022B2009E009F06EBC20617F8322077782A
:10AC100097423FF4E4AE776802EB420907EBC90ABA
:10AC20000132B778D2B2974208BF0022776817F88E
:10AC30003970022F09D0032FE9D1002BE7D04FF054
:10AC400000051D74DB690125F7E7DAF804901F465B
:10AC50009A46BAF1000FDAD0D14500F09D805746F0
:10AC6000DAF81CA0F5E7584901258D60AC46294665
:10AC700003959E4697E000210C460E460F4623B9E9
:10AC800000293FF4C9AE1360C6E61D68854204D9A9
:10AC900001B11360281A1860BEE6401B2E44DD681F
:10ACA0001F60D3F81CE03DB10199DC61314421F013
:10ACB0007F4159609D601C4673465946DFE7009B03
:10ACC00003EBC8052CBB2B78697899423FF4B0AEF2
:10ACD00003EB430695F8029068680133DBB29945AF
:10ACE0002B7008BF2C7010F83630012B00EBC6011A
:10ACF000E9D14B68187C0028E5D18E685E60CE688B
:10AD00009E600E69DE6049699961019919B15860C8
:10AD100001E02346E46959682C4EA1EB0A0020F0BB
:10AD20007F40B0429E6815D8304418604FF0010152
:10AD3000C3F804E0C3F808E01974C3F81CE032B1AA
:10AD400018681168884218D8081A1060DA611A4623
:10AD50000127B7E7AAEB010121F07F41B1423ABFD9
:10AD6000711A1960C3F800E0E0E7801BCE698946DC
:10AD70006EB91860DE61CB61A4E7914611460E689A
:10AD80008642F2D3361A0E600E464946F1E7314646
:10AD9000F5E7FFF7C3FC13E7B94504D1DB69002BE6
:10ADA0003FF461AF0125D9F800A0D9F81C90C7F88D
:10ADB0001C90B9F1000F3FF42AAFD9F80070574446
:10ADC000C9F8007023E700BF00100140FEFF7F00BC
:10ADD0002DE9F84312F003050746884614469946C4
:10ADE00002D11E4E1AB932600720BDE8F883FFF782
:10ADF00095FC1B4A1B4BC2F8009003221A7034606A
:10AE000004F1180208EB4806F6001146626025704E
:10AE1000657084F8028008348C423244F6D1124ABC
:10AE2000124B1560124A1570124AC02115704FF46A
:10AE30008012C3F8802183F814131A6002F1804253
:10AE4000A2F56F220020C2F8087583F811130A4B8F
:10AE5000D2F804251A60BDE8F88300BFC82C002092
:10AE6000A82C0020C02C0020C42C002000E100E011
:10AE7000B82C0020B92C0020BC2C0020074B1B68EC
:10AE80004BB132B128B10368187C20B959745A61AA
:10AE90007047072070470820704700BFC82C00206B
:10AEA0002DE9F3411B4B1C6805460E4617467CB343
:10AEB00070B304292AD9436953B3437C012B0CBFD7
:10AEC00088464FF00008FFF7D7FC04EBC0040DF1F3
:10AED00007012046FFF7BCFCB0B1012303700E4B05
:10AEE0004560D3F8043583609DF80730C660C0F82C
:10AEF000108047616370094B4FF48012C3F8002142
:10AF0000002002B0BDE8F0810420FAE70720F8E74E
:10AF10000820F6E7C82C00200010014000E100E006
:10AF200073B5124B1D680646F5B1E8B14369DBB154
:10AF300000240474FFF7A0FC05EBC0050DF1070128
:10AF40002846FFF785FC68B1022303709DF807309F
:10AF500046606B70064B4FF48012C3F80021204608
:10AF600002B070BD0420FBE70820F9E7C82C0020E0
:10AF700000E100E0082910B5044602D00020FFF7E8
:10AF8000F1FA23686068BDE81040184707B5054A24
:10AF90008DE8030008216846FFF728FB03B05DF841
:10AFA00004FB00BF75AF070070B5EFF3108672B6F3
:10AFB0000C4A946801239CB993600B4B0B4DD3F85A
:10AFC000801029401160C3F88050D3F8841051607C
:10AFD0004FF0FF32C3F88420047006B962B670BD2A
:10AFE0000370FAE76034002000E100E0FC06FFBCDB
:10AFF00010B5084B9A685AB150B9EFF3108272B687
:10B0000005491C680C605C684C60986002B962B6C7
:10B0100010BD00BF6034002000E100E048DF704751
:10B0200011DF704713DF7047064B1878012803D1F2
:10B03000012904BF0221197012B11046FFF792BA1C
:10B04000704700BFD42C002010B5064CFFF7E6FF78
:10B0500008B1FFF787FAFFF72FFB2378023B022B9B
:10B06000F4D810BDD42C002008B51C21084801F0EC
:10B0700083FB08B1FFF776FA00231C220549044838
:10B0800001F06AFB18B1BDE80840FFF76BBA08BDD4
:10B09000CC2C0020D82C002007B50368013303D145
:10B0A000002003B05DF804FB01A800F03BF9019B10
:10B0B0001A78012AF4D1588830B1996843F208030C
:10B0C0000022186800F052F9019B5B881B1A584255
:10B0D0005841E6E784B02DE9F34108AC84E80F005D
:10B0E0009DF82040BDF82280099F0A9E0B9D01A873
:10B0F00000F018F954B9354B0122FF21A3F8028062
:10B100009D601A701971324B1A7012E0012C17D120
:10B110002E4BBA192A449A60A5221A70FF221A717E
:10B120000C9AA3F80280DF601E615D619A61284B72
:10B130001C70FFF799FF02B0BDE8F04104B0704702
:10B14000032C0ED1019A214B117819705188926805
:10B150009A60AA2259801A71DF601E615D61012226
:10B16000D1E7022C16D1019A184B1178A5290BD1E1
:10B1700000225A809A60FF221A70FF221A71002260
:10B18000DA601A615A61EAE7197051889268598049
:10B190009A60F2E7052C08D100F090FF08B1FFF7A4
:10B1A000E1F903220A4B1A70C5E7042C09D1074BB9
:10B1B00000229A605A80FF221A70019A12791A713D
:10B1C000B7E7062CB7D10422ECE700BFD82C00204B
:10B1D000D42C00201FB5002302930393074B019347
:10B1E00001F082FA30B906494FF4FE2301A84B6002
:10B1F00001F09EFA05B05DF804FB00BF29B007001E
:10B20000CC2C002010B500F0EBF9044620B900F07A
:10B210008BFE0446FFF718FF204610BD10B5FFF760
:10B22000FFFE08B1FFF79EF90D4A106800230124C4
:10B2300004FA03F1014203F1010318BFC2F88010C0
:10B24000202BF5D143F208042068FFF7EBFE08B18C
:10B25000FFF788F92068BDE8104000F069B800BF2A
:10B2600000E100E007B501A800F05CF8019B1A7846
:10B27000A52A07D01879A0F1AA035842584103B073
:10B280005DF804FB0120FAE710B500F098FB98B1D7
:10B29000642001F015F900F015FB08B1FFF762F921
:10B2A00000F08DFB08B1FFF75DF900F051FB04469B
:10B2B00038B1FFF757F904E000F064FB04460028BA
:10B2C000E6D1204610BD10B588B003AC1422002191
:10B2D0002046FFF73DF902238DF80C300023009340
:10B2E00094E80F00FFF7F6FEFFF7AEFE002008B06F
:10B2F00010BD13B5044601A800F014F8019B1A789C
:10B3000022705A8862809A68A2601A792271DA687B
:10B31000E2601A6922615A6962619B69A36102B0A5
:10B3200010BD0000014B0360704700BF00F0070034
:10B33000F0B50346186880F308885868FF2464B2A3
:10B34000EFF30585002D01D1A646004725460646A8
:10B3500021273FBAF0B40024002500260027F0B4CE
:10B36000F92040B2004700BFF0BD00BF2AB11388EA
:10B370000144884204D1184670474FF6FF73F7E73F
:10B3800010F8012B5BBA9BB25340C3F30312534036
:10B3900083EA03331BB25A0102F4FF5253409BB2BB
:10B3A000E7E718DF704700000129F8B50D4614469D
:10B3B0001F4607D0032912D014B32046BDE8F84039
:10B3C000FFF7D0B80F4B1B78052BF5D10E4B1B6840
:10B3D000002BF1D03A46214604209847ECE7094E6D
:10B3E0003378022BE8D1094B5B689847064B3570E0
:10B3F0001E68002EE0D03A4621462846B047DBE7DB
:10B40000F8BD00BFFC2C0020F42C0020202D0020D3
:10B4100000B5084B89B001221A7005238DF80C3055
:10B42000079B009303AB0FCBFFF754FE09B05DF809
:10B4300004FB00BFFD2C002000B589B003238DF86C
:10B440000C300A4B1B88ADF80E30094B5A68049239
:10B450009A68DB680693079B0093059203AB0FCBBA
:10B46000FFF738FE002009B05DF804FB2C2D00200A
:10B47000782D002000B589B001238DF80C300B4BDE
:10B480001B88ADF80E3043F208031A68084B596860
:10B4900004919968DB6806930591009203AB0FCB8A
:10B4A000FFF718FE002009B05DF804FB2C2D0020EA
:10B4B000782D002010B588B003AC1422002120465E
:10B4C000FFF746F804238DF80C300023009394E82E
:10B4D0000F00FFF7FFFD08B010BD000030B589B0C8
:10B4E00003AC142200212046FFF732F8094B1B88D9
:10B4F000ADF80E30084BDB6806930025079B8DF8EE
:10B500000C50009394E80F00FFF7E4FD284609B0C3
:10B5100030BD00BF2C2D0020782D002008B5084B31
:10B5200008481860084B02221A70084B196801F08D
:10B5300023F918B1BDE80840FFF714B808BD00BFF3
:10B54000902D0020882D0020FC2C0020302D002084
:10B5500010B50B4B1B788BB90A48FFF7E1FC08B11B
:10B56000FFF700F800224FF470210648FFF798FC1F
:10B57000044608B1FEF7F6FF204610BD0824FBE79D
:10B58000FD2C0020002D00207FB505460C469608B6
:10B59000032168468DE8220002940396FFF701FF1D
:10B5A000D8B1B4F5805F11D8012368468DE8280032
:10B5B00002940396FFF7F5FE78B9032368468DE8F9
:10B5C000280002940396FFF7ECFE06E01A46E11A03
:10B5D000E81AFFF7D9FF0028E6D004B070BD0000DC
:10B5E000F0B585B0174B0193174B184F184E002438
:10B5F0001C70184B0294394601A803941C8001F07A
:10B6000097F8054618B13470284605B0F0BD43F2EE
:10B61000080301461B68104A10487B60FFF72EFCA8
:10B6200008B1FEF79FFF00224FF470210C48FFF78E
:10B6300037FC08B1FEF796FF0A4B00221A6001237F
:10B640003370E1E7A9B30700742D0020882D002096
:10B65000FC2C00202C2D002011B40700CCDB0700AF
:10B66000002D0020F82C0020014B1860704700BF0F
:10B67000F42C002070B54368204C0FCB84E80F00F9
:10B680002278510701D5930731D163689E072ED1E7
:10B69000A1688D072BD1E068840728D10B44184E90
:10B6A0000344B1F5A04F336023D843F20801096881
:10B6B000C1F5F4218B421CD8124D134B2B60D107DE
:10B6C000124B6B600ED5124BAB60124B1B78012BEB
:10B6D00011D1FFF73DFF044610B92B683068984739
:10B6E000204670BD93074CBF0B4B0C4BECE7062478
:10B6F000F6E70C24F4E70824F2E700BF782D0020D9
:10B70000302D0020202D00201DB50700B5B4070006
:10B7100075B40700FC2C002039B40700DDB4070025
:10B72000F8B5064638B383689B0726D1154B1B78BE
:10B73000052B24D1144D4468144F2B683A68A4009B
:10B740002344934204D94FF0FF332B600C20F8BD03
:10B75000FFF7FEFEA0B90E482B68B16800682246CC
:10B7600000F0FAFF60B92B681C443B682C609C42D7
:10B7700018BF0920F8BD0E20F8BD1020F8BD082024
:10B78000F8BD00BFFC2C0020F82C0020302D00203C
:10B79000902D002070B50A4B1D6875B9094E33789D
:10B7A000042B0AD1084C0948217800F035F910B96A
:10B7B0000523337070BD257070BD082070BD00BFBB
:10B7C000F82C0020FC2C0020742D0020342D0020AB
:10B7D000F8B5134B1A78032A074603D0042A03D07E
:10B7E000082419E004221A700E4B1B68002BF7D1B5
:10B7F000FFF7AEFE044678B90B4E7D683378AD0096
:10B80000EA18402A0AD80948B9682A46184402F0BA
:10B81000BCF933781D4435702046F8BD0924FBE798
:10B82000FC2C0020F82C0020742D0020342D00204A
:10B8300038B50D4C2378052B14D10C4B0C4D1A68E0
:10B840002B689A420ED106232370FFF781FE50B970
:10B85000084B29681B68586800F01EF918B90723BF
:10B86000237038BD082038BDFC2C0020F82C0020A7
:10B87000302D0020902D002010B5084B1B78072B91
:10B880000AD10748FFF74CFB08B1FEF76BFE054BEA
:10B89000BDE810409B681847082010BDFC2C002014
:10B8A000002D0020202D002000B589B006238DF842
:10B8B0000C30079B009303AB0FCBFFF70BFC09B0D9
:10B8C0005DF804FB30B58DB005A8FFF712FD089AAE
:10B8D000002A3BD00B9C02F58053A3422AD943F2A5
:10B8E0000800A4F58051006882424FEA510309D84C
:10B8F00021F00100121A00F580512044FFF744FEA8
:10B900000DB030BD03F5805001250290039001A8D1
:10B9100001950495FFF745FD0028F1D14FF48050C3
:10B920000290039001A801950495FFF73AFD0028C5
:10B93000E6D1DDE70123019392084FF4805301A87B
:10B94000029403930492FFF72CFDD9E71046D7E742
:10B9500000B58DB005A8FFF7CCFC099860B1089B35
:10B960006BB943F208031B6802938008002203901E
:10B9700001A80192FFF715FD0DB05DF804FB0B9ACD
:10B980001344F1E700B58DB005A8FFF7B2FC0998A4
:10B9900078B1089B83B943F208031B680393032221
:10B9A0008008019204904FF4F42201A80292FFF75C
:10B9B000F8FC0DB05DF804FB0B9A1344EEE730B5CC
:10B9C0008DB005A8FFF795FC0898A0B10B9C00F579
:10B9D0008053A34211D943F208031B68984218D838
:10B9E000A4F5805323F00105421B5B0805F5805147
:10B9F0006019FFF7C9FD0DB030BD03238008019326
:10BA000004904FF4805301A802930394FFF7C9FCFC
:10BA1000F1E70E20EFE700000B2970B5044635D999
:10BA20000389053300EB43030144CA1AD2B2012A49
:10BA30002CD98B422AD81946154802F0A6F8154B86
:10BA40001A884FF6FF718A4202D02188914210D1A4
:10BA50005B884FF6FF72934202D062889A4208D107
:10BA6000218900230A344FF6FE7043F20C058B4205
:10BA700001D30B2070BD34F8022B824204D02E88F3
:10BA8000B24203F10103F2D1002070BD092070BD64
:10BA9000942D00208010001008B50022FFF766FCEE
:10BAA000044A5178137843EA0123984214BF0B20CB
:10BAB000002008BD942D00200068704770DF70479B
:10BAC00071DF704773DF704774DF704776DF704750
:10BAD0007ADF70477CDF70477FDF704786DF704713
:10BAE000A7DF7047A8DF7047A9DF7047AADF70475C
:10BAF00067DF70470C2813D8DFE800F01412121229
:10BB0000121209120712120D0B00022070470320B7
:10BB100070470420704704290CBF05200620704799
:10BB20000620704701207047FEF71CBD10B5044683
:10BB300008460321FFF7DEFF03210246204601F0FD
:10BB4000DDFC18B1BDE81040FEF70CBD10BD0000D3
:10BB500010B5124B90B09B798DF80630044641F237
:10BB600030530021382202A8ADF80430FEF7F0FC73
:10BB700002238DF8083001230021ADF8103002A80F
:10BB800001AB8DF80A108DF80B40059301F0AEF96A
:10BB900008B1FEF7E7FC10B010BD00BFF82D002083
:10BBA000032810B50B46144620D0042825D169B1CE
:10BBB000124B18884FF6FF7398421ED01321FFF7DF
:10BBC00085FFD0B1BDE81040FEF7CCBC104600F0B8
:10BBD00007FC08B1FEF7C6FC094B1B689C420CD160
:10BBE00001220321074801F089FCEAE701211846F8
:10BBF000FFF780FF01210246F4E710BD602C002012
:10BC0000402E0020F82D00202DE9F0472E4B1E7805
:10BC10008AB09A46002E4AD12C4C18223146204632
:10BC2000FEF796FC2A4B1D78002D43D0DFF8A48048
:10BC30001022314602A808F10709FEF789FC1022FC
:10BC400002A9484601F092FF0127054648B90520A0
:10BC5000FFF77EFF2770C4F8048025722582658275
:10BC600016E001AB04200693CDF80090CDF80480D7
:10BC70008DF81C708DF82470CDF820D0FFF768FF88
:10BC80000223237206ABE360282326702382668298
:10BC90000E48FFF717FF08B1FEF764FC4FF0A04312
:10BCA0004FF40032C3F80C2501238AF800300AB0A3
:10BCB000BDE8F0870620FFF74BFF2823257065605D
:10BCC00025722382CBE700BF282E0020A02D002064
:10BCD000F42D0020B82D0020F0B50446B1B001F0DD
:10BCE000EDF92146854801F03DFC2388142B00F036
:10BCF000BF803DD8102B6AD004D8022B00F09A8068
:10BD000031B0F0BD112B73D0132BF9D17C4B03ACA8
:10BD10009A79186899888DF822200790DA1DADF875
:10BD200020101733264610685168254603C508328F
:10BD30009A422C46F7D1734B09AA03F1180715460E
:10BD400018685968144603C40833BB422246F7D129
:10BD5000186820606C486D4A0088159610AB8521E4
:10BD60001495FFF7B9FE0028CAD0FEF7FBFBC7E722
:10BD7000512B65D01ED81A2B00F089801B2BBFD108
:10BD8000237A002BBCD1624A1370624B19680139C7
:10BD9000196000294BD110AC14222046FEF7D8FBC5
:10BDA00005238DF84030149B009394E80F00FFF7B3
:10BDB00091F9A5E7522B6AD0552BA1D1A379002B7D
:10BDC0009ED1514B13211888FFF780FECBE74FF02F
:10BDD000A0434FF48022C3F80C254FF40032C3F87F
:10BDE0000825494BA2881A80494B00221A7087E720
:10BDF00030AA802322F89C3D464B434C32211960E7
:10BE00004FF0A0434FF48021C3F808152088012388
:10BE100010A9FFF76BFE08B1FEF7A4FB3E4B1B78A1
:10BE20000BB9FFF7F1FE4FF6FF73238068E7FFF7CA
:10BE3000EBFE65E7344B00211888FFF759FE92E7C7
:10BE4000A379002B3FF45CAFA27B043A022A3FF6B1
:10BE500057AF022B18BF01238DF840304FF4C17348
:10BE6000ADF84430284B10A91888FFF73BFE7AE75D
:10BE7000234A258A518D02F1180000238D420CBF00
:10BE8000014619460732A088FFF728FE6BE71E4BD4
:10BE90001C884FF6FF75AC422DD0204B1B7823B386
:10BEA000012308221E492046FFF71EFE00287FF4CA
:10BEB0005CAF0246014602232046FFF715FE00282C
:10BEC0007FF453AF2A460C212046FFF709FE43F2C8
:10BED000020398423FF414AF08283FF411AF43F235
:10BEE000040398427FF43FAF0AE71A4619462046FA
:10BEF000FFF7FAFD37E7082037E700BFF82D0020ED
:10BF0000B82D0020D02D0020602C0020362E0020DF
:10BF1000282E0020642C00203B2E0020F42D002031
:10BF2000EC2D0020FEF71EBB584A5948002330B5BF
:10BF30001370584A13704FF0A0430322C3F84427EC
:10BF4000C3F848274FF40032C3F808254FF4802285
:10BF500089B0C3F8082501F08DFD044600287CD186
:10BF60004D48FFF781FB00F0FFF90446002874D12B
:10BF70004A4800F047FC002872D1494B01221A7050
:10BF80009DF800304748012262F3030308AD62F3D5
:10BF9000071305F8203D01F003FE424982B228460E
:10BFA000FFF798FD08B1FEF7DDFA0822002101A88D
:10BFB000FEF7CEFA0C23ADF804301823ADF80630A6
:10BFC0000023ADF8083001A84FF4C873ADF80A306B
:10BFD000FFF77EFD08B1FEF7C5FA00210C2201A88B
:10BFE000FEF7B6FA0823ADF804302F4B029301A9EF
:10BFF0002E4B2F48039301F0C1F808B1FEF7B2FAB7
:10C000001C22002101A8FEF7A3FA40F6CD4200232E
:10C0100002924FF4804201930392ADF81230032252
:10C020008DF81430069301A8224B8DF81020079349
:10C0300001F008F808B1FEF795FA1F4A13780321BA
:10C0400003F0F00361F306136FF3C71313700723B4
:10C05000537010239370FFF7D7FD204609B030BD11
:10C0600001A8FFF72DFD08B1FEF77CFA9DF8053019
:10C0700001A9013300208DF80530FFF71FFD0028CE
:10C080003FF47EAFFEF76EFA7AE700BF3B2E00204A
:10C09000D9BC0700352E0020A1BB0700B82D002019
:10C0A000F42D0020D0DB07001DC1070029BB0700CD
:10C0B000F82D002025BF0700362E002010B5144BA8
:10C0C00001221A70134B18884FF6FF7398420CD058
:10C0D0001321FFF7FBFC08B1FEF744FA00F0E8FF7C
:10C0E00008B1FEF73FFA002010BD0B4C2278002A61
:10C0F000F4D0FFF7E9FC08B1FEF734FA4FF0A043A3
:10C100004FF40032C3F8082500232370E6E700BF90
:10C110003B2E0020602C0020282E0020F0B50B784C
:10C1200089B005460C46092B23D8DFE813F02B0015
:10C13000330042000A0018002400F9000201450003
:10C140000701FFF775FB0421FFF7D4FC0421024629
:10C15000284601F0D3F960B1FEF704FA09E0FFF7D1
:10C16000ADFF08B1FEF7FEF9FFF786FB08B1FFF758
:10C170009BFB09B0F0BDFFF7A1FF0028F7D0FEF749
:10C18000F1F9F4E7704B01221A704B681A786F4B83
:10C190001A70EEE76C4B02261E704B681B78012B61
:10C1A000E7D1FFF7F7FA3146FFF7A4FC0246314624
:10C1B000CEE70322644BEBE7634B1E78022E29D0B7
:10C1C000032E4DD0012ED4D104AF102200213846C9
:10C1D000FEF7BEF95D4B02971B788DF810300023F7
:10C1E0000393237A03220C2B0192E0D16368184653
:10C1F000FFF762FC0590181DFFF75EFC069003F147
:10C200000800FFF759FC079001A8FFF733FA002850
:10C21000AFD0C8E70B7A13F003010FD00022C1F1B1
:10C220000401964698181646C0B2676801329142DA
:10C2300007F800E0F6D1013333442372012304935D
:10C2400063680693237A04A89B080593FFF7C0FA56
:10C2500000288ED00221FFF74DFC0221024677E72D
:10C26000087A830702D03246314671E7384E019092
:10C27000314600F08DF8014618B12846FFF756FC0C
:10C2800077E76168019A306801F07FFC019800F05F
:10C29000E9F801460028F0D101A9304600F0F0F895
:10C2A00001460028E9D104230493019B9B080593D0
:10C2B00004A833680693FFF733FA074640B9254AC6
:10C2C000237A11680B441360234B32681A6050E7DD
:10C2D00009281BD11F4B217A1A68114419601F4B82
:10C2E0001B78002B3FF445AF1D4C2388013B9BB2CC
:10C2F0002380002B7FF43DAF284601F0C5F808B13C
:10C30000FEF730F9174B1B88238032E7306800F0C6
:10C3100067F8014610B12846FFF708FC3946ACE73C
:10C320000E4B01221A700F4A8B8813800C4A13801F
:10C330001FE70A4A002313700A4AF8E7054B1968F9
:10C3400001F066F807E700BF352E00203C2E0020E4
:10C35000442E00202C2E0020402E0020342E0020C1
:10C36000322E0020302E0020064B074A0020187085
:10C37000064B1A6008225A609860D86018615861AC
:10C3800098617047482E00204C2E00206C2F002012
:10C3900030B5E9B1114B5C6800220A60D4B12028A5
:10C3A0001AD8D8681D680130013CD86018695C60F3
:10C3B000242404FB00540C60012101FA00F4996963
:10C3C0000130214300F0070018619961104630BD2B
:10C3D0000E2030BD042030BD0C2030BD6C2F00205D
:10C3E0002DE9F0411E4B9A68B2B359691D688C1A49
:10C3F00004F007073C46242606FB045E70451ED168
:10C40000012101FA04F09969414099610020214617
:10C410005E68D3F818C04FF0010841440025164467
:10C4200001F0070108FA07F414EA0C0FA6EB020E5C
:10C430000CD095B19A60C3F804E0BDE8F0810134F6
:10C4400004F00704A142D7D11020E1E7002AF0D080
:10C45000013A0F460125E5E70420BDE8F08100BF61
:10C460006C2F0020054A13691268013B242103F058
:10C47000070301FB03231862002070476C2F002084
:10C4800030B5B0B1A9B10D4BDA68A2B1013ADA60AA
:10C490009A681D6801329A605A69242404FB025488
:10C4A0000132046002F00702206A5A61086000202D
:10C4B00030BD0E2030BD042030BD00BF6C2F0020E9
:10C4C00082B00190019B0BB902B07047019B013B08
:10C4D000019340F2E730013800BF00BF00BF00BF4A
:10C4E00000BF00BF00BF00BF00BF00BF00BF00BF54
:10C4F00000BF00BF00BF00BF00BF00BF00BF00BF44
:10C5000000BF00BF00BF00BF00BF00BF00BF00BF33
:10C5100000BF00BF00BF00BF00BF00BF00BF00BF23
:10C5200000BF00BF00BF00BF00BF00BF00BF00BF13
:10C5300000BF00BF00BF00BF00BF00BF00BF00BF03
:10C5400000BF00BF00BF00BF00BF00BFC3D1B9E73D
:10C5500029DF704728DF704737B50B460C465A680D
:10C5600014F80C1BDD680092044A5B6952F82550F0
:10C5700002462046A84703B030BD00BF882F0020E8
:10C5800038B5184C2378182202FB03431A795D69E9
:10C59000012A03D0032A19D00F2038BD124A996905
:10C5A00010689A68DB680003121AB2F5805F1D44B8
:10C5B000014438BF9208284428BF4FF48062FFF737
:10C5C000C7FF0028E9D10123A37038BD4FF0805385
:10C5D0001869054B80B2B5FBF0F518682844FFF7E1
:10C5E000B9FFEEE7942F00208C30002070B5134D7A
:10C5F0006C780A2C1FD02E783444E4B2092C84BF06
:10C600000A3CE4B2182606FB0454A261207103C957
:10C61000A360049BE360AB7804F1100282E803009E
:10C6200023B100206B7801336B7070BDFFF7A8FF5A
:10C630001128F7D1F5E7042070BD00BF942F00202A
:10C6400070B527498B780C46002B48D0002602286D
:10C650008E7002D0032832D070BD0D78214A182187
:10C6600001FB0541136889680133B1EB033F136097
:10C670001BD863781660013B63706B1CDBB2182615
:10C68000092B06FB054188BFA5F1090304310020F1
:10C690002370FFF761FF06FB0543002203211A7197
:10C6A0009A6019615A619A61DA606378BBB1A378C4
:10C6B000ABB9FFF765FF90B111280AD170BD0B78B7
:10C6C000182202FB031104310D20BDE87040FFF772
:10C6D00043BF2178182303FB01410431F5E770BD06
:10C6E000942F00208C3000200D4A002313600D4A47
:10C6F000032013705370937002F1F0011371936073
:10C70000106153619361D36018329142F6D1064AA9
:10C710001360064A0020136053609360704700BFA7
:10C720008C300020942F002088300020882F00209B
:10C73000074A1368032B1FBF0B60591C1160054A81
:10C740001DBF016842F8231000200420704700BF7D
:10C7500088300020882F002013B5CC180C43A40784
:10C7600008D1009313460A4601460120FFF73EFF19
:10C7700002B010BD1020FBE707B500220B46009267
:10C7800001460320FFF732FF03B05DF804FB000011
:10C7900038B50D46F8B90968D9B1104CA14206D098
:10C7A000621A3B2A10D801F13D03994208D10022B8
:10C7B0003C210A48FEF7DAFD0023A0872B6038BD34
:10C7C00013F8010DD054F0E73C22204601F0DDF9CA
:10C7D000EDE70E23F2E70123F0E700BF807F0020A2
:10C7E000074A6FF002039E4502D1EFF3098101E091
:10C7F000EFF308818869A0F102000078104700BFBC
:10C8000091C7070038B50546A8B10D4C00223C2160
:10C810002046FEF7ABFDA38F83420ED1234604F1E1
:10C820003C0253F8041B45F8041B9342F9D1013034
:10C83000A087002038BD0E2038BD0B2038BD00BFBA
:10C84000807F002013DF704718DF704700B58BB082
:10C850001022002101A8FDF77BFE022301931B4B50
:10C860001868009001A8FFF7EFFF08B1FDF77AFE06
:10C870004FF4F420FFF7E6FF08B1FDF773FE144B09
:10C8800014494822684601F0BDF808B1FDF76AFE78
:10C89000012105AA084601F013F908B1FDF762FE6F
:10C8A0009DF8203005A843F001038DF8203001F0F9
:10C8B0001FF908B1FDF756FE074801F0E5F808B189
:10C8C000FDF750FE0BB05DF804FB00BFD8DB07009E
:10C8D00021DB0700A8330020DDC80700FFF7B0BE4A
:10C8E00008B5054A14210820FDF75CFE18B1BDE823
:10C8F0000840FDF737BE08BD9030002010B5284B2A
:10C900001B68B3F5F42F02D00020FDF72BFE4FF08B
:10C9100080531B69B3F5805F02D00020FDF722FE33
:10C92000204B214A05210020FEF752FA08B1FDF7FD
:10C9300019FEFEF74FFCFEF795FC58B3FEF7A4FC7A
:10C9400008B1FDF70FFEFFF781FFFFF7C9FFFEF704
:10C95000BAFC08B1FDF706FEFEF754FC08B1FDF77E
:10C9600001FE43F208042068FEF796FB28B1FEF7AB
:10C9700079FC10B92068FEF751FCBFF34F8F0B49CB
:10C980000B4BCA6802F4E0621343CB60BFF34F8FD6
:10C9900000BFFDE7FFF75AFFFFF7A2FFDCE700BF8C
:10C9A000141000108DAF0700E031002000ED00E012
:10C9B0000400FA0571DF704772DF704779DF704756
:10C9C0007DDF704765DF70472DE9F74F0C9CBDF8A0
:10C9D00034B02788002580468A4691462E46B8F80E
:10C9E000002096420BDB35B12288013AD21B92B26D
:10C9F000FF2A39D8DA55002003B0BDE8F08FD8F807
:10CA0000042052F82600019000220DF1030101A834
:10CA1000FFF7D8FF0028EFD19DF803204A4521D128
:10CA20002288002D14BF0020022002EB09010144DE
:10CA3000594519DC3DB9013292B2228003F802A0B7
:10CA400022880132228022880DF103011A4401A8B4
:10CA5000FFF7B8FF0028CFD121889DF803200A44B2
:10CA6000228001250136BAE70C20C5E72DE9F34104
:10CA7000089CBDF8245017468DE830000222064677
:10CA8000FFF7A2FF48B910223946304609950894AD
:10CA900002B0BDE8F041FFF797BF02B0BDE8F081FA
:10CAA0002DE9F04F002316881380436B85B00746AD
:10CAB0000D461446A3B1022E01D80C206EE11A785F
:10CAC00002230B70238801339BB211212380E95488
:10CAD000238801339BB22380EA54238801332380C7
:10CAE0003A6BEAB997F82E20002A40D02388D91C47
:10CAF000B142E2D80221E954238801339BB21C20C1
:10CB00002380E854238801339BB2013A2380032A0F
:10CB100000F25181DFE812F02200250027003201E7
:10CB2000238803F11201B142C7D81121E9542388A7
:10CB300001339BB210212380E954238801332380E1
:10CB400002F10F03013A218813F801096854218882
:10CB50009A4201F101012180F5D1C3E70022EA5494
:10CB600002E00122FBE7E95423880133238097F890
:10CB70002D304BB323880933B3429ED802A8FFF768
:10CB800019FF002840F00A8123880822EA542388EC
:10CB900001339BB21B222380EA542088013080B2EB
:10CBA000208006220DF10901284400F0EEFF2388C1
:10CBB0009DF8082006339BB22380002A40F0E080D5
:10CBC000EA54238801332380BB7803B323880433DA
:10CBD000B3423FF672AF02A8FFF7F0FE002840F024
:10CBE000DD8023880322EA54238801339BB2192273
:10CBF0002380EA542388BDF8082001339BB2E9184A
:10CC00002380EA54120A4A70238802332380FA7878
:10CC1000A2B12388D91CB1423FF64FAF0221E9549B
:10CC2000238801339BB201212380E95423880B44DC
:10CC30009BB22380EA5423880B4423807A68B2B1E4
:10CC40002388D91CB1423FF638AF022192F9002067
:10CC5000E954238801339BB20A212380E9542388B5
:10CC600001339BB22380EA542388013323803B891C
:10CC7000002B40F087803B8A5BB18DE850002B464B
:10CC80000722032107F11000FFF7F0FE002840F013
:10CC900085803B8B53B18DE850002B461522142123
:10CCA00007F11800FFF7E2FE002877D13A6A002A60
:10CCB00077D1D7F82480B8F1000F30D0B8F804301D
:10CCC0002188981C8A1C0244B2423FF6F6AEFE2828
:10CCD0003FF6F3AE03336B54238801339BB2FF223C
:10CCE0002380EA54238801339BB22380B8F80020C4
:10CCF000EA54E918120A4A702088023080B2208073
:10CD0000B8F804205AB1D8F80810002953D02844A4
:10CD100000F03BFF2388B8F804201344238097F8E1
:10CD20002C30002B40F082803878B8B33B88012B40
:10CD300041D0228802F1020EB6453FF6BEAE012870
:10CD400005D17B78023313449E42FFF4B6AE023E17
:10CD5000B61A04A9B6B221F8086D05EB0E00FFF76C
:10CD60002FFED8B93B78022B40F0A380BDF80830E5
:10CD7000B34240F2B980ADF80860A3E00322EEE6CA
:10CD800001221DE78DE850002B460622022107F103
:10CD90000800FFF76BFE00283FF46DAF05B0BDE85B
:10CDA000F08FB4F800E00EF10603B3423FF685AE13
:10CDB0001188052901D80720F0E76FF4486C01EBD2
:10CDC0000C039BB24FF27D3C6345F4D95388052B8D
:10CDD000F1D96FF44860181880B26045EBD94FF66E
:10CDE000FF70814203D0834201D09942E3D80523EA
:10CDF00005F80E30238801339BB212212380E954B9
:10CE0000238801339BB223801188E954E818090A6A
:10CE10004170238802339BB223805288EA54E91878
:10CE2000120A4A7023880233238042E7BB6A002B30
:10CE3000C1D04FF000094FF00C0A4FF0160B97F8D5
:10CE40002C305FFA89F293427FF66EAFB96A0AFB23
:10CE500002F201EB0208B8F80430981CFE283FF6F5
:10CE60002CAE208803332B54238801339BB22380BC
:10CE700005F803B0238801339BB223808A5AEA5411
:10CE8000E918120A4A702088023080B22080B8F86F
:10CE900004205AB1D8F8081000298CD0284400F09A
:10CEA00074FE2388B8F804201344238009F1010993
:10CEB000C5E7012B7FF45FAF7B789E42FFF45BAF49
:10CEC000ADF808300821BDF80830FE2B3FF6F5AD6F
:10CED00022880133AB542288013292B22280A954B5
:10CEE00022881344238059E70921ECE730B593B039
:10CEF0001F230D46ADF80430ADF80630044628B1C6
:10CF0000C3785B071DD4072013B030BDADF8040013
:10CF100065B1EB78002BF6D10DF106020AA928467F
:10CF2000FFF7BEFD0028EFD10AAA02E0ADF80650D7
:10CF30002A469DF806309DF804102046FFF73CFD78
:10CF4000E2E701AA02A9FFF7ABFD0028DCD102ACA1
:10CF5000DEE775DF704776DF70477ADF70477BDF8B
:10CF60007047000037B5164B18884FF6FF7398428C
:10CF700010D0144A144D1378297B0133DBB2994247
:10CF800013702C4608D31149FFF7E3FF10B1AB69CA
:10CF900003B1984703B030BD002313702B7C33B12D
:10CFA0003B21FFF7D8FF10B1AB6903B19847636924
:10CFB000002BEFD002A8002200F8042DE9E700BF03
:10CFC000F233002040340020F433002038340020B5
:10CFD00037B5164B164A5B881188164C164D994288
:10CFE0000ED852889A420BD36369D3B102A80122AA
:10CFF00003E06369ABB102A8002200F8042D0FE042
:10D000002A78002AF5D10D4861680078A3680028C5
:10D0100018BF19460A48FDF743FF10B1A36903B1D1
:10D02000984700232B7003B030BD00BF3034002080
:10D0300038340020F4330020F03300204034002046
:10D040001034002070B5054606460FCD114C0FC4B4
:10D0500095E80700104B84E8070000221A70326838
:10D060000E489AB11368036053684360FFF775FF79
:10D0700078B90B4B0B484FF6FF721A800A4B0B4ADC
:10D0800000211970BDE87040FDF7F8BEFFF767FF9B
:10D09000EEE770BDF4330020F03300203834002078
:10D0A000F2330020DCDB07004034002065CF0700AE
:10D0B0000148FDF735BF00BF1034002010B50388CC
:10D0C000112B1BD002D8102B05D010BD122B37D03E
:10D0D000502B24D010BD1E4B82881A8000F11803FB
:10D0E00003CB1C4A1C4B1060516000221A701B4B72
:10D0F000DB8963BBBDE81040FFF76ABF144B1848DB
:10D100004FF6FF721A80144B00221A70FDF708FFC9
:10D11000E8B1124B9B69D3B1BDE8104018470F4CE2
:10D12000C288E3899A4212D1038A022B0FD1837CF1
:10D13000DB07DFD40A48FDF7F3FE40B1A369EAE755
:10D1400000F1080303CB034A10605160D2E710BD21
:10D15000F23300203034002040340020F43300202B
:10D1600010340020A0DF7047A2DF7047A5DF7047B2
:10D17000A6DF7047A8DF704763DF70472DE9F04FE7
:10D180000F4695B00546002800F03B81002900F0CD
:10D1900038814B68002B00F034814FF6FF73038019
:10D1A000994B04AA03F1100E1646186859681446E4
:10D1B00003C4083373452246F7D114AB41F2305211
:10D1C0000DF10A01304623F8482DFFF7D5FF04463C
:10D1D000002840F012812A1D19460120FFF7C2FFE6
:10D1E0000446002840F009819DF80A30AB710146E1
:10D1F0001C220DA8FDF7ACF99DF834300E9443F0D5
:10D2000004038DF8343001AEAB798DF80E30214631
:10D2100041F2325303223046109411941294139425
:10D22000ADF80C30FDF794F99DF8043064F3030376
:10D2300064F307138DF804309DF805304FF0010AB0
:10D240006AF303036AF307138DF805309DF806307F
:10D250006AF3420364F3C30364F30413DBB243EAE7
:10D260000A032146142208A88DF806300DF10C0897
:10D27000FDF76EF94FF0140905F1080308AA0DA98E
:10D28000A888ADF82840ADF82A400C94CDF820804D
:10D290000996ADF82C90FFF767FFA34604460028D7
:10D2A00040F0AB8001461C220DA8FDF751F99DF816
:10D2B00034300E9443F018038DF83430AB798DF888
:10D2C0000E30214641F2315303223046109411941E
:10D2D00012941394ADF80C30FDF73AF99DF8043030
:10D2E00064F3030364F307138DF804309DF80530ED
:10D2F0006AF303036AF307138DF805309DF80630CF
:10D300006AF3420364F3C303DBB243F01103214623
:10D310004A4608A88DF80630FDF71AF91723ADF82C
:10D320002C3008AA05F110030DA9A888ADF82840F3
:10D330000C94CDF820800996ADF82AB0FFF714FFC1
:10D340000446002859D101461C220DA8FDF700F91A
:10D350009DF834300E9443F002038DF83430AB79ED
:10D360008DF80E30214641F234530322304610949A
:10D37000119412941394ADF80C30FDF7E9F89DF870
:10D3800004306AF303036AF307138DF804309DF841
:10D39000053064F3030364F307138DF805309DF83B
:10D3A00006306AF3420364F3C30364F30413DBB28D
:10D3B00043EA0A0321464A4608A88DF80630FDF7DD
:10D3C000C7F80223ADF82830ADF82C3008AA05F1D3
:10D3D00020030DA9A888ADF82A40CDF82080099631
:10D3E0000C97FFF7C1FE044638B97B68AB62BB6897
:10D3F00003B1EB62054B01221A70204615B0BDE85F
:10D40000F08F0E24F9E700BFE0DB07004134002075
:10D4100070B5054686B070B302884FF6FF739A4226
:10D420002BD0174B1B7843B3164C1022080AE1701F
:10D43000207121FA02F0090E072301266071A17103
:10D4400002A800216370ADF806302270A670FDF7C7
:10D450007FF82B8AADF808300023ADF80C3002A914
:10D460000DF1060328888DF80A6004930594FFF7F0
:10D470007FFE06B070BD0E20FBE70820F9E700BF75
:10D48000413400204234002030B5054687B060B3F7
:10D4900002884FF6FF739A4229D0164B1B7833B39C
:10D4A000154C112323700B0A6170A3700B0C090E2D
:10D4B000E370217105230021102202A8ADF8063087
:10D4C000FDF746F82B8AADF8083001238DF80A30B5
:10D4D0000023ADF80C3002A90DF10603288804934F
:10D4E0000594FFF745FE07B030BD0E20FBE708208E
:10D4F000F9E700BF413400204234002030B5044633
:10D5000087B038B300884FF6FF73984224D0134B8E
:10D510001B780BB3124D102369700321ADF8061070
:10D52000AA7000211A4602A82B70FDF711F8238A71
:10D53000ADF8083001238DF80A300023ADF80C3027
:10D5400002A90DF10603208804930595FFF710FE4C
:10D5500007B030BD0E20FBE70820F9E7413400207A
:10D560004234002070B50D4688B0044640B139B150
:10D57000826A2AB10B88112B5CD003D8102B46D0BD
:10D5800008B070BD502B45D0512BF9D18B79022BAF
:10D59000F6D10A89038A9A42F2D18B7B043B022B93
:10D5A000EED99DF8163043F001038DF816300B8A42
:10D5B000ADF818304B8AADF81A30022601F1140389
:10D5C0000822002101A807938DF81060FCF7C0FF26
:10D5D000002301AAA18A2088ADF80460ADF80630C6
:10D5E000CDF808D0FFF7C2FD38B3E36A03B198471E
:10D5F00040F2FD1304A92088ADF81430FFF7BAFDFE
:10D600000028BDD0E36A002BBAD09847B8E78B88D2
:10D610002380B5E7C98803899942B1D108238DF8E1
:10D620001030123535F8023C8DF81830059504A9F4
:10D630009047A5E74FF6FF73EAE79DF80020D20771
:10D64000D6D5ADF8140004A92088FFF793FD002873
:10D65000D8D1297D4B1E072B41D8DFE803F0041AEF
:10D660002327292B3E2D00238DF804306B8A012BB4
:10D6700005D8062201212046FFF740FFC0E701231D
:10D6800015358DF80C300295A36A01A920469847FC
:10D6900076E76A8A01239A428DF80430F0D8062290
:10D6A0000221E8E702238DF80430EDE70323FAE7CF
:10D6B0000423F8E70523F6E76B8A022B02D803223E
:10D6C0000821D8E7AA7D6B7D43EA0223ADF8083034
:10D6D0000BB90723E7E70623E5E70923E3E703227E
:10D6E000C9E700000C4B1B78062B10D10B4B1B68B5
:10D6F0001A070CD10A4B186800F0F003302B08D041
:10D7000000F0E000A0F1400358425841704700206B
:10D7100070470120704700BFE00F00F0E40F00F0F9
:10D72000E80F00F0094B1B78062B0CD1084B1B6847
:10D730001A0708D1074B186800F0F000A0F1300379
:10D740005842584170470020704700BFE00F00F07A
:10D75000E40F00F0E80F00F008B5FFF7E3FF10B1A9
:10D76000684B694A1A60FFF7BDFF28B1674B684AEA
:10D770001B68C3F342331360FFF7D4FF20B1654A3F
:10D78000D36823F08073D360FFF7ACFF40B14FF054
:10D7900080430022C3F80C21C3F81021C3F83825B8
:10D7A000FFF7C0FF10B15C4B03221A60FFF7BAFF0E
:10D7B00040B15A4B05221A6001229A6700229A60F2
:10D7C0003F225A60564B1B78062B09D1554B1B68DC
:10D7D0001B0705D1544B1B6803F0F003502B48D0B6
:10D7E000524AD2F8883043F47003C2F88830BFF34D
:10D7F0004F8FBFF36F8F4FF01023D3F80022002A12
:10D8000003DBD3F80432002B2FDA494B0122C3F893
:10D810000425D3F80024002AFBD04FF01022152154
:10D82000C2F80012D3F80024002AFBD04FF01023D6
:10D830001522C3F804223E4B1A46D3F800140029DF
:10D84000FBD00021C3F80415D2F80034002BFBD024
:10D85000BFF34F8F3549374BCA6802F4E062134378
:10D86000CB60BFF34F8F00BFFDE7334B334A1A60E5
:10D8700008BD4FF08052324BD2F80414C3F8201583
:10D88000D2F80814C3F82415D2F80C14C3F82815DC
:10D89000D2F81014C3F82C15D2F81414C3F83015AC
:10D8A000D2F81814C3F83415D2F81C14C3F8401574
:10D8B000D2F82014C3F84415D2F82414C3F848153C
:10D8C000D2F82814C3F84C15D2F82C14C3F850150C
:10D8D000D2F83014C3F85415D2F83414C3F86015D4
:10D8E000D2F83814C3F86415D2F83C14C3F868159C
:10D8F000D2F84014C3F86C15D2F84424C3F870254C
:10D900006EE700BF74C007400DF0ADBA44020010CE
:10D910003C050040F0ED00E0A0050040105600403E
:10D92000E00F00F0E40F00F0E80F00F000ED00E081
:10D9300000E001400400FA05682C00200090D003AC
:10D9400000C0004052DF704710DF704760DF704753
:10D9500061DF704708B5FCF713FE08BD2DE9F743FA
:10D96000234B1B7803F0FF07002B3AD0214D224EAA
:10D970002B683468DFF88480DFF88490B3FA83F38F
:10D98000B4FA84F45B096409ABB901A8FFF7DAFFC4
:10D99000052829D038B1FCF7E5FD74B13A460024DA
:10D9A00023461446F0E72B6801989847F5E732685C
:10D9B0001846904711E0A4B91C46B8F80030ADF8FD
:10D9C0000430D9F8003001A91846FFF7C1FF052837
:10D9D00005D00028EBD0FCF7C5FD0022E0E7002CC5
:10D9E000DCD003B0BDE8F083002CFAD13C46E4E77C
:10D9F00054340020583400204C3400204A34002095
:10DA00005C34002010B509B38C071FD1124C216083
:10DA100012490A80124A13491360FFF795FFC8B9EB
:10DA2000114B01221A70114A92F81633C3F34113B5
:10DA3000012B0DD90E4B996821B11A6842F480026E
:10DA40001A6010BD4FF48003136010BD072010BD95
:10DA500042F2020010BD00BF5C3400204A340020B6
:10DA60005034002055D907005434002000E100E074
:10DA70006034002018B1034B1860002070470E205E
:10DA8000704700BF4C34002018B1034B18600020D1
:10DA900070470E20704700BF5834002008B5074B70
:10DAA0001B682BB1984738B1BDE80840FCF75ABD58
:10DAB000BDE80840FFF752BF08BD00BF503400204A
:10DAC00070B5144605460E46142200212046FCF788
:10DAD0003FFD227B26720021012361F30002238097
:10DAE00021612273657205B1A372002070BD000030
:10DAF00007B5054B019302A9019B41F8083DFFF7CB
:10DB000025FF03B05DF804FB002C002008B511B11F
:10DB10000020FCF727FDBDE80840FFF71FBF00000D
:10DB20000021024A0846FCF761BD00BF0DDB07007B
:10DB30000649074A074B9B1A03DD043BC858D050DF
:10DB4000FBDCFFF709FEFCF791FC0000FCDB0700A3
:10DB5000002C0020782C0020FEE7FEE7FEE7FEE721
:10DB6000FEE7FEE7FEE7FEE7FEE7FEE710B5013958
:10DB70000244904201D1002010BD10F8013B11F881
:10DB8000014FA342F5D0181B10BD10B5431E0A4427
:10DB9000914200D110BD11F8014B03F8014FF7E796
:10DBA000034613F8012B002AFBD1181A01387047DD
:10DBB000F8B500BFF8BC08BC9E467047F8B500BF7A
:10DBC000F8BC08BC9E467047002C0020002D0020A9
:10DBD0004F54414D4F4445000100000710340020D0
:10DBE00023D1BCEA5F782315DEEF1212000000009B
:04DBF0000000000031
:08DBF40078C8FF7F010000006A
:10DBFC000000000000000000000000000000000019
:10DC0C000000000000000000000000000000000008
:10DC1C0000000000000000000000000000000000F8
:10DC2C0000000000000000000000000000000000E8
:10DC3C0000000000000000000000000000000000D8
:10DC4C0000000000000000000000000000000000C8
:10DC5C00FFFF0000320000000090D00325A4070055
:08DC6C0001A407000000000004
:020000020000FC
:020000041000EA
:0410140000A0070031
:0410180000E00700ED
:040000037000DB317D
:00000001FF
