:020000040001F9
:10800000C07A002045E501005FE501007DC0010068
:108010000000000000000000000000000000000060
:1080200000000000000000000000000063E5010007
:10803000000000000000000065E5010067E50100A8
:1080400069E5010069E5010069E501003DF901000C
:108050005FF90100000000006109020037A701007C
:1080600069E5010069E5010069A2010069E5010017
:1080700069E5010069E5010069E5010069E50100C4
:1080800069E50100A9F3010069E5010069E5010066
:10809000BFF3010069E501003D06020069E501004A
:1080A00069E5010069E50100000000000000000032
:1080B00000000000000000000000000000000000C0
:1080C0000348854617F0F0FC00480047578501003B
:1080D000C07A0020401E00BF00BF00BF00BF00BF2D
:1080E00000BF00BF00BF00BF00BF00BF00BFF1D195
:1080F00070470000401E00BF00BF00BF00BF00BFB0
:1081000000BF00BF00BF00BF00BF00BF00BFF1D174
:1081100070470000056885F308884068FF2464B252
:10812000EFF30585002D01D1A646004725460646FA
:1081300021273FBAF0B40024002500260027F0B420
:10814000F92040B200470000401E00BF00BF00BF42
:1081500000BF00BF00BF00BF00BF00BF00BF00BF27
:1081600000BFF1D170470000401E00BF00BF00BF3C
:1081700000BF00BF00BF00BF00BF00BF00BF00BF07
:1081800000BFF1D1704700007B2101700A214170CE
:108190008F218170072101710121C1706D21417111
:1081A0000F2101720521C1716B2181710E21417274
:1081B0007047A7210170704702210170704710B508
:1081C0000AF008F910BD10B50AF08CF810BD10B512
:1081D00010F00AFC10F0C7FB10BD10B5FE4808F007
:1081E00086FE10BD10B50021FC4A084606F0E3FEED
:1081F000002803D00022114600F098FA10BDF84A7A
:1082000000B5811A9DB090426FD040DCF54AF64B24
:10821000811A90426AD01FDCF44BF349C21A0978E4
:1082200098420FD00FDCF24BC21A984270D005DC96
:10823000F04940186DD010286CD13BE1012A6AD07A
:10824000092AF9D1DCE0012A7ED0022A7DD0052A54
:108250007CD0062AF0D129E1802978D00CDC6E2967
:1082600076D004DC062974D05F29E5D13EE171297E
:1082700070D07F29E0D108E181296CD0DE296BD054
:10828000DF296AD0DB4824300818D5D108E1D84A64
:108290002C3A881A914213D01CDCD74A881A914292
:1082A000F9D00EDC6F297DD004DC3F297BD06E290C
:1082B000C2D19BE0CF481330081801D00128BBD1B0
:1082C000B6E0012805D0022803D0032801D00428F5
:1082D000B2D1ADE028280ED00EDC032804D006DC95
:1082E000012801D00228A7D1A2E0DBE0E0E00828C5
:1082F00077D01828A0D1C6E03A280DD03B2839D035
:10830000BE4940186FD0BB490E39401894D1E9E0FE
:10831000D4E0D1E07BE0D3E0B9A30FCB10930DAB59
:1083200007C31422BAA111A817F0D2F83421684665
:1083300017F0E7F800A80D220DA9033017F0C8F8D0
:108340000D206946887009E05DE061E0ACE0BDE0C9
:1083500068E062E09FE0A0E0B4E0B5E0132211A97C
:1083600009A817F0B5F8132008A9C8703422694687
:10837000AC4833E0ACA103C917911690ACA103C976
:1083800019911890ACA103C91B911A905821684605
:1083900017F0B7F8202216A901A817F099F80020C5
:1083A000694601E024E09FE0C8700DA8202218A9CA
:1083B000023017F08DF8062008A9487509A8102288
:1083C0001AA9013017F084F8072008A90871954808
:1083D00069460D38088093485622801E08F08AFDB1
:1083E0007DE04AE0FFE703F0E6FE78E0012000E0F0
:1083F00000200EF00AF882203CE010F01AF96EE03E
:1084000000296CD0F9E7002969D010F033F966E053
:10841000002964D010F062F961E00120187010F0BA
:1084200064FA5CE06C486F3808F061FD752021E06B
:1084300083480068002853D0008882494018030010
:1084400018F0E3FB0B074D090B4D0D0F111315171A
:108450004D0051200EE053200CE054200AE056203D
:1084600008E0572006E0582004E0592002E05A2096
:1084700000E05B200FF0FCFA31E073480068002850
:108480002ED05C20F6E75D20F4E767200FF0F0FACD
:1084900000F0A2FD23E07620ECE700F0A3FD1EE053
:1084A0006A20E7E76B20E5E76320E3E76420E1E784
:1084B0006520DFE76D20DDE75E20DBE76E20D9E792
:1084C0006F20D7E77120D5E77220D3E774200FF033
:1084D000CFFA0123002202210A2000F0D0FD002063
:1084E0001DB000BD8320C5E77320C3E77820C1E736
:1084F00010B5047820460DF078FF01280BD02046F7
:108500000DF073FF022808D020460DF06EFF0528FD
:1085100007D1032102E0012100E0022100200FF039
:10852000FBF810BD13B5494A012101A806F043FD2F
:10853000002803D00022114600F0F8F81CBD10B549
:10854000002805D0012802D16C200FF091FA10BD4F
:108550007920FAE770473EA207CA86B002AB07C38C
:1085600000203E4C02AB0422195C890009190A6004
:10857000401CC0B20928F7D3FF20F53007F0E8FF10
:1085800000F0CBFC01F088FF3549364800F035FBA0
:10859000354800F07DFB10F04EFD01F09EFF0028F5
:1085A00003D00022114600F0C1F800F094FD0E4CFB
:1085B000002160700B2010F06CFB2C4808F088FC48
:1085C000002803D00022114600F0B0F803F0BCFFF1
:1085D000052127484EE0000012110000DB81010058
:1085E0001220000033100000002000202C1000009A
:1085F00022100000FEEFFFFFF10F000007E1FFFF78
:10860000E6ACA2E8BF8E3132333435363700000095
:108610003132333435363738393132333435363711
:108620003839000011300000E6ACA2E8BF8E00002F
:10863000E8B0A2E8B0A20000313233323332330066
:108640005C240020FFCFFFFF60240020F1840100A4
:1086500000010203050D0E1D1F0000000007005061
:10866000BF8101003F850100C7810100FF8101003A
:10867000CF81010001F00FF9002803D0002211463C
:1086800000F054F803F0CEFA23480DF084FE0220E7
:10869000694608708E204870032088705F20C8707B
:1086A00078200871684617F0B5FC1C4817F0AAFC42
:1086B00002F0B7FD00211A4803F061FC00F0BDFD97
:1086C00004F06BFF012000F05DF800F004FD607025
:1086D0000021012010F012FB00F0ADFD054611480D
:1086E0004069114C411C04D0216989B216F096FEF4
:1086F00000E060692169113889B24843854204D39A
:1087000000210A2010F0FAFAFEE706F0C6FC00F09D
:10871000D0FA00F00DFCF8E725850100E5810100A5
:1087200055850100001000100000001070B51446BF
:108730000D46064600F0CAFCFE48036A002B03D033
:10874000224629463046984700F04AFC70BD0A464A
:108750000146F948EAE70078002803D1F5483B21B3
:10876000808976DF7047F3480178002902D0132111
:10877000808976DF7047002800D0F4E77047002238
:108780001146D3E710B5EB4948700978002903D1A9
:10879000002802D000F0EFFA10BD00F0E1FA10BDA1
:1087A000F0B5ABB00646302106A816F0AAFE0220AE
:1087B0006946087601278F760620C876DD480F8542
:1087C00024300B90242112A816F09BFE10A90F75DF
:1087D000DA48002516901421179501A816F091FE8D
:1087E000002430211EA816F08CFE1B951C95062136
:1087F00002A81D9500F024FC5420694608714D71B3
:10880000012E04D0022E05D0032E09D104E08F7171
:10881000CD7105E0022100E003216A469171D57116
:10882000C4490E8210A9888501A802301D90092034
:108830000886002001A90A5C401C1219D4B20A283B
:10884000F9DB684684731BA82790BD480090BD4B98
:1088500012AA1EA906A80BF085FC002803D000224E
:108860001146FFF763FF2BB0F0BD10B5B14C0028E7
:1088700024D0032811D1607800280CD01E20E0817C
:10888000208A02280DD00AF0EBFE002806D000F066
:1088900067FA02200CE000F063FA10BD208A02287B
:1088A000FBD10AF0DDFE0028F7D100F059FA0120D3
:1088B000FFF776FF0120FFF765FF10BD6078002805
:1088C000FBD00AF0CDFE0028F7D000F054FA10BD1E
:1088D00010B59D4808F00BFB10BD10B59548007809
:1088E000002805D0002000F035FA9748C01E04E0AB
:1088F000012000F02FFA9448801E08F0F8FA10BD0D
:10890000F8B502888B4D0646192A4BD00ADC0024A4
:108910000120102A0DD0112A21D0122A42D0142A67
:1089200040D142E0392A4AD0522A2CD0552A39D196
:1089300045E0B188A98128707E480622F11D2D30BE
:1089400016F0C6FD814A0421002006F034FB002801
:1089500003D000221146FFF7E9FEAC7022E00021AF
:10896000C943A9812C70A870EC70784A04210020BA
:1089700006F021FB002803D000221146FFF7D6FEA7
:10898000052028720EE000F05DFC00280AD10023CB
:108990001A461946A889A9DF002803D000221146EB
:1089A000FFF7C4FE00246A4F14E000F04BFC0028DF
:1089B000F8D100231A461946A88982DFF2E713216D
:1089C000A88976DFE8E7A0003958002901D03046B1
:1089D0008847641C28798442F5DBF8BD10B504464D
:1089E00000F030FC002802D0204612F0D4FE00F047
:1089F00029FC002802D0204611F024FB204606F076
:108A00006EFA00F01FFC002802D0204611F014FB83
:108A10004F482146803005F031FF2046FFF770FFB8
:108A200000F010FC002802D0204611F0F9FA204690
:108A30000BF011FD10BD10B5044607F0BEFA20463C
:108A40000BF03EFD10BD10B511F003FB002010BD72
:108A500038488269002A03D041793D4810301047D8
:108A600070473448C269002A03D0817938482430DD
:108A70001047704770B508782E4D0C46002817D067
:108A8000022814D16278142A11D83148A11C24304C
:108A900016F01EFD60782F4AA8710021084606F0E6
:108AA0008AFA002803D000221146FFF73FFE70BD6E
:108AB0006278142AFBD82648A11C103016F008FD55
:108AC00060786871244AE8E710B51A48234980891C
:108AD000884208D0132176DF002806D000221146F4
:108AE000FFF724FE01E000F03BF906F0C5F900288D
:108AF00003D000221146FFF719FE002406F0CDFA3C
:108B0000641C142CFADB10BD0A480078704770B55D
:108B10000AF0A6FD074C00280BD16078002808D089
:108B20002078002805D1E08900282ED0E089401E59
:108B3000E08115E004200020EFBEADDE64060000F9
:108B40007F8701006B88010044200000DB88010062
:108B5000E0250020638A0100518A0100FFFF000028
:108B6000A0780025002817D0E078002811D0D34A3B
:108B70000421002006F01FFA002803D0002211462D
:108B8000FFF7D4FDA570E57006E00020FFF7FAFDC1
:108B9000CFE7E078401CE0702078002808D0607AA9
:108BA000002805D0A07A002815D0A07A401EA07217
:108BB000E07900280ED00AF053FD00280AD1207871
:108BC000002807D16078002804D0207A00280AD035
:108BD000401E207270BDA08985DF002801D00828C2
:108BE000E6D16572E4E7E57100F0BAF80120FFF71D
:108BF000D7FD0120FFF7C6FD70BD70B588B00C46EB
:108C0000054600F02CF900F0EDF800F0BCF8AC4897
:108C1000002600900196012069460871A94805F0D8
:108C2000E9FD13F0FCF9002803D000221146FFF7FC
:108C30007DFD1C21684616F064FC0520C0030190F0
:108C40000F20000402900096032069460873CE812D
:108C50000E749D4805909D480690684606F0E8F819
:108C6000002803D000221146FFF760FD0120FFF726
:108C700097FD9748052145618461964800F00BFEF9
:108C8000002803D000221146FFF750FD08B070BD48
:108C90008F49C86170470A4610B50146894805F0FA
:108CA000FEFD10BD0A4610B50146864805F01CFEC3
:108CB00010BD10B548DF002803D000221146FFF791
:108CC00035FD10BD10B5824A1179042901D3012068
:108CD00010BD7C4C8B00803CE050491C1171002081
:108CE00010BD7B48007B704770B505460AF0B8FCA4
:108CF00000280ED1764C207800280AD1E07900288F
:108D000004D100F02DF80320FFF74AFD0120E071A7
:108D1000257270BD10B501466D4C0A20A0722078F6
:108D200000280ED0627A20468089002A03D08ADF8C
:108D3000002807D004E00122114684DF0120607280
:108D4000002010BD012010BD614810B50B3012F09D
:108D5000D6FC10BD5E494969002900D0084770471C
:108D600010B574DF082805D0002803D00022114672
:108D7000FFF7DCFC10BD10B555491E20C88103204B
:108D80000BF07EFA10BD3EB50024601C0007000FFA
:108D900010306946087208224FA102A87CDF002823
:108DA00003D000221146FFF7C1FC4E4878DF0028AF
:108DB00003D000221146FFF7B9FC00945020694609
:108DC000019408807820488004208880FF2091301A
:108DD000C88068467ADF002803D000221146FFF7DA
:108DE000A5FC3EBD1FB500206946087307F075F964
:108DF000002803D000221146FFF798FC03A812F0C8
:108E00008CFB002803D000221146FFF78FFC6C4634
:108E10000521601D16F075FB6B465A79012002434F
:108E2000E1210A400C32DF210A405A710721997171
:108E30001021D9712C490091187125480522611D16
:108E4000283016F045FB224869460B3012F0C7FB6C
:108E5000002803D000221146FFF768FC1FBD1CB597
:108E60001849002348224839082007F0C3FB00288E
:108E700003D000221146FFF759FC0020009001901A
:108E8000012069460870684660DF002803D0002290
:108E90001146FFF74BFC154807F0C0FB002803D034
:108EA00000221146FFF742FC114807F0BFFB0028E3
:108EB00003D000221146FFF739FC1CBDD188010008
:108EC000758A01006026002057870100778701001E
:108ED000042000200F8B01004944313135204852D5
:108EE0000000000041030000478A0100DD89010005
:108EF000378A0100FE4840697047704738B5FD4C1D
:108F0000E078002807D068463DDF00983EDF0098F3
:108F1000A0600020E070A06838BDF74A0020106013
:108F2000F6480121C160F64B4360816011607047D3
:108F3000F0480078002806D1F2480068C00702D047
:108F4000F249F14808607047B12044DFBFF34F8F0A
:108F5000F049EF48C860BFF34F8FFEE770B5FFF7E9
:108F6000B3FDFF2045DFB12044DF002803D00022FD
:108F70001146FFF7DBFBB12044DF002803D00022BD
:108F80001146FFF7D3FB11DF002803D00022114662
:108F9000FFF7CCFBD64C606913DF002803D000221A
:108FA0001146FFF7C3FB0121DB4A88051060DB4A4D
:108FB00000201268D94B80330D468540154204D0FD
:108FC000C606F60E0D46B5401D60401C2028F3D3A2
:108FD000606907F047FB70BDC649032048707047C1
:108FE00035DF7047C34901204870704710B5C1494B
:108FF00048793C2806D23B2802D1C94B00221A608E
:10900000401C48714878002812D00879401CC0B232
:10901000087103280CD3487801280AD04878022820
:1090200009D04878032808D04878042800D13CDFCC
:1090300010BD35DF10BDFFF787FFFFF78FFF10BDB5
:109040001CB5044606290BD3684671DF00216A4629
:109050000520431A9B185B786354491C0629F8DBEA
:109060001CBD7CB50C460546062907D3684671DF52
:1090700000A922460131284616F02AFA7CBD134683
:1090800010B50A46194600F0C3F99A490420487001
:1090900010BD134610B50A46194600F0B9F93CDF79
:1090A00010BD012047DF704710B5052800D205200C
:1090B0007D22491CD2004A43440CC30350081818AF
:1090C00000216141002316F0D3F910BD8949012028
:1090D00008700020704738B59248C569002000909C
:1090E000684646DF681D68434409282044436C40B5
:1090F000B12C00D1B224002044DF0099E0B28842B4
:1091000001D1012038BD002038BD874910B50C229F
:10911000881816F016FA00280AD000230C2282497B
:109120000A2000F01AFF804801460EC90C300EC01C
:1091300010BD00B57D4989B040181DD07B4937313D
:10914000401824D1684602F0F3FF6946C889C883F5
:1091500088898883C879C87588798875888888825D
:10916000088908834889488300980490102204A93C
:109170006F4807F0BFFE0AE000216E4A084605F07E
:109180001AFF002803D000221146FFF7CFFA002073
:1091900009B000BD694968480860704762490A79AA
:1091A000824202D0664A0A600871704730B58DB0BD
:1091B0000521644800F06FFB002803D0002211460F
:1091C000FFF7B4FA002560480CA907F071FE0028EB
:1091D00003D000221146FFF7A9FA534C0023256063
:1091E00065600C2269460A20A56000F0FFFE544924
:1091F0000098884209D168460079FFF7CFFF68469A
:1092000007C8234607C30C3407C44C494A480860C2
:1092100008A802F08DFF142103A816F072F903A824
:1092200002F08FFF0020401C1428FCDB00200DB052
:1092300030BD002070474548704770473F4944485B
:10924000086070473848007970472A48807870472E
:1092500028498870704707B583B003A807C80292F1
:109260000090019130486A468179927991420ED1FD
:109270006A4641795279914209D16A46C179D279D7
:10928000914204D16A46017A127A91420DD0694620
:10929000897C81716946497C41712949016069462F
:1092A000C97CC1716946097D017206B000BD1E49C5
:1092B0008A7982714A794271CA79C2710A7A0272D4
:1092C00009790171704735DFFEE7F0B5144A0021D6
:1092D0001160204B1F4C1F4D1F4F1E4E1D4A113356
:1092E000223433354436396801283FD0022835E02E
:1092F000001000103820002000000140000501404F
:10930000FFFF0400000401403546526E0006014094
:109310000400FA0500ED00E080E200E000E100E07A
:10932000D07F0020400000108C260020BCDFFFFF13
:10933000524000000B91010054225422D87F00209B
:1093400044332211ED8F010033910100D05003000E
:109350005322532211AA0000BC7F002018D0304FA6
:109360000328396802D0042812D030E0080CB0423B
:1093700012D055267602B04230D12A4889B224E074
:1093800098422FD12848F9E7A8422FD12748F5E77E
:10939000274E88B2B0422CD10120F0BD080C000449
:1093A000104319E0904229D1080C0004184313E03F
:1093B000080C000420430FE0A04222D1080C000456
:1093C000284309E01A48090C0904014339600020C8
:1093D000F0BD080C000430433860F8E79042CFD16C
:1093E0001448CBE7A042CFD11348C7E75520400629
:1093F000C4E755267602B042D4D1CFE79842DBD1FC
:10940000D6E7A842E5D1DDE70C49002008607047A7
:10941000120489000A430A4980004018026070471C
:10942000C07F0020000011AA000033AA000055AA46
:1094300055AA0000000022AA000044AABC7F002018
:10944000000700501FB56C46E078FF4AA1795043F1
:109450000A182079E1210901484361793C235943E5
:1094600040181118E07AF84BA27B58431318207B60
:10947000E12212015043627B3C2462438018181899
:10948000814202D9081A04B010BD401AFBE770B53A
:109490008AB0044600886B469882A1789975E27874
:1094A000DA7522791A7662795A76A2799A76E74A3B
:1094B0001278002A65D0E54D10352A88904260D197
:1094C000A87881425DD10822294603A816F000F849
:1094D000049B039A06990598FFF7B4FFDC4988427C
:1094E0004FD82879217988420ED00822294607A82A
:1094F00015F0EEFF069B059A08990798FFF7A2FF63
:10950000FF212D31884236D3D0490822103103A8DB
:1095100015F0DEFF03A80FC8FFF794FFE1218900D3
:1095200088422ED868793C214843A979C94B421812
:10953000002041005D5A954203D8C9184D889542D4
:1095400019D2801C0828F4DBC24B00209B1F41006D
:10955000595A8A4206D865793C267543A679AD19D1
:109560008D4208D28A4209D365793C267543A67993
:10957000AD198D4202D800200AB070BD401C0328EE
:10958000E5DB0120F8E773B5684685780C2D17D820
:10959000C1781F2914D80279172A11D843793B2B97
:1095A0000ED884793B2C0BD80688A848103006804A
:1095B0008570C1700271437184716E46F179C17119
:1095C0007CBD1CB5A44A801802D0012836D125E004
:1095D000084609886A46118081789170C178D170F7
:1095E000017911714179517181799171C179D1718B
:1095F000FFF74DFF002822D001990098FFF7C3FF25
:10960000924C2078002804D1944807F070FC012087
:10961000207092483E3007F06AFC0FE08B48103013
:1096200002880A8082788A70C278CA7002790A71C8
:1096300042794A7182798A71C079C87100201CBD53
:1096400070B5012918D1814900780C31052806D060
:10965000062812D009280FD1CC78814D22E0804D08
:109660000C78B83D06E0641EE4B2A000285800283B
:1096700000D08047002CF6D170BD794D4C782C3D40
:1096800006E0641EE4B2A0002858002800D08047FD
:10969000002CF6D170BD641EE4B2A000285800284A
:1096A00000D08047002CF6D170BDF8B5674F103759
:1096B0003846BC78C5780688022C10D01E2D31D2D1
:1096C000012C2FD0032C2DD0052C2BD0072C29D0EA
:1096D000082C27D00A2C25D00C2C3AD122E01C2DA6
:1096E0000ED2FF219131304615F098FE002907D0A7
:1096F0006421304615F092FE00292AD0B00728D107
:109700001D2D1FD2FF219131304615F087FE002913
:109710001FD06421304615F081FE002912D0B00719
:1097200017D00FE01F2D0DD2012C12D0032C10D01A
:10973000052C0ED0072C0CD0082C0AD00A2C08D0EF
:109740000C2C06D00120F8700C2C05D2641CBC70C7
:1097500005E06D1CFD7002E0B870761C3E80F87963
:10976000062801D2401C00E00020F871F8BD70B559
:10977000364841680446491C10344160A0793B28B2
:1097800003D2401CA071052018E00025A57105201A
:1097900000F0EAF860793B2802D2401C60710CE0CE
:1097A00065712079172802D2401C207105E02571CF
:1097B000FFF77BFF092000F0D7F8062000F0D4F86F
:1097C00070BD38B521483F21490110300180012486
:1097D0008470C47000210171417181710422C271D1
:1097E000001F0170417081701D4AC1700846B83A6F
:1097F0008300401CC0B2D1502328F9D3184A00205E
:109800002C3A8300401CC0B2D1500B28F9D3144A23
:1098100000208300401CC0B2D1500A28F9D30B4865
:10982000104A0121083005F040FE002803D0002234
:109830001146FEF77BFF0C48694607F039FB00280C
:1098400016D00022114611E0805101004420002072
:1098500000A3020072150300BFEFFFFF43100000DA
:109860005C2700206F970100C3950100FEF75EFFA3
:1098700044484470002038BD10B542480121002200
:10988000C903806805F06EFE002803D0002211464F
:10989000FEF74CFF10BD30B53A4B02465B78002016
:1098A000002B14D0374B0C33052907D0062910D0D4
:1098B00009290BD1D9780A2915D308E01978232969
:1098C00005D28C00304D491C2A51197030BD012041
:1098D00030BD59780B29FAD22B4D8C008C352A518A
:1098E000491C597030BD284D8C00B8352A51491C8F
:1098F000D97030BD234910310A8802808A7882707D
:10990000CA78C2700A7902714A7942718A79827181
:10991000C979C17170471B4910310A7902704A79BF
:109920004270897981700020704716481030C079E4
:10993000704714483C22103001794079514308188F
:1099400070471048007870470E4840687047914251
:1099500004D8884206D3904202D903E08842FAD361
:10996000012070470020704701B5084A0121684670
:1099700005F021FB002803D000221146FEF7D6FE99
:1099800008BD000044200020A426002041960100CC
:1099900010B58848406805F022FE002803D0002258
:1099A0001146FEF7C3FE00F04AFA10BD1FB50021B4
:1099B000814A0091019102910391811A90420BD04A
:1099C00002DC7E49401804E0032929D07B48A530F9
:1099D0000818002824D118E0684600F04CFA6B46BD
:1099E00058785881D97899815A79DA81002805D137
:1099F000002903D1002A01D1022018726E480822E2
:109A000002A90E3007F076FA0AE0FFF7C1FF6C49B1
:109A10000C2008606A49083908606949091D086016
:109A2000002004B010BDFEB5064600246846047050
:109A30000F46204610F0BBF801A9132000F0CAF829
:109A40005C4D00280BD000F04FF96878401C68701E
:109A50006878142830D900F0C9F96C7036E06C7061
:109A60006846007900281BD0FF2819D02C70694661
:109A70003C2000F0AFF868460178B94200D339467F
:109A80000170C8B2002815D00A4631463F2000F0C8
:109A9000E1F800280ED000F027F9684604700BE0CA
:109AA0002878401C287028781B28E0D900F09EF9FF
:109AB0002C700BE000F018F9002010F091F84049EC
:109AC000091F086802229043104308606846007826
:109AD000FEBD70B563213B48FFF7A5FF0546022890
:109AE0000DD9384E0024103EA0003258002A02D072
:109AF000294634489047641CE4B2042CF4D370BD6A
:109B000010B500F0DAF800282DD02A482E4A01219D
:109B1000001D05F0CAFC002803D000221146FEF704
:109B200005FE244C00222949606805F01BFD002831
:109B300003D000221146FEF7F9FD0020214A01461C
:109B4000103A8300401CC0B2D1500428F9D3A17050
:109B50001F4807F0BDF9002803D000221146FEF788
:109B6000E5FD002010BD012010BD10B500F04BF93F
:109B7000104800221549406805F0F4FC002803D085
:109B800000221146FEF7D2FD10BD0A49897804294A
:109B90000AD20C4A0021103A8B00D358002B05D072
:109BA000491CC9B20429F7D30120704789005050DD
:109BB000002070475C200020034F00004DEFFFFFA6
:109BC0004C07005094270020D39A0100CD4C000090
:109BD000AD9901003EB50C46802108436A461071DC
:109BE000517102200246009002AB01A9002005F04D
:109BF000F3FF002801D001203EBD6846407A207066
:109C000000203EBD7FB5002415460E46062A13D817
:109C1000002E11D08021084369460873681C80B269
:109C2000009001AB012203A9002005F0D5FF002818
:109C300000D00120002802D0012004B070BD01A88E
:109C400004E0011949783155641CE4B2AC42F8D300
:109C50000020F2E77CB5002416460D46642A0FD892
:109C6000002D0DD08021084369460871701C0090BA
:109C70002B46012201A9002005F0AEFF002806D0E6
:109C800001207CBD281940782855641CE4B2B442F8
:109C9000F8D300207CBD0EB54006400E6A46107118
:109CA000517102200246009002AB01A9002005F08C
:109CB00093FF002800D001200EBD8D4800780028B9
:109CC00001D0002070470120704708B50020694688
:109CD00008700F20FFF77EFF69460878142801D02E
:109CE000002008BD012008BD08B569461720FFF710
:109CF00071FF08BDF0B589B000251C227D4901A87F
:109D000015F0E6FB00200FF052FFFFF7EDFF0028F3
:109D10003CD169461820FFF75DFF002600280ED1D0
:109D2000684600784106490E684601701820FFF722
:109D3000B2FF002803D1162006F00AFC30460028A6
:109D400024D1002401AF6000C1194978385CFFF7C5
:109D5000A2FF00281AD1641CE4B20D2CF3D369468B
:109D60001820FFF737FF00280ED1684601788020C1
:109D70000143684601701820FFF78DFF002803D1CA
:109D8000162006F0E5FB3046002801D0012505E04D
:109D9000FFF79BFF0100564809D0067000200FF026
:109DA0001FFF122000F099F8284609B0F0BD0121EC
:109DB0000170EBE710B5002108460FF0D3FE4E49C5
:109DC00000200860FFF796FF002800D0012010BD9A
:109DD00010B5002108460FF0C5FEFFF78BFF0028E5
:109DE00003D000221146FEF7A1FC10BD10B50021E2
:109DF000424A084605F0DFF8002803D00022114649
:109E0000FEF794FC10BD38B500200FF0D0FE694677
:109E10001820FFF7DFFE040009D168460178802092
:109E20000143684601701820FFF735FF0446002003
:109E30000FF0D6FE122000F050F8204638BD38B59D
:109E400000200FF0B4FE69461820FFF7C3FE04009F
:109E500009D1684600784106490E6846017018200D
:109E6000FFF719FF044600200FF0BAFE122000F0A1
:109E700034F8204638BD38B50446002020706070A4
:109E8000A070E070207160710FF091FEFFF71DFF70
:109E900000281BD0CA216020FFF7FDFE002811D149
:109EA00069460C20FFF796FE68460078552801D0D9
:109EB000AA280BD1192006F04BFB0622214610469A
:109EC000FFF7A0FE00216020FFF7E5FE00200FF065
:109ED00087FE122000F001F838BD810006483C38AA
:109EE0000818016802229143114301607047000085
:109EF00064200020841503003C070050D19D010020
:109F000000235A48032907D0052904D1002A01D08B
:109F10000121817003707047437070471CB50028A1
:109F200007D006F0DAF8002803D000221146FEF729
:109F3000FDFB14206946C880402088804C484B496E
:109F400000900831684606F008F9040003D00022AA
:109F50001146FEF7EBFB20461CBDFFB5434D83B019
:109F600028781E4614460F4600283AD16968002911
:109F700000D088470020A870012028703D486A461C
:109F80004760048103990446C9B20170468137488D
:109F9000083006F053F9002803D000221146FEF7DE
:109FA000C5FB207A8019800704D0002211460720C3
:109FB000FEF7BCFB638922896846616806F0A8F950
:109FC000040003D000221146FEF7B0FB29780029D7
:109FD000FCD16968002901D001208847A8780028B1
:109FE00002D0112007B0F0BD2046FBE7FFB51F4DA2
:109FF00083B068781C4616460F46002801D0112011
:10A00000F0E76968002901D00220884701206870C4
:10A0100018486A460C30476006810399C9B201703E
:10A02000448104461148083006F008F9002803D09E
:10A0300000221146FEF77AFB63892289694660682F
:10A0400006F0AAF9040003D000221146FEF76EFBC9
:10A0500069780029FCD16968002901D0032088476C
:10A060002046BFE701494860704700006820002093
:10A07000019F0100F827002000235D48032907D035
:10A08000052904D1002A01D0012181700370704795
:10A09000437070471CB5002807D006F01EF8002852
:10A0A00003D000221146FEF741FB64206946C880B8
:10A0B000802088804F484E4900900C31684606F059
:10A0C0004CF8040003D000221146FEF72FFB204677
:10A0D0001CBDFFB5464D83B028781E4614460F467A
:10A0E000002803D0A888401CA8803AE001202870EE
:10A0F0000020A870A968002900D088473E486A4619
:10A100004760048103990446C9B20170468138480A
:10A110000C3006F093F8002803D000221146FEF719
:10A1200005FB207A8019800704D000221146072001
:10A13000FEF7FCFA638922896846616806F0E8F850
:10A14000040003D000221146FEF7F0FA2978002916
:10A15000FCD1A968002901D001208847A8780028EF
:10A1600002D0112007B0F0BD2046FBE7FFB5204D1F
:10A1700083B068781C4616460F46002803D000209E
:10A18000E8801120EEE701206870A968002901D05D
:10A190000220884718486A460C30476006810399B8
:10A1A000C9B201704481044611480C3006F046F8EB
:10A1B000002803D000221146FEF7B8FA63892289ED
:10A1C0006946606806F0E8F8040003D000221146F2
:10A1D000FEF7ACFA69780029FCD1A968002901D002
:10A1E000032088472046BDE701498860704700008A
:10A1F0007820002079A0010010280020F0B5012669
:10A2000034468C40994D8000974F4519002B13D050
:10A21000BC60974C2C6100BF00BF00BF954C00197B
:10A2200006600802C01C1104084319050843286190
:10A2300000BF00BF00BFF0BDFC608F4CEAE78F4B52
:10A240005A68914207D888420CD35B695918891A19
:10A25000814205D806E08A1A824201D8884201D399
:10A260000120704700207047F8B58449844A886906
:10A27000486190604A6A022A01D9824A90607F4C04
:10A280000020203401278860B7E07C491C31885CBD
:10A2900000281BD000268E547B4990000958774D2A
:10A2A000002914D06B6999421DD3A15C774A8B00B9
:10A2B0006E4959180A61744910310858697800F0DC
:10A2C000CAF8A868810070482030465091E0A15C2F
:10A2D0006E4A8B00654959180A6169786A4A794063
:10A2E00010321058EBE7022AE9604DD2644E811912
:10A2F0000968296164492031095800291AD1624945
:10A30000012310310958A05C0322FFF777FFAA68E8
:10A310005D489100203047505D48C760F368E868A9
:10A32000834204D9A25C9300524A9A181760891993
:10A3300008605EE05648C760F0682969FFF77FFF54
:10A340000028F7D0F068E968FFF779FF0028F1D01E
:10A35000F268296928468A4203D3F268C3689A42A0
:10A3600006D3F2688A4209D2F268C1688A4205D3EC
:10A370008168615C8A003F4951180F60C16880683C
:10A3800080008019016034E03E4940394118896BF2
:10A390003D4E296120363158002935D0394E3D488F
:10A3A000C760F0682969FFF74AFF0028F7D0F06816
:10A3B000E968FFF744FF0028F1D0F168286981427D
:10A3C00003D3F168EA68914206D3F268824209D267
:10A3D000F068E968884205D3A868205C81002548B8
:10A3E00008180760A868E9688200264840381018F5
:10A3F000816322488168491C816020488268416AE3
:10A400008A4200D241E7F8BD1F49012310310958A3
:10A41000A05C0322FFF7F2FEAA681E4990003750A5
:10A42000CF601849CB68E9688B4204D9A25C9300DD
:10A43000104A9A181760134A403A8018D8E70F4A12
:10A4400010B5022128321170002801D8FFF70CFF47
:10A450000A48283010BD012282400348002901D05B
:10A4600082607047C2607047000500500065004080
:10A47000031F010000600040031F02008C20002029
:10A4800040A500404095004028280020001F030000
:10A4900040A000404090004038B500245C4A28218C
:10A4A000142004F075FD002803D000221146FEF7A9
:10A4B0003DF906F0F1FC57480090574B1522142146
:10A4C000002004F0A0FF002803D000221146FEF770
:10A4D0002DF9FFF776F9204638BD7CB5FEF70EFD65
:10A4E000FEF70BFD4D4D00202870FFF763FC0126A1
:10A4F0000446002805D00120FEF7E7FE002871D0B1
:10A500002E70182069464871B42008719420087094
:10A510004E7088208870019803F0F6FC040006D085
:10A520000220FEF7D2FE002862D00220287011F02F
:10A53000ECFE132806D00320FEF7C7FE00285DD0EE
:10A5400003202870FFF798F9FFF7DAFA01F081FA93
:10A55000002803D000221146FEF7E8F801F0C7F802
:10A56000002803D000221146FEF7E0F801F003F8BE
:10A57000002803D000221146FEF7D8F801F04BFF67
:10A5800009F097FA00F0B2FC002803D0002211462F
:10A59000FEF7CCF8FEF70AFE0FF03CFE0020FFF7B6
:10A5A00079FD08F0F9F808F08BFF08F0D4FC07F00B
:10A5B000A8F806F020FE02F05EF9002803D0002281
:10A5C0001146FEF7B3F809F02CFD08F06CFBFEF71E
:10A5D00068FD01F094FDFEF717FF02F084FC0020F7
:10A5E0007CBDFFE7002220461146FEF79FF888E772
:10A5F000002220461146FEF799F898E700221146FE
:10A600000520FEF793F89DE70448007870470000A6
:10A610005828002093060200D42C0020BC200020E3
:10A62000FA4840787047F8B5F94F0021C61BF74A41
:10A63000F84C02230125B84221D009DCF64BC018A2
:10A640002BD001282BD005280CD0062842D10EE0B3
:10A65000012E19D0F048313030183AD0EF4E801921
:10A6600038D120E091705170E9480C3803E09170C6
:10A670005570E7480B3806F03AFC25722AE09170D5
:10A680005370E3480A38F6E795705370E0480A388B
:10A6900006F02DFCDE480938EDE7E5701AE0E170C0
:10A6A0001E20207116E050786A461070002804D0F1
:10A6B000012804D0022805D103E0157002E01370D0
:10A6C00000E0117001226946D54806F013FCE571DF
:10A6D00000E021720020F8BD70B5CC4CA08800F0DD
:10A6E0002FFACC4DA97905290FD22946AA791C3118
:10A6F0008854A879401CC1B228461C3000F04AFAA0
:10A700002070A879401CA87170BDC24A05251C3272
:10A7100000216B1E03E0561876785654491C994266
:10A72000F9DB51192039C877BA4805211C3000F0EF
:10A7300031FA207070BD08B5002069460880B9491B
:10A740000A68002A21D00860B748806869460880F6
:10A75000B64901204860694608884B2109014843F1
:10A76000FF2114F05BFEB2494843C42114F06CFE93
:10A77000A6498880AF4A0421002004F01CFC002870
:10A7800003D000221146FDF7D1FF08BD70B5A148E6
:10A79000007A002827D1A848012444609B4880689B
:10A7A0000102A14841609F4E0025356004600720EA
:10A7B00032DF002803D000221146FDF7B7FF032146
:10A7C000072033DF002803D000221146FDF7AEFF3B
:10A7D00007202EDF002803D000221146FDF7A6FF38
:10A7E00035609248046070BDF8B58A4F0446F87B26
:10A7F000844206D0012C05D1B87B052802D0401C2C
:10A80000B873F8BD0026BE73804DFC73002C0AD0CF
:10A81000012C02D0022C0CD11DE001206870AE701A
:10A820007B480B3803E06E70AE7079480C3806F048
:10A830005EFBB969002901D0E0B28847F8790028A9
:10A84000DFD068786946087000280BD001280BD04B
:10A8500002280DD10BE002206870012078716C484D
:10A860000A38E4E7012000E00220087000E00E70E2
:10A8700001226B4806F03EFBF8BD70B5654C207AAE
:10A8800000282CD1614D687B00F054F9002804D1D8
:10A89000287B00F04FF9012805D0687B00F04AF9C9
:10A8A000012802D006E000201AE0287B00F042F9DF
:10A8B000012815D0287B00F03DF900280FD1022097
:10A8C000FFF792FF6079002100280CD0207C421C09
:10A8D0002274032803D96171A171FFF757FF70BD7E
:10A8E000FFF782FF70BD217470BDF8B5494D00249B
:10A8F000687C002807D0401E6874FFF747FF687C1B
:10A90000052800D8AC702878002804D0FFF73EFF57
:10A910006878401C687000F04BF9FFF7AEFFE878EC
:10A92000002805D12879002802D02879401E2871F6
:10A93000364A5778364801210C2302261238022F56
:10A9400017780AD0052F02D2EF78002F77D0AC729B
:10A950002C731178052952D842E0052F02D2EF78E6
:10A96000002F17D01778062F05D91778092F02D294
:10A97000EF78002F26D013780D2B3BD91378142BAA
:10A9800038D2AC722C73687A012812D020486972D0
:10A99000113838E0AC72687A03280AD0287B002886
:10A9A00005D0687B002805D0401E687318E0297325
:10A9B0006B73F8BD0320687215480F3806F097FADC
:10A9C0002C73F8BD2C73687A0228FAD0A87A002874
:10A9D00003D0E87A00283CD105E0A972EB72F8BDFB
:10A9E000FFF7D4FEF8BD0A486E72103806F07FFA01
:10A9F000AC72F8BD11781729FBD9AC722C73697A47
:10AA00000029F6D06C7206F072FAF8BD3C360020D0
:10AA10003D100000C0200020CAEFFFFF38D1FFFF2B
:10AA2000144F0000007100400075004000700040AD
:10AA3000AC040000D9A6010000730040FFE72C73AE
:10AA4000687A0228CCD0A87A0028C6D0E87A0028F4
:10AA500002D0401EE872C3E76E72AC727548D2E74E
:10AA600075490020487270477348C178002903D1A6
:10AA70000079002800D189E6704770B506466E4817
:10AA80008CB00025057045706C4894002418256032
:10AA90008C00201805606A4C02206070A57064204C
:10AAA0002070A36062732173002E2FD01022B11882
:10AAB000684614F00DFD2022314604A814F008FD6C
:10AAC00004A80FC800F09FF8FFF760FE05215D485D
:10AAD000FEF7E1FE002803D000221146FDF726FE16
:10AAE00006215948FEF7D7FE002803D00022114660
:10AAF000FDF71CFE5548694606F0DAF9002803D038
:10AB000000221146FDF712FE0CB070BD1022504914
:10AB1000684614F0DDFC4E4920221039CDE7484844
:10AB2000007870474648808870474548807870476D
:10AB30000020704747490969C140C807C00F7047E6
:10AB400070B53F4A04461032917F002005E0430073
:10AB5000D35AA34203D9401CC0B28842F7D38842DB
:10AB600001D3002070BD002812D01118CB7C0D7DC0
:10AB70004000591B8318203BDB8B165A981B14F09E
:10AB800063FC0146A01B14F05FFC4019C0B270BD0D
:10AB9000642070BD034610B50020024602E09C5CB4
:10ABA0002018521C8A42FADB14F038FCC0B210BDE7
:10ABB00010B5214A9078002801D0032000E01E2023
:10ABC0001F490B78142B05D24B78022B02D18B78BE
:10ABD000002B07D00020107050700A78152A00D979
:10ABE000887010BD0123137054788442F9D98B709A
:10ABF000097801205269002A00D090470D48C01DF5
:10AC000006F075F910BD0FB410B50D480A2207A95A
:10AC1000243014F05DFC0A48142202A9103014F00C
:10AC200057FC074908A880791031887710BC08BC08
:10AC300004B018472D100000C0200020000700506D
:10AC40003C360020EBA8010069AA010027A60100FC
:10AC5000AE15030000050050F0B4FB4E002435464D
:10AC600020462035062343439B195F79012F0DD1E0
:10AC700000245C715C78670807D1640864005C702C
:10AC80002B7F002B01D05B1E2B770124401CC0B210
:10AC90000A28E7D3002C06D0EC480368002B02D02A
:10ACA000F0BC0E201847F0BC704710B5FFF7D4FF7A
:10ACB0003D21E54814F025FC10BDE3482030007F1D
:10ACC000002800D00120704710B5FFF7F6FF0028DC
:10ACD00007D0FFF7EAFFDD484168002901D00220D4
:10ACE000884710BD30B40A281FD800281DD006237D
:10ACF0005843D54BC0182038C37F012B15D10023F2
:10AD0000C377C37E5C0809D15B085B00C376CE4B7A
:10AD10002033187F002801D0401E1877CB480368E5
:10AD2000002B02D030BC0E20184730BC70470A28D8
:10AD30000CD800280AD006214843C34940182038BF
:10AD4000C07EC043C007C017401C7047002070473A
:10AD5000F8B504460078411E0A2912D2002C10D002
:10AD6000FFF7E5FFB84EB94F35462035002802D031
:10AD70006078C00707D02078FFF7D9FF002816D0E9
:10AD80002CE00120F8BD2078FFF7ACFF20780622E8
:10AD90005043801900212038C1767968002901D0FC
:10ADA00002208847287F002831D0401E14E06078B8
:10ADB000C00713D020780621484380190A46801F17
:10ADC000214614F085FB7968002901D001208847CD
:10ADD000287F09281BD2401C287718E02078FFF72D
:10ADE000A6FF002813D06078C00710D02078FFF7A6
:10ADF00079FF20780621484380190A46801F2146A2
:10AE000014F066FB7968002901D0032088470020F0
:10AE1000F8BD1CB58E4A8F4C821804D0792A11D007
:10AE2000A32A14D10EE008786A461070C878907092
:10AE30000879D07088781071487950706846FFF7AB
:10AE400087FF01E0FFF740FF204606F050F80020A2
:10AE50001CBDF0B5002585B02C46FFF7FDFE02A80D
:10AE6000FEF748FD6946CF7B0126791C8E40002005
:10AE700001210E43062102464A43734933465118C5
:10AE80004A78934301D0012A0ED16A46527BCB788F
:10AE90009A4209D16A46127B8B789A4204D10122E8
:10AEA0004A71411CCCB21546401CC0B20A28E1D3FD
:10AEB000002D19D065480368002B11D06A46147024
:10AEC00006204443604820182038817FD170017FDC
:10AED0005170407F907017710D20019A009998472A
:10AEE0005C48813806F003F805B0F0BD08B53D2197
:10AEF000554814F006FB55490020086006215648C5
:10AF0000FEF7C9FC002801D0012008BD534869465E
:10AF100005F0CEFF002803D000221146FDF706FC05
:10AF2000002008BDF1B584B04D48002402902546AC
:10AF30006846FEF7DFFC6A46D17910793C2250431F
:10AF40006A465279012683184A1C96400020012245
:10AF50001643B4460626024672433B4E6746921994
:10AF60005678B74301D0012E15D196783C277E4301
:10AF7000D778F6199E4209D9F21A029E012492B29C
:10AF8000B24208D20292421CD5B204E09E4202D1E3
:10AF90005279012A06D0401CC0B20A28DAD3002C0C
:10AFA0002FD102E0401CC5B22BE0062901D2491C7A
:10AFB00000E000212A4E0020C9B2844601274A1C25
:10AFC0003B46002093403B439E46062302465A439D
:10AFD0001D4B7746D21853789F4301D0012B0AD1DD
:10AFE00093783C27D2787B439A18B24203D2431C11
:10AFF000DDB201241646401CC0B20A28E5D3002C5D
:10B0000014D0062045431048049A28182038837E1F
:10B010001370049A837FD370049A037F5370427F26
:10B02000049882700498017100205DE7062901D21E
:10B03000491C00E000216046401CC0B2C9B28446F1
:10B040000728BBD301204FE76C360020E420002006
:10B05000FFEFFFFF8310000053AE010013AE0100AD
:10B06000FFFF00007A480021017041808180C1808B
:10B07000704773B568464278172A0ED884783B2CFF
:10B080000BD8C378172B08D805793B2D05D8C18874
:10B090000078052903D2002801D001207CBD6C4E28
:10B0A00030703C204243101970803C2043435819B3
:10B0B000B0803C204143F180002031460C3988802B
:10B0C0007CBDFEB5634A644C821804D0692A22D044
:10B0D000932A1ED11FE00D78172D08D84A783B2AF5
:10B0E00005D88878172802D8CB783B2B01D90120C6
:10B0F000FEBD0F796E4637707570B270F0703371A7
:10B10000C888F08001990098FFF7B3FF204605F04A
:10B11000EEFE0020FEBDFFF7A5FFF7E7F8B54C4CAB
:10B120002078C10734D0274601250C3F012810D1D3
:10B13000FEF7FFFBA2886188FEF709FC002801D01A
:10B140007D7006E07878002803D020784008400021
:10B15000207000F091F8002600281AD0B878401C22
:10B16000C0B2B87007280ED9FE70387800280AD00F
:10B170003E70BE80B968002901D00120884736485A
:10B18000743805F0B4FEB8781E2801D9BE80BE70B0
:10B19000F8BDF878401CC0B2F870092800D9BE701C
:10B1A000B8882E49884201D2401CB8802848E188DE
:10B1B0000C3880888142EBD8FEF7BBFB0090FEF78D
:10B1C000B4FB401C2F46874020782F430740FEF7F2
:10B1D000ACFB401C2946814029438F4202D1207894
:10B1E000C00702D12078012808D1A2886188009880
:10B1F000FEF7ADFB002801D0012000E00020002870
:10B20000C6D0134C0C3CA168002901D0022088470D
:10B210001148753805F06BFEA088E080A680257087
:10B22000F8BD08B505210E48FEF735FB002801D012
:10B23000012008BDFFF716FF0A48694605F038FEF1
:10B24000002803D000221146FDF770FA002008BD47
:10B25000F8200020EFEFFFFF87100000FFFF000045
:10B260001DB10100C3B00100F74800210160416039
:10B2700081600182C160704710B514F007FE10BDF7
:10B2800070B514F003FE0025F04C00282ED0A079F4
:10B29000401CC1B2A171E5710B291CD01D2907D931
:10B2A00020893C22504314F0B9F860812581A571B2
:10B2B0006078002816D0E44AA078D168401C0918AC
:10B2C000D160E24A2032D1780918D170111DCA88A4
:10B2D0001018C88014E020893C22504314F09EF8D6
:10B2E0006081E5E7A078401CA0700AE02581A57187
:10B2F000E079401CC0B2E071022800D96581657018
:10B30000A570E078202804D92179392901D90520B0
:10B3100005E0152805D92179322902D90420607168
:10B3200070BD0F2804D921792A2901D90320F6E715
:10B33000092804D921791E2901D90220EFE705281F
:10B3400004D92079052801D90120E8E7657170BD8D
:10B35000F3B587B00798002400287DD0FF20069021
:10B3600000200590FF20029000208446FF2605461D
:10B3700048E0079906220B5609188A56934201DDC8
:10B380009A1A00E0D21AD2B2032A15D20123072258
:10B39000CB568A56934201DD9A1A00E0D21AD2B2F5
:10B3A000032A09D202230822CB568A56934201DD92
:10B3B0009A1A00E0D21AD2B2022A03D9A34B1A7900
:10B3C000521C1A718A79069F8032D3B2CA79097ADF
:10B3D00080328031D2B2C9B2BB4200D20693059FFF
:10B3E000BB4200D90593029B9A4200D20292624569
:10B3F00000D99446B14200D20E46A94200D90D466A
:10B400000930C0B20146089A08319142B1D3069979
:10B4100005986246401A0299511A884200DC084693
:10B42000C0B28A4FA91BF870814200DB0846F87051
:10B430006A460899079814F031FD68464078824DB5
:10B4400000287DD03989814E4118398120363070ED
:10B4500001217970296800E086E0081869462860B3
:10B460000978002909D06968884206D9411ACCB206
:10B47000321D1188091911806860B86900280ED042
:10B4800008F077FB2968884202D90020387006E06E
:10B490003878002803D101203870B86980476A489D
:10B4A0000C38002C0BD00168012C5FD0FA68614386
:10B4B0008918F960017A61433A6989183961012272
:10B4C00069460A712968029104464068F968884211
:10B4D00015D25E4B2433298A491C29827178491C74
:10B4E00071709988491C9980F968091AF960884235
:10B4F000F1D30220024368460271298A0182607AF0
:10B500003969884217D2514A2432A968491CA96076
:10B51000B178491CB1705188491C51803969091AA8
:10B5200039618842F1D369460879042108436946A4
:10B530000871A86803907C69002C04D001A800E081
:10B540000CE00FC8A047F969002907D03F48006AFE
:10B550008847002030707070B070F07014F096FC66
:10B56000002801D16868286009B0F0BDFA68891820
:10B57000F960017AA0E770B5344D00246C6134485D
:10B58000AC61FEF702FB002805D105213148FEF72A
:10B5900082F9002801D0012070BD09212E48FEF754
:10B5A0007AF92C70002070BD002809D02649026865
:10B5B0000C390A6042684A60027A0A72407A48721C
:10B5C000704708B5052809D3322907D8884205D81D
:10B5D0006A4610705170009814F000FD08BD1B48B9
:10B5E000408970471949486170471748406870475B
:10B5F0001548006870471448008A704712488068F0
:10B6000070471148C06870470FB40F480199016036
:10B6100001994160029981606946098A0182039912
:10B62000C16004B0704703B50848694609882430F2
:10B6300001806946498841806946898881806946D8
:10B64000C988C1800CBD0000B83600200021002050
:10B6500051B3010081B2010069B20100002808D095
:10B6600017490A8802804A8842808A888280C9886D
:10B67000C180704712480021018041808180C180D3
:10B680007047104900200860486088600882C860E0
:10B690000B492439C8600861704709492439C861D9
:10B6A00000202031087048708870C87070470449C5
:10B6B00000202439C8617047014824384079704718
:10B6C00024210020B836002070B50E46054600241F
:10B6D00009E02B19022201219A565956285714F0D5
:10B6E000BBFCE41CE4B2A01CB042F2D370BD10B5A8
:10B6F0000348FEF74AFA002800D0012010BD0000E0
:10B70000C9B6010010B5FF499CB040181FD1FE4CCE
:10B710000120A070A069002819D06078002803D00B
:10B7200002A813F035FA0DE0207900280FD1F74870
:10B730004279017901920091C3788278018802A848
:10B7400013F05AFA002802D1A16902A88847002004
:10B750001CB010BD10B5EC4C9AB0142808D00A28C3
:10B7600004D1E169002901D0012088471AB010BD39
:10B7700001202071A070A069002809D0684613F04C
:10B7800007FA68468089042802D9A1696846884773
:10B79000E1690029EAD00020E7E7DB4800210171D8
:10B7A0008170704738B5D8490B780A460F32107847
:10B7B000002B01D1012825D14C7A00234B72052C96
:10B7C00002D9CC78641CCC7001281BD1D0783B28DE
:10B7D00002D2401CD0700AE0D37090783B2802D28D
:10B7E000401C907003E093705078401C50704C697E
:10B7F000002C07D0C44904220F31684613F068FEBC
:10B800000098A04738BD3EB5BF480178002904D153
:10B8100001460F31097801293DD1C1786B46197273
:10B820000022C2704189D98042815A72417900292F
:10B8300009D0152901D2012104E02F2901D20221CA
:10B8400000E00321597242710079002803D0587A30
:10B8500004210843587202F072F84024002803D1F2
:10B860006946487A20434872FEF7DAFE022803D080
:10B870006946487A20434872A4486A460188118084
:10B8800081789170C178D1700179117140795071CE
:10B89000684612F02DFF3EBDF3B59B4901220C31E5
:10B8A0008A560025964602228A564D5782B0944603
:10B8B0000021BFE044564618019601230222924F10
:10B8C000F356B2560C370026BE570096A64201DD4D
:10B8D000361B00E0A61BF6B2032E2DD2A54201DDD9
:10B8E0002D1B00E0651BEEB2032E25D2864D0126EE
:10B8F0000C35AE579E4201DDF61A00E09E1BF6B2F3
:10B90000032E19D276469E4501DDF61A00E09E1BF5
:10B91000F6B2032E10D20226AE57964201DDB51ABA
:10B9200000E0951BEEB2032E06D26546944501DD7C
:10B93000AD1A00E0551BEEB2022E1AD9B61EF5B2B2
:10B94000734E771B704E7689B74202D96E4F7619C7
:10B9500001E06F4E6C4F7E81FF26771B6A4E767A30
:10B96000B74203D9684F75197D7202E0664DFF2614
:10B970006E72654E01270C36F757009DBE460227B2
:10B98000F7573470BC4673705F4FB270BA79642A4F
:10B9900004D23B7A002B01D0521CBA717A79009202
:10B9A000642A45D2242901D2002201E00A46243A21
:10B9B000D2B28A423CD2445683569C4201DDE31AFD
:10B9C00000E01B1B092B18DC019C0123E3568618A1
:10B9D00001243457A34201DD1B1B00E0E31A092BAD
:10B9E0000BDC019C0223E35602243457A34201DD01
:10B9F0001B1B00E0E31A092B22DD3A7A002A15D03E
:10BA0000BA791346123B1B2B0AD2FA79042A03D9BE
:10BA1000009A521C7A7101E0521CFA71002203E074
:10BA20002D2A05D300223A72BA7101E001223A723E
:10BA3000C91CC9B2039B8A1C9A4200D23AE7FFBDD7
:10BA4000BC793B463C2C02D900241C72FC71D21CF0
:10BA5000AEE72D4910B500200A46C8700F321070AD
:10BA600050709070D07048618861C8612948FEF7B5
:10BA70008CF8002811D106212748FDF70CFF00287B
:10BA80000BD105212548FDF706FF002805D1092126
:10BA90002348FDF700FF002801D0012010BD11F060
:10BAA000D3FE204813F0F2F81F4805F011FA0028E1
:10BAB00003D000221146FCF739FE002010BD10B55E
:10BAC000114C0F342078012808D111F0D4FF0E4812
:10BAD000006A002800D080470020207010BD38B5D3
:10BAE000094C0F34207801280AD108484179009187
:10BAF0000379C2788178008811F0A8FF00202070B7
:10BB000038BD0000ADDFFFFF2C21002054200020B5
:10BB1000FF03000099B8010007B80100A5B70100B4
:10BB20009BB7010055B7010005B701000649012088
:10BB30000870704704490020087070470249886106
:10BB400070470148807870472C21002010B5FEF71F
:10BB5000E6FF584C002803D1FEF762FD022810D002
:10BB600000206071A0702078002809D0A0780028FB
:10BB700006D160791E2803D90120A07000F08BF84F
:10BB800010BDA0780028EED16079401C6071FEF7EE
:10BB9000FDFDE8E710B5474C2078002803D0E068A9
:10BBA00003F01DFD10BDFEF768FEFEF7EFFD2079E6
:10BBB000411C21710528F5D9FEF7B4FF3E498842A2
:10BBC00009D2FEF72DFD0028ECD03C4805F08FF996
:10BBD00000F061F8E3E7E06803F001FDFEF79FFF86
:10BBE000002803D1FEF71CFD022806D03348401E72
:10BBF00005F07DF90120E07010BD3048801E05F091
:10BC000076F900F048F810BD0020704708B52C48C0
:10BC1000694605F04DF9002803D000221146FCF7D3
:10BC200085FD08BD10B505212648FDF734FE002826
:10BC300003D000221146FCF779FD20230C220A21B3
:10BC40000020FEF71AFF1B481F4A01210C3003F0A9
:10BC50002CFC002803D000221146FCF767FD154C90
:10BC600000221A49E06803F07DFC002803D000227E
:10BC70001146FCF75BFDFFF7C9FFFDF71AF803F06B
:10BC80000CFAFDF755F9E0780028F6D00120207075
:10BC9000FEF7E6FE10BD10B5064CA168002901D0E4
:10BCA000207888476078002803D00448793005F070
:10BCB0001EF910BD50210020E40C00003A100000D5
:10BCC00009BC01004DBB010095BB01009A190000A1
:10BCD00010B5E14C2269002A02D0A17A607A90471F
:10BCE000607A002801D0DD4801E0DC48401C05F006
:10BCF000FEF810BD10B5D84A137A834219D01072DD
:10BD0000002801D001231371D070002353615072B9
:10BD1000002901D0012000E000209072D04A0421C7
:10BD2000002003F048F9002803D000221146FCF758
:10BD3000FDFC10BDC8488089C0B2704770B50B4685
:10BD4000C54C0146A079002812D0C4480A880025B5
:10BD50002338102A0DD0112A0AD01A2A08D1E571E9
:10BD600006228A5655420C21615E814217D1A58177
:10BD700070BDA08101221146184684DF002803D03F
:10BD800000221146FCF7D2FC0120A07025716570DD
:10BD90006561A089C1B20020FFF7ACFF70BD0C2027
:10BDA0000321205E13F050FB46000321284613F0C8
:10BDB0004BFB3018A08170BD10B5A74CA0790028AE
:10BDC0000BD0FCF7A1FE0021002800D1A17061700A
:10BDD000A089C1B20020FFF78DFF10BD7CB5684679
:10BDE000FDF788FD6846417900793C225043FF38D1
:10BDF000A53808189B49884223D2974C2078002800
:10BE00001FD0A07800281CD007F02AFC002818D0EA
:10BE1000FCF77AFE25461835002807D02978A08936
:10BE2000C0B200F0F2F8E079401CE071E078002840
:10BE300008D06069401C606160693C2801D9FFF747
:10BE4000BBFF7CBDFCF760FE002805D168780128A7
:10BE500002D1207900281AD0FCF756FE0028F0D134
:10BE600068780028EDD120790028EAD10C212878C3
:10BE7000615E88420BDD6078411C617029798842DF
:10BE8000DFD9A089C1B20120FFF734FF7CBD607803
:10BE9000411C6170E978F2E710B50446FCF721FF18
:10BEA00001462046FFF74AFF10BD07B56A49897968
:10BEB000002913D0022811D881006B4A6B46411823
:10BEC0009B79881883706B46DB79C3706B461B794E
:10BED00053546B4659794170197A01710EBD10B5F2
:10BEE0005D498979002911D002280FD881004218B4
:10BEF0005D4B5949D018447818314C709A5C0A70DF
:10BF000082788A70C278CA7000790871002010BDEA
:10BF10001CB5514A9379002B2FD0544BC0180023E5
:10BF2000002806D0032813D0592825D0832824D1EF
:10BF300022E00878002809D0012010700220FFF7C5
:10BF4000CEFF4648C01C04F0D2FF16E01370F8E79D
:10BF500088786A4690700879D070C878002800D038
:10BF600001205070487810700878019A401EC0B2C5
:10BF70000099FFF79AFF00E0137000201CBD38B550
:10BF8000354A106135482338908111700024D470EF
:10BF9000012595713648FCF795FE002803D0002254
:10BFA0001146FCF7C3FB05213248FDF774FC00285D
:10BFB00003D000221146FCF7B9FB2F48694604F074
:10BFC00077FF002803D000221146FCF7AFFB26487C
:10BFD000052144708170502202700422C270062232
:10BFE000027184710722C2715522427101720821C7
:10BFF0004172C5720F210173322282721422427380
:10C0000081730220FFF76BFF38BD70B512481830FE
:10C010004278002A1ED1104C0C22A25E8A4211DD09
:10C020002179002916D180786178884206D8FFF7F7
:10C0300081FE01460120FFF75DFE0BE06078401CA9
:10C04000607007E000256570A089C1B22846FFF73F
:10C0500051FE2571012070BD6021002022100000DA
:10C06000D1BC010049030000CC360020DFEFFFFF08
:10C0700099BE0100DDBD010011BF0100EFF3088092
:10C08000FDF721F9FEE70000FEB507F0E9FA002808
:10C0900011D12248006900278004C00F204C0028DD
:10C0A0000AD02078002805D008F012F81D4804F0C6
:10C0B0001EFF27706770FEBD19481F2241780D23AF
:10C0C000491C41700E211046009708F012F8062115
:10C0D00001A8FCF7C6FF062501AE0024305D07F07D
:10C0E000FFFF641CAC42F9DB0A2007F0F9FF0C48A3
:10C0F0000121017047700846FCF744FBFEBD10B5F6
:10C1000009490C20086005210848FDF7C4FB0028F8
:10C1100003D000221146FCF709FB10BD00050050BA
:10C120007D210020B41000003407005089C00100B8
:10C1300010B5002804D01022114913F0C9F90120CC
:10C1400010BD10B5002818D00D4C1422143421460F
:10C1500013F0BEF900221046235C99188AB2FF2B17
:10C160000CD0401C1228F7D3E07CA17C00020843CD
:10C17000904203D1002801D0012010BD002010BD45
:10C180008810001070B55E4E0024E0003158002980
:10C190000CD08519E988002908D0491E0904090C2A
:10C1A000E98003D130588047A888E880641CE4B255
:10C1B000052CEAD370BD10B5524A0121524803F054
:10C1C00074F9002803D000221146FCF7AFFA0020D2
:10C1D0004B4A0146C300401CC0B2D1500528F9D3D8
:10C1E0004948001F41700121817010BDF7B5464ECE
:10C1F000361FB17800290ED03146414F0D7800240A
:10C20000E1007958814216D1002A06D064210198B4
:10C2100013F004F902E00120FEBD0020E100CC197A
:10C22000A0806421019813F0F9F8E080002D0FD16F
:10C23000012030700CE0641CE4B2052CE0D3002136
:10C24000CB00FB58002B07D0491CC9B20529F7D3F6
:10C250007078002816D025E0CC003851002A04D090
:10C260006421019813F0DAF800E00020E419A080BE
:10C270006421019813F0D2F8E080052DE8D26D1CFE
:10C280003570E5E7307800280CD000221F4970682F
:10C2900003F068F9002803D000221146FCF746FAA3
:10C2A000012070700020FEBD70B5174C241FA178CE
:10C2B000002917D00021124B0D46CA009E58864215
:10C2C00005D19D502278002A01D0521E2270491CAF
:10C2D000C9B20529F1D3607800280FD02078002852
:10C2E00002D00BE0012070BD606803F078F90028EF
:10C2F00003D000221146FCF719FA6570002070BDCA
:10C30000DC36002085C1010084210020CD0C000016
:10C3100010B5734902204870FFF7C9F91D210920A3
:10C32000FFF74FF900F033F9042000F0EFFE10BDE5
:10C3300070B56B4D687801286CD16A4E6A49708A75
:10C34000884202D2401C708206E0FFF7E1FFA96834
:10C35000002901D002208847FEF78EFF0024002824
:10C3600013D0A878052802D2401CA87033E0FF2023
:10C370002D30E880EC70287900282CD0EA68002A5B
:10C3800029D003210020904725E0E878022801D930
:10C39000AC7001E0401CE870E888012815D9401E07
:10C3A00080B2E8800F2815D22979002904D02969A4
:10C3B000002910D088470EE0EA68002A02D0032145
:10C3C000012090470120287105E0A968002901D0CB
:10C3D000032088472C712878002801D0401E18E0DF
:10C3E000424C0121608BC90288420AD200F0CDFF85
:10C3F0003C49628B1A315054618B7076491C6183C1
:10C4000006E0FFF785FFA968002901D001208847D1
:10C410000A20287070BD10B505213548FDF73BFA9C
:10C4200010BD01B52F486A4612788168891881606D
:10C430006A469278C1688918C1606A46018A527852
:10C44000891801826A46818AD2788918818208BD5A
:10C450001CB56846FDF74EFA2149012048706A462E
:10C460002048128802806A46927882706A46D278A2
:10C47000C2706A46127902716A46527942716A46FE
:10C480009279827100248460C46004828482448230
:10C490008C70FF20CC702D30C8801648FFF7FDF857
:10C4A0000A210920FFF78DF8104800214483042059
:10C4B00000F08BFE00F056F81CBD094840780128BA
:10C4C00000D0002070470748806870470548C06862
:10C4D00070470448008A704701498860704700002F
:10C4E000882100200437002060540000043F002011
:10C4F00031C3010023C40100334AD078082802D296
:10C50000801CD07012E00021D17090783B2802D2BC
:10C51000401C90700AE0917050783B2802D2401C79
:10C52000507003E051701078401C10702648083895
:10C530000168002907D01378002B02D0D278002A96
:10C5400001D18068084770471F4810B51F4A012174
:10C55000001F02F0AAFF002803D000221146FCF7BA
:10C56000E5F810BD184810B5083800221849406891
:10C5700002F0F8FF002803D000221146FCF7D6F89D
:10C5800011490020087048708870C87010BD0E48AE
:10C5900010B50838406803F022F8002803D00022C4
:10C5A0001146FCF7C3F810BD002808D006490A78E8
:10C5B00002704A7842708A788270C978C170704778
:10C5C0000149083908607047A4210020F9C401001E
:10C5D0009A190000014601200A0606D5880609D5E9
:10C5E000C80605D5080701D5062070470420704706
:10C5F0000320704702207047FFB585B00123002457
:10C60000C9B2164601942546029404930391009002
:10C6100084E00098405DFFF7DDFF0146032808D95C
:10C62000FF203055202032196D18A41C5070E4B240
:10C6300074E0032904D0022938D001285FD067E0D4
:10C640000020019002900098405DE22807D10098F8
:10C6500040194278802A02D180788E280DD0009827
:10C6600001AA401912F092FD6A4630191179017041
:10C6700052794270002905D006E0FF20305531196B
:10C68000487011E0FF213155002A01D1FF2141708E
:10C69000315DA139562904D84178A02901D3FE295A
:10C6A00002D9FF2131554170ED1C25E0009A002090
:10C6B00052199446009A8646535D1B4FC200BA58E1
:10C6C00017043F0EBB420BD167467F78D2B2974228
:10C6D00006D1FF223255C20013481018007908E035
:10C6E000401C3128E9D37046002804D1FF20305582
:10C6F0002020321950706D18A41CE4B208E0FF200D
:10C70000305500983119405DA41C4870E4B26D1C8E
:10C710000898844202D3012009B0F0BD03988542F5
:10C7200000DA76E70498F7E7C015030010B55E4914
:10C7300008705E4804F0DBFB10BDFEB50C465A4D98
:10C740005B49AD1C40180027AE1E002848D02A289F
:10C7500046D0574A9432801838D12078AA2802D07F
:10C76000552835D032E06846FDF7C4F820782870A7
:10C7700060786870A178A970E278EA7023793C2427
:10C7800062432B716043D21841186B4618795B796C
:10C790006043464CC0180123A41E914209D881422F
:10C7A00007D8824205D373700120FFF7BFFF2046F0
:10C7B0000AE091420DD3814203D82D2149018842DC
:10C7C000F1D98242EFD204E004F091FB0020FEBDDB
:10C7D000287077700020FFF7A9FF3448401EF3E768
:10C7E0002F70F6E73048007870477CB52E4CA41CBB
:10C7F0002078AA2827D16846FDF77CF860783C218C
:10C800004843A1783C224018E1786B465143227995
:10C81000264E8A1819793C2359436B465B790125CA
:10C82000C918B61EA41E90420ED888420CD88A425F
:10C830000AD36078002806D10120FFF777FF304641
:10C8400004F055FB65707CBD904207D3884203D845
:10C850002D2040018142ECD98A42EAD2607800283A
:10C86000F1D00020FFF762FF1048401E04F03FFBAC
:10C87000002060707CBD08B50B49002008700621BF
:10C880000C48FDF708F8002801D0012008BD0A482F
:10C89000694604F00DFB002803D000221146FBF787
:10C8A00045FF002008BD0000A821002063200000F3
:10C8B00086EFFFFFEBC701003BC70100F3B581B076
:10C8C0000198002850D0029800284DD0FC480178EB
:10C8D000002949D0002141700C46FA4D40E0688B98
:10C8E00046283BD2F74E401CA03668833089374635
:10C8F000401C30818037F88A3146401CF88201980C
:10C9000003220057E031803010F04DFE698B4A0061
:10C91000ED495118803188810198032201190120C5
:10C920000091085639468030983110F03CFE31892C
:10C930004A00E5495118FF3101314883009902202E
:10C940000856394680300322D03110F02CFEF98A87
:10C950004A00DD495118FF31A1310881E41CE4B2DD
:10C960000299A01C8842BAD3FEBD10B50146D74833
:10C9700012F054FDD249486110BD7CB5054601F066
:10C9800098F90F21CE48002D0DD0322282707F22DF
:10C990006B461A7059701E2199707D240A2124015A
:10C9A000D970FA210CE0192282703F226B461A706E
:10C9B00007225A7099707D2405216401D9707D2168
:10C9C000197185720199009810F062FA2046FFF7FC
:10C9D000CCFF7CBDF0B589B00020B9490490082295
:10C9E0001E31684612F074FDB94BB748019A0099A0
:10C9F0000FF0EBFCB6488030408B0790002873D0D6
:10CA0000AF4B00261E330696D888252815D2AC4A8F
:10CA1000517B032901D2491C517324286FD95978BD
:10CA2000039101290CD002291AD03221019101462B
:10CA30005B392C292BD2143010E00021A04AEBE7FF
:10CA40004621019101466039222901D20F3005E0CB
:10CA5000812801D991201FE0C0086130C0B21BE0DD
:10CA60005521019101467939362901D21E3005E060
:10CA7000AE2801D9CD2002E0C0087830C0B20090C5
:10CA80008F48C07A782808D20120069005E08628D1
:10CA900001D9962000E0692000900025B0E0062032
:10CAA0008B4F6843C0190290C188002926D0844862
:10CAB0004069059012F0B2FC0199C4B28C421DD3BA
:10CAC00000998C421AD8049900290ED00620704390
:10CAD000C719F988059812F0A1FC7949C0B2C97A42
:10CAE00088421CD9421A1BE09FE00121049103995E
:10CAF0002E46C0B2022903D0012908D07EE087E08B
:10CB000001996E297AD26E2878D96E2005E00199B4
:10CB1000502973D2502871D9502001906EE00A1A22
:10CB2000D2B294468C4201D9621A00E00A1BD2B2FA
:10CB3000A04201D9031B00E0231ADBB20593069B38
:10CB4000002B02D0012B2CD058E0029909890291C8
:10CB50003B89994201D9C91A00E0591A1E2909DAFC
:10CB600084424BD205980A2819D8624517D3072A60
:10CB700015D343E00599092908D38442029808D2C5
:10CB8000984203D9AA2801D2932B08D3624506D331
:10CB900034E0984232D2932B30D969282ED92E46D0
:10CBA0002CE0029B3F891B89BB4201D9DB1B00E0C3
:10CBB000FB1A192B09DAD21C62451FD28C42EED81F
:10CBC0008C421BD28842EAD318E0059B092B04D281
:10CBD0006245E4D38442E2D810E08C4201D9884215
:10CBE000D4D88C4201D28842D0D361466245D6D394
:10CBF000844203D90C2A01D20629D0D86D1CEDB28B
:10CC00000798A84200D94AE7049800280CD00EE003
:10CC10002F48C188002907D02948406912F0FEFB3F
:10CC2000C0B22438A92802D3002009B0F0BD0620E4
:10CC300046432748224D3018C6886869314612F0AD
:10CC4000EDFBC4B2687A00281FD0A87A00280DD066
:10CC50002048864207D9287A401CC0B22872022890
:10CC600013D900200CE0002028720EE01A488642FA
:10CC700009D2E879401CC0B2E871022805D9012028
:10CC8000FFF77BFE01E00020E8710D48C07A844286
:10CC900001D9211A00E0011B0C2901DD20184408EC
:10CCA0000B4D0820F03D297A082917D22C706C70A2
:10CCB000AC70EC702C716C71AC71EC71287254E03A
:10CCC000B021002020400020203F00200046C32348
:10CCD00048420020B80B0000DC050000287268788C
:10CCE0002870A87868708446E878A8702F79EF706B
:10CCF00068792871EA79A9790646824201D9131A1E
:10CD000000E0831A072B0ADDA24201D9131B00E0C1
:10CD1000A31A072B03DD02195208EA7100E0EC7137
:10CD2000814201D90B1A00E0431A072B0ADD914218
:10CD300001D98B1A00E0531A072B03DD8018410834
:10CD4000A97100E0AA716046C0194008A870801956
:10CD500044086018EC7040082871A9794018400810
:10CD60006871E97940184008A871D24D0320E9782C
:10CD7000E870032902D22C706C70AC702F786E783A
:10CD8000A9786200B81989184018801C052112F092
:10CD900045FBC0B22871AE70C6496F700122287081
:10CDA00018390A7341E730B5C249002218398B7926
:10CDB000834211D0CB78002B0BD00B79834207D064
:10CDC0000B461E335C884D7964195C804A7108718A
:10CDD00030BD0123CB70F9E7CA7030BDF8B5B54D51
:10CDE000183D2978002955D06978FF2902D2697841
:10CDF000491C6970B04CA1892646803E46290AD25A
:10CE0000491CA1810C22AD4910F0CDFBA18949003C
:10CE100089192039C883A878A189401E814239DD4B
:10CE2000A54F8037788B312834D96878012831D9DB
:10CE300000F0F7F800202882401E6882A189AA78B5
:10CE40000020914200D31146C9B200220EE09A4B55
:10CE50005600803B9B5B2E8A1818B34200D92B8268
:10CE60006E8AB34200D26B82521CD2B28A42EED397
:10CE700012F0D4FAE881FFF7ADFD002800D0E87287
:10CE800000F0A0FC00208D49A0817883A83908819A
:10CE90008031C882F8BD874918390870704730B5AD
:10CEA000844C183C2246E1781E329088002914D028
:10CEB0006179491CC9B261712379002B02D007291D
:10CEC00002D830BD0C29FCD90025E57055781570C5
:10CED000508053709180A37130BD79498842FBD254
:10CEE000401C908030BD10B57648FCF74EFE764869
:10CEF00001F0D1FA0FF062FA05217448FCF7CBFC7F
:10CF0000002803D16B4901201839487210BD10B5B3
:10CF10000FF054FA69490020103908726549C87049
:10CF200010BD64496A4A1839C889904210D3694AC9
:10CF3000904205D2088A498A401A642808DB2CE00E
:10CF4000654A904206D2088A498A401A502824DA53
:10CF500001207047614A904205D2088A498A401AE6
:10CF600050281ADB39E05E4A904205D2088A498A85
:10CF7000401A462811DB30E05A4A904205D2088A0E
:10CF8000498A401A322808DB27E0574A904206D2E5
:10CF9000088A498A401A23281FDA02207047534A18
:10CFA000904205D2088A498A401A322811DB14E0DF
:10CFB0004F4A904205D2088A498A401A23280ADB40
:10CFC00007E04C4A904206D2088A498A401A2D2826
:10CFD00001DB03207047042070470020704710B524
:10CFE000FEF76AFB022812D832491839088A4A8AA1
:10CFF000801A1B2803DACA89354B9A4205D3C9899E
:10D000003D4A914201D3142801DA002010BD0120CD
:10D0100010BD284918394872704726481838807A58
:10D02000704770B5FEF748FB0546FEF7D8FA214C6D
:10D03000324BA41DE08020482246083230490E3091
:10D040000FF09CFD2D4B1C4822469C3308322D4985
:10D050009C300FF093FD2A4B184822469C3B083227
:10D0600029499E380FF08AFD012D21D9234A2348F2
:10D070009C32006811469C31572805D81368572BFD
:10D0800002D80B68572B04D9E3887D2B01D90220E5
:10D090000BE0092805D81068092802D80868092873
:10D0A00005D9E088232802D90120FFF77CFE70BD56
:10D0B0000020FAE7C8210020A03F0020684100209E
:10D0C000FFFF0000BDC80100DDCD01009FCE0100C3
:10D0D000E02E0000983A0000204E0000A8610000F9
:10D0E000307500008890000010A4000098B7000080
:10D0F00050C30000D8D6000088130000E44200208E
:10D10000B8440020EC4500202047002070B5F84CC2
:10D110000546A07900280ED00120FFF77AFF20787D
:10D12000002808D0680707D02078A843207020780E
:10D13000002803D0002070BD012070BD00F0D4FF96
:10D140000006000E03D000221146FBF7EFFA0FF0A5
:10D1500035F9E74900201F31087048702072E9E76F
:10D1600070B5E34C002802D00120207370BD00256B
:10D1700025732078C007F9D00120FFF7C7FF25836A
:10D1800070BD70B5DA4D297809071DD50121A97246
:10D19000697A002918D12978F72211402970297855
:10D1A000002400290FD000F0FFFF002803D0002248
:10D1B0001146FBF7BBFACE481F30047044702C7246
:10D1C0006C74AC732C74AC7270BD70B504464207BD
:10D1D0000120C74D002A01DBA20700D5A871AA795A
:10D1E000002A50D062071BD0A20700D56970E20761
:10D1F0000026002A04D0E8726983BD4931318E715E
:10D20000610701D4A10704D5E872A8740720A870AB
:10D210002E7528780028287804D02043287032E022
:10D22000012070BD20432870E87A00282BD0287890
:10D230000107E0434007C01700290ADB401C00F04B
:10D24000B3FF0006000E07D000221146FBF76EFA6E
:10D2500002E0401CFFF795FF600701D4A00709D545
:10D26000FFF7DBFE002802D10120FFF786FB00203C
:10D27000FFF7CFFE9E481F3046702E726E74AE735D
:10D280002E74FFF744FE002070BD10B5994B86B098
:10D29000C41A984225D00BDC974BC01810D02B280D
:10D2A0001DD02C281DD094498031401836D116E06D
:10D2B0009248201817D001282ED00D282ED119E021
:10D2C000002901D0032A02D0012006B010BD8848F1
:10D2D0001C3012F0FDF821E0FFF742FF1EE00120B4
:10D2E000FAE70020F8E71E210220FFF76EFF01F0A9
:10D2F000A7F813E0684601F0ABF8694608780873B0
:10D300004888C88188880882C8884882082203A97A
:10D310007B4803F0EFFD01E001F096F80020D4E730
:10D3200070B5734C032060720025A5722078000749
:10D3300015D4207800280ED000F0D6FE002803D0A7
:10D3400000221146FBF7F2F90FF038F868481F3059
:10D35000057045702572207808210843207070BD43
:10D36000002803D0012802D100200AE7D8E770473F
:10D370005F490020383148808880C8803839C870BB
:10D3800008714871C8717047F2E759481F3000783A
:10D39000704770B5564CE07A002812D120780125EC
:10D3A00000280DD0207800070CD4012000F0FCFEEE
:10D3B0000006000E09D000221146FBF7B7F904E081
:10D3C000E57270BD0120FFF7DCFE494900201F31E6
:10D3D0000870487020726074A0732074F0E7F8B58C
:10D3E000FEF76AF90126424D022802D9AE74FFF712
:10D3F000D0FF687B002400281CD1287B002819D08E
:10D40000A87C002816D02878C00713D1288BFF21CC
:10D410002D31884202D2401C28830BE0FEF74CF9E4
:10D42000042807D23C210120FFF7CFFE2C83EC75A6
:10D43000AC756C752878C0071FD0688B002818D091
:10D44000A97D401E491CA9756883FEF735F903289C
:10D450000DD9E87D401CE875687D052802D2401C86
:10D4600068750AE00120FFF751FE962028836C754D
:10D4700003E00120FFF74AFE2C832878800708D5B7
:10D480006878002802D0401E687002E00220FFF792
:10D490003DFE687A00280BD0687A401E6872687A70
:10D4A000002805D1A87A002802D00020FFF769FEE5
:10D4B0002878144F144B40073AD51878BA78194693
:10D4C000193190420AD368793B2802D2401C687116
:10D4D0002EE0C888401CC8806C7129E07A789042A0
:10D4E00019D328793B2811D2401C287120E0000074
:10D4F000E42100207120000088EFFFFF70D1FFFFC2
:10D50000174F000000220020032200208888401CC2
:10D5100088802C710CE03A78904209D3E8783B2857
:10D5200002D2401CE87003E04888401C4880EC7040
:10D53000A878002830D0401E0006000EA8702BD11D
:10D54000287D042828D2AD6A1878002D24D09C703C
:10D550003978884204D25878002816D05C7013E0DD
:10D560007978884204D2587801280ED05E700BE09A
:10D57000B9788842587803D2022806D0022002E007
:10D58000032802D0032058709E700422EE4968469A
:10D5900011F09EFF0098A847F8BD70B5EA4C002531
:10D5A0001F3CA5712570FF20257222302083204664
:10D5B0003130857100F045FD00280BD10521E3488D
:10D5C000FCF769F9002805D10921E148FCF763F966
:10D5D000002801D0012070BD0126A671DD48FCF7AE
:10D5E00041FDDC48FCF700FEDB4803F071FC00283D
:10D5F00003D000221146FBF799F8E6722673657393
:10D6000002210846FFF7E1FD06F02AF8002800D0C5
:10D610000120FFF7A5FD002070BD002808D0CA49F1
:10D620000A7802704A7842708A788270C978C1702C
:10D63000704730B500281AD0C34BC34C1933197842
:10D640000170598841809A888280DB88C3801F3CA2
:10D65000E5781E2D01D9491C418021791E2901D967
:10D66000521C828061791E2901D95B1CC38030BDA8
:10D67000002807D0B449C91E0A7802704A7842705F
:10D6800089788170704710B5AF4C1F3CE07A002854
:10D6900013D000F029FD0006000E03D00022114631
:10D6A000FBF744F820784008400020700020A6498D
:10D6B0002083087048702072E07210BDF8B50146F2
:10D6C0001E39C92906D2A04D1F3D297A032902D24D
:10D6D000491C2972F8BD9C4C1234A179062901D24B
:10D6E000491CA171CAB2984911315054A179062937
:10D6F000F0D3A87DEA7D90425ED94008C01C9042DC
:10D700005AD9914812300FF0F6FB6078A178401892
:10D71000E178081821790818801C8005696A040ED0
:10D72000002901D020468847E8790027002841D108
:10D730006846FCF7F0F868460078801F052839D263
:10D74000FEF7FFF9804E0D36002803D168460078B9
:10D75000072808D93079042801D2401C3071C1B2A1
:10D7600079480C300C54FEF7ECF9002803D16846D8
:10D77000007807281ED9317903291BD900200246D9
:10D7800004E0B35C1818521C80B2D2B29142F8D8AF
:10D7900011F044FE6C4AC0B21932D780844201D9DC
:10D7A000211A00E0011B052901DA147000E0107055
:10D7B0000120E8712F8301E0782028830120FFF702
:10D7C000A5FCF8BDF8B5604D012600241F3D0028DA
:10D7D00033D05D4908702978C90701D0FFF76EFF83
:10D7E000AC70AF6A002F29D057498C70CA1E0878D8
:10D7F0001378984204D24878002816D04C7013E071
:10D800005378984204D2487801280ED04E700BE02D
:10D8100092789042487803D2022806D0022002E093
:10D82000032802D0032048708E70042246496846BF
:10D8300011F04EFE0098B84700E02C72FFF771FB24
:10D84000074604280BD0032F09D0E87C002817D006
:10D85000EC74AC73012F15D0022F13D01EE0A87BFF
:10D86000022802D2401CA87306E0042F06D0002133
:10D87000002000F09EFD6C74EC74EBE70121F7E7EB
:10D88000EE74E7E7287C032802D2401C287406E0E7
:10D89000012F0ED00021012000F08BFD2C74FFF72A
:10D8A0009EFB002807D0E87B032826D2401CE873A3
:10D8B000F8BD0121EFE7287D401C2875687C05280C
:10D8C00002D2401C687416E0FDF7F6FE032800D271
:10D8D000AC74FFF7D8FE1C480470C67044708670A4
:10D8E000AE6A002E06D001460422684611F0F0FD13
:10D8F0000098B0476C74EC73F8BDEC736C74F8BDB1
:10D9000010B5FF20FFF702FC0F4900201F39887176
:10D9100010BD10B5FF20FFF7F9FB0B4900201F39A0
:10D92000887100F05BFD00F0DFFA10BD06490120B0
:10D930001F398871704704491F394862704702488F
:10D940001F38807C7047000003220020DFD30100D5
:10D9500089D3010061D301008BD2010033B585B0BA
:10D9600014224249684611F0B3FD6846417E418168
:10D97000817E4180017E0181057D0021284600F0E5
:10D98000EEF9284600F032F90446284600F0EEF899
:10D990000419684640880F21C2B2284600F078F981
:10D9A0000419684680880121C2B2284600F022F995
:10D9B00004196846C0880221C2B2284600F01AF94C
:10D9C000041904221146284600F062F904190022C5
:10D9D0000521284600F05CF90419684640890B21AE
:10D9E000C2B2284600F006F90419684680890C2165
:10D9F000C2B2284600F0FEF8041970220A21284617
:10DA000000F0F8F804196846C08907210207120FD0
:10DA1000284600F0EFF804196846C089082100067E
:10DA2000020F284600F0E6F804196846C08909216B
:10DA30000005020F284600F0DDF804196846008949
:10DA40000821C2B2284600F023F9041908220A214D
:10DA5000284600F01DF9041908220921284600F083
:10DA600017F9001980B207B030BD00004817030055
:10DA7000F8B50E4607460025202100F070F9041E77
:10DA800030DB384600F0EFF840B200282AD1002EF3
:10DA90000DD02021384600F062F940B2A04206D0F5
:10DAA00000281FDB6D1CEDB20446322DE9D332464F
:10DAB0001821384600F0ECF840B2002812D10025B9
:10DAC000002E0ED02021384600F049F940B2A04285
:10DAD00007D1002806DB6D1CEDB200F000FB322DF3
